{
	"RM.sol": {
		"GoldToken": {
			"abi": [
				{
					"inputs": [
						{
							"internalType": "address",
							"name": "_priceFeed",
							"type": "address"
						},
						{
							"internalType": "address",
							"name": "_usdtToken",
							"type": "address"
						}
					],
					"stateMutability": "nonpayable",
					"type": "constructor"
				},
				{
					"anonymous": false,
					"inputs": [
						{
							"indexed": true,
							"internalType": "address",
							"name": "user",
							"type": "address"
						},
						{
							"indexed": false,
							"internalType": "uint256",
							"name": "amount",
							"type": "uint256"
						},
						{
							"indexed": false,
							"internalType": "uint256",
							"name": "duration",
							"type": "uint256"
						}
					],
					"name": "FundsLocked",
					"type": "event"
				},
				{
					"anonymous": false,
					"inputs": [
						{
							"indexed": true,
							"internalType": "address",
							"name": "buyer",
							"type": "address"
						},
						{
							"indexed": false,
							"internalType": "enum GoldToken.OptionPeriod",
							"name": "period",
							"type": "uint8"
						}
					],
					"name": "TetherGoldOptionPurchased",
					"type": "event"
				},
				{
					"anonymous": false,
					"inputs": [
						{
							"indexed": true,
							"internalType": "address",
							"name": "seller",
							"type": "address"
						},
						{
							"indexed": false,
							"internalType": "enum GoldToken.OptionPeriod",
							"name": "period",
							"type": "uint8"
						}
					],
					"name": "TetherGoldOptionSold",
					"type": "event"
				},
				{
					"anonymous": false,
					"inputs": [
						{
							"indexed": true,
							"internalType": "address",
							"name": "buyer",
							"type": "address"
						},
						{
							"indexed": false,
							"internalType": "uint256",
							"name": "amount",
							"type": "uint256"
						}
					],
					"name": "XAUTPurchased",
					"type": "event"
				},
				{
					"anonymous": false,
					"inputs": [
						{
							"indexed": true,
							"internalType": "address",
							"name": "user",
							"type": "address"
						},
						{
							"indexed": false,
							"internalType": "uint256",
							"name": "amount",
							"type": "uint256"
						}
					],
					"name": "XAUTWithdrawn",
					"type": "event"
				},
				{
					"inputs": [],
					"name": "getLatestPrice",
					"outputs": [
						{
							"internalType": "uint256",
							"name": "",
							"type": "uint256"
						}
					],
					"stateMutability": "view",
					"type": "function"
				},
				{
					"inputs": [
						{
							"internalType": "address",
							"name": "",
							"type": "address"
						}
					],
					"name": "lockEndTimes",
					"outputs": [
						{
							"internalType": "uint256",
							"name": "",
							"type": "uint256"
						}
					],
					"stateMutability": "view",
					"type": "function"
				},
				{
					"inputs": [
						{
							"internalType": "uint256",
							"name": "amount",
							"type": "uint256"
						},
						{
							"internalType": "uint256",
							"name": "durationInDays",
							"type": "uint256"
						}
					],
					"name": "lockFunds",
					"outputs": [],
					"stateMutability": "nonpayable",
					"type": "function"
				},
				{
					"inputs": [
						{
							"internalType": "address",
							"name": "",
							"type": "address"
						}
					],
					"name": "lockedFunds",
					"outputs": [
						{
							"internalType": "uint256",
							"name": "",
							"type": "uint256"
						}
					],
					"stateMutability": "view",
					"type": "function"
				},
				{
					"inputs": [],
					"name": "priceFeed",
					"outputs": [
						{
							"internalType": "contract AggregatorV3Interface",
							"name": "",
							"type": "address"
						}
					],
					"stateMutability": "view",
					"type": "function"
				},
				{
					"inputs": [
						{
							"internalType": "enum GoldToken.OptionPeriod",
							"name": "period",
							"type": "uint8"
						}
					],
					"name": "purchaseTetherGoldOption",
					"outputs": [],
					"stateMutability": "nonpayable",
					"type": "function"
				},
				{
					"inputs": [
						{
							"internalType": "uint256",
							"name": "amount",
							"type": "uint256"
						}
					],
					"name": "purchaseXAUT",
					"outputs": [],
					"stateMutability": "nonpayable",
					"type": "function"
				},
				{
					"inputs": [
						{
							"internalType": "address",
							"name": "",
							"type": "address"
						}
					],
					"name": "rewards",
					"outputs": [
						{
							"internalType": "uint256",
							"name": "",
							"type": "uint256"
						}
					],
					"stateMutability": "view",
					"type": "function"
				},
				{
					"inputs": [
						{
							"internalType": "enum GoldToken.OptionPeriod",
							"name": "period",
							"type": "uint8"
						}
					],
					"name": "sellTetherGoldOption",
					"outputs": [],
					"stateMutability": "nonpayable",
					"type": "function"
				},
				{
					"inputs": [
						{
							"internalType": "address",
							"name": "",
							"type": "address"
						}
					],
					"name": "tetherGoldOptions",
					"outputs": [
						{
							"internalType": "uint256",
							"name": "",
							"type": "uint256"
						}
					],
					"stateMutability": "view",
					"type": "function"
				},
				{
					"inputs": [],
					"name": "usdtToken",
					"outputs": [
						{
							"internalType": "contract IERC20",
							"name": "",
							"type": "address"
						}
					],
					"stateMutability": "view",
					"type": "function"
				},
				{
					"inputs": [],
					"name": "withdrawRewards",
					"outputs": [],
					"stateMutability": "nonpayable",
					"type": "function"
				},
				{
					"inputs": [
						{
							"internalType": "uint256",
							"name": "amount",
							"type": "uint256"
						}
					],
					"name": "withdrawXAUT",
					"outputs": [],
					"stateMutability": "nonpayable",
					"type": "function"
				},
				{
					"inputs": [
						{
							"internalType": "address",
							"name": "",
							"type": "address"
						}
					],
					"name": "xautBalances",
					"outputs": [
						{
							"internalType": "uint256",
							"name": "",
							"type": "uint256"
						}
					],
					"stateMutability": "view",
					"type": "function"
				}
			],
			"devdoc": {
				"kind": "dev",
				"methods": {},
				"version": 1
			},
			"evm": {
				"assembly": "    /* \"RM.sol\":200:5717  contract GoldToken {... */\n  mstore(0x40, 0x80)\n    /* \"RM.sol\":1602:1818  constructor(address _priceFeed, address _usdtToken) {... */\n  callvalue\n  dup1\n  iszero\n  tag_1\n  jumpi\n  0x00\n  dup1\n  revert\ntag_1:\n  pop\n  mload(0x40)\n  sub(codesize, bytecodeSize)\n  dup1\n  bytecodeSize\n  dup4\n  codecopy\n  dup2\n  dup2\n  add\n  0x40\n  mstore\n  dup2\n  add\n  swap1\n  tag_2\n  swap2\n  swap1\n  tag_3\n  jump\t// in\ntag_2:\n    /* \"RM.sol\":1699:1709  _priceFeed */\n  dup2\n    /* \"RM.sol\":1665:1674  priceFeed */\n  0x05\n  0x00\n    /* \"RM.sol\":1665:1710  priceFeed = AggregatorV3Interface(_priceFeed) */\n  0x0100\n  exp\n  dup2\n  sload\n  dup2\n  0xffffffffffffffffffffffffffffffffffffffff\n  mul\n  not\n  and\n  swap1\n  dup4\n  0xffffffffffffffffffffffffffffffffffffffff\n  and\n  mul\n  or\n  swap1\n  sstore\n  pop\n    /* \"RM.sol\":1771:1781  _usdtToken */\n  dup1\n    /* \"RM.sol\":1752:1761  usdtToken */\n  0x06\n  0x00\n    /* \"RM.sol\":1752:1782  usdtToken = IERC20(_usdtToken) */\n  0x0100\n  exp\n  dup2\n  sload\n  dup2\n  0xffffffffffffffffffffffffffffffffffffffff\n  mul\n  not\n  and\n  swap1\n  dup4\n  0xffffffffffffffffffffffffffffffffffffffff\n  and\n  mul\n  or\n  swap1\n  sstore\n  pop\n    /* \"RM.sol\":1602:1818  constructor(address _priceFeed, address _usdtToken) {... */\n  pop\n  pop\n    /* \"RM.sol\":200:5717  contract GoldToken {... */\n  jump(tag_6)\n    /* \"#utility.yul\":88:205   */\ntag_8:\n    /* \"#utility.yul\":197:198   */\n  0x00\n    /* \"#utility.yul\":194:195   */\n  dup1\n    /* \"#utility.yul\":187:199   */\n  revert\n    /* \"#utility.yul\":334:460   */\ntag_10:\n    /* \"#utility.yul\":371:378   */\n  0x00\n    /* \"#utility.yul\":411:453   */\n  0xffffffffffffffffffffffffffffffffffffffff\n    /* \"#utility.yul\":404:409   */\n  dup3\n    /* \"#utility.yul\":400:454   */\n  and\n    /* \"#utility.yul\":389:454   */\n  swap1\n  pop\n    /* \"#utility.yul\":334:460   */\n  swap2\n  swap1\n  pop\n  jump\t// out\n    /* \"#utility.yul\":466:562   */\ntag_11:\n    /* \"#utility.yul\":503:510   */\n  0x00\n    /* \"#utility.yul\":532:556   */\n  tag_20\n    /* \"#utility.yul\":550:555   */\n  dup3\n    /* \"#utility.yul\":532:556   */\n  tag_10\n  jump\t// in\ntag_20:\n    /* \"#utility.yul\":521:556   */\n  swap1\n  pop\n    /* \"#utility.yul\":466:562   */\n  swap2\n  swap1\n  pop\n  jump\t// out\n    /* \"#utility.yul\":568:690   */\ntag_12:\n    /* \"#utility.yul\":641:665   */\n  tag_22\n    /* \"#utility.yul\":659:664   */\n  dup2\n    /* \"#utility.yul\":641:665   */\n  tag_11\n  jump\t// in\ntag_22:\n    /* \"#utility.yul\":634:639   */\n  dup2\n    /* \"#utility.yul\":631:666   */\n  eq\n    /* \"#utility.yul\":621:684   */\n  tag_23\n  jumpi\n    /* \"#utility.yul\":680:681   */\n  0x00\n    /* \"#utility.yul\":677:678   */\n  dup1\n    /* \"#utility.yul\":670:682   */\n  revert\n    /* \"#utility.yul\":621:684   */\ntag_23:\n    /* \"#utility.yul\":568:690   */\n  pop\n  jump\t// out\n    /* \"#utility.yul\":696:839   */\ntag_13:\n    /* \"#utility.yul\":753:758   */\n  0x00\n    /* \"#utility.yul\":784:790   */\n  dup2\n    /* \"#utility.yul\":778:791   */\n  mload\n    /* \"#utility.yul\":769:791   */\n  swap1\n  pop\n    /* \"#utility.yul\":800:833   */\n  tag_25\n    /* \"#utility.yul\":827:832   */\n  dup2\n    /* \"#utility.yul\":800:833   */\n  tag_12\n  jump\t// in\ntag_25:\n    /* \"#utility.yul\":696:839   */\n  swap3\n  swap2\n  pop\n  pop\n  jump\t// out\n    /* \"#utility.yul\":845:1352   */\ntag_3:\n    /* \"#utility.yul\":924:930   */\n  0x00\n    /* \"#utility.yul\":932:938   */\n  dup1\n    /* \"#utility.yul\":981:983   */\n  0x40\n    /* \"#utility.yul\":969:978   */\n  dup4\n    /* \"#utility.yul\":960:967   */\n  dup6\n    /* \"#utility.yul\":956:979   */\n  sub\n    /* \"#utility.yul\":952:984   */\n  slt\n    /* \"#utility.yul\":949:1068   */\n  iszero\n  tag_27\n  jumpi\n    /* \"#utility.yul\":987:1066   */\n  tag_28\n  tag_8\n  jump\t// in\ntag_28:\n    /* \"#utility.yul\":949:1068   */\ntag_27:\n    /* \"#utility.yul\":1107:1108   */\n  0x00\n    /* \"#utility.yul\":1132:1196   */\n  tag_29\n    /* \"#utility.yul\":1188:1195   */\n  dup6\n    /* \"#utility.yul\":1179:1185   */\n  dup3\n    /* \"#utility.yul\":1168:1177   */\n  dup7\n    /* \"#utility.yul\":1164:1186   */\n  add\n    /* \"#utility.yul\":1132:1196   */\n  tag_13\n  jump\t// in\ntag_29:\n    /* \"#utility.yul\":1122:1196   */\n  swap3\n  pop\n    /* \"#utility.yul\":1078:1206   */\n  pop\n    /* \"#utility.yul\":1245:1247   */\n  0x20\n    /* \"#utility.yul\":1271:1335   */\n  tag_30\n    /* \"#utility.yul\":1327:1334   */\n  dup6\n    /* \"#utility.yul\":1318:1324   */\n  dup3\n    /* \"#utility.yul\":1307:1316   */\n  dup7\n    /* \"#utility.yul\":1303:1325   */\n  add\n    /* \"#utility.yul\":1271:1335   */\n  tag_13\n  jump\t// in\ntag_30:\n    /* \"#utility.yul\":1261:1335   */\n  swap2\n  pop\n    /* \"#utility.yul\":1216:1345   */\n  pop\n    /* \"#utility.yul\":845:1352   */\n  swap3\n  pop\n  swap3\n  swap1\n  pop\n  jump\t// out\n    /* \"RM.sol\":200:5717  contract GoldToken {... */\ntag_6:\n  dataSize(sub_0)\n  dup1\n  dataOffset(sub_0)\n  0x00\n  codecopy\n  0x00\n  return\nstop\n\nsub_0: assembly {\n        /* \"RM.sol\":200:5717  contract GoldToken {... */\n      mstore(0x40, 0x80)\n      callvalue\n      dup1\n      iszero\n      tag_1\n      jumpi\n      0x00\n      dup1\n      revert\n    tag_1:\n      pop\n      jumpi(tag_2, lt(calldatasize, 0x04))\n      shr(0xe0, calldataload(0x00))\n      dup1\n      0x97aca13e\n      gt\n      tag_17\n      jumpi\n      dup1\n      0xb86247d7\n      gt\n      tag_18\n      jumpi\n      dup1\n      0xb86247d7\n      eq\n      tag_13\n      jumpi\n      dup1\n      0xc7b8981c\n      eq\n      tag_14\n      jumpi\n      dup1\n      0xddaa8658\n      eq\n      tag_15\n      jumpi\n      dup1\n      0xf50e2252\n      eq\n      tag_16\n      jumpi\n      jump(tag_2)\n    tag_18:\n      dup1\n      0x97aca13e\n      eq\n      tag_10\n      jumpi\n      dup1\n      0xa98ad46c\n      eq\n      tag_11\n      jumpi\n      dup1\n      0xb74973c5\n      eq\n      tag_12\n      jumpi\n      jump(tag_2)\n    tag_17:\n      dup1\n      0x42712167\n      gt\n      tag_19\n      jumpi\n      dup1\n      0x42712167\n      eq\n      tag_6\n      jumpi\n      dup1\n      0x741bef1a\n      eq\n      tag_7\n      jumpi\n      dup1\n      0x7d59080e\n      eq\n      tag_8\n      jumpi\n      dup1\n      0x8e15f473\n      eq\n      tag_9\n      jumpi\n      jump(tag_2)\n    tag_19:\n      dup1\n      0x0700037d\n      eq\n      tag_3\n      jumpi\n      dup1\n      0x2bfc8df0\n      eq\n      tag_4\n      jumpi\n      dup1\n      0x3287db4b\n      eq\n      tag_5\n      jumpi\n    tag_2:\n      0x00\n      dup1\n      revert\n        /* \"RM.sol\":794:836  mapping(address => uint256) public rewards */\n    tag_3:\n      tag_20\n      0x04\n      dup1\n      calldatasize\n      sub\n      dup2\n      add\n      swap1\n      tag_21\n      swap2\n      swap1\n      tag_22\n      jump\t// in\n    tag_21:\n      tag_23\n      jump\t// in\n    tag_20:\n      mload(0x40)\n      tag_24\n      swap2\n      swap1\n      tag_25\n      jump\t// in\n    tag_24:\n      mload(0x40)\n      dup1\n      swap2\n      sub\n      swap1\n      return\n        /* \"RM.sol\":1856:2518  function purchaseXAUT(uint256 amount) external {... */\n    tag_4:\n      tag_26\n      0x04\n      dup1\n      calldatasize\n      sub\n      dup2\n      add\n      swap1\n      tag_27\n      swap2\n      swap1\n      tag_28\n      jump\t// in\n    tag_27:\n      tag_29\n      jump\t// in\n    tag_26:\n      stop\n        /* \"RM.sol\":3955:4474  function lockFunds(uint256 amount, uint256 durationInDays) external {... */\n    tag_5:\n      tag_30\n      0x04\n      dup1\n      calldatasize\n      sub\n      dup2\n      add\n      swap1\n      tag_31\n      swap2\n      swap1\n      tag_32\n      jump\t// in\n    tag_31:\n      tag_33\n      jump\t// in\n    tag_30:\n      stop\n        /* \"RM.sol\":695:742  mapping(address => uint256) public lockEndTimes */\n    tag_6:\n      tag_34\n      0x04\n      dup1\n      calldatasize\n      sub\n      dup2\n      add\n      swap1\n      tag_35\n      swap2\n      swap1\n      tag_22\n      jump\t// in\n    tag_35:\n      tag_36\n      jump\t// in\n    tag_34:\n      mload(0x40)\n      tag_37\n      swap2\n      swap1\n      tag_25\n      jump\t// in\n    tag_37:\n      mload(0x40)\n      dup1\n      swap2\n      sub\n      swap1\n      return\n        /* \"RM.sol\":845:883  AggregatorV3Interface public priceFeed */\n    tag_7:\n      tag_38\n      tag_39\n      jump\t// in\n    tag_38:\n      mload(0x40)\n      tag_40\n      swap2\n      swap1\n      tag_41\n      jump\t// in\n    tag_40:\n      mload(0x40)\n      dup1\n      swap2\n      sub\n      swap1\n      return\n        /* \"RM.sol\":2939:3220  function withdrawXAUT(uint256 amount) external {... */\n    tag_8:\n      tag_42\n      0x04\n      dup1\n      calldatasize\n      sub\n      dup2\n      add\n      swap1\n      tag_43\n      swap2\n      swap1\n      tag_28\n      jump\t// in\n    tag_43:\n      tag_44\n      jump\t// in\n    tag_42:\n      stop\n        /* \"RM.sol\":2562:2901  function getLatestPrice() public view returns (uint256) {... */\n    tag_9:\n      tag_45\n      tag_46\n      jump\t// in\n    tag_45:\n      mload(0x40)\n      tag_47\n      swap2\n      swap1\n      tag_25\n      jump\t// in\n    tag_47:\n      mload(0x40)\n      dup1\n      swap2\n      sub\n      swap1\n      return\n        /* \"RM.sol\":475:527  mapping(address => uint256) public tetherGoldOptions */\n    tag_10:\n      tag_48\n      0x04\n      dup1\n      calldatasize\n      sub\n      dup2\n      add\n      swap1\n      tag_49\n      swap2\n      swap1\n      tag_22\n      jump\t// in\n    tag_49:\n      tag_50\n      jump\t// in\n    tag_48:\n      mload(0x40)\n      tag_51\n      swap2\n      swap1\n      tag_25\n      jump\t// in\n    tag_51:\n      mload(0x40)\n      dup1\n      swap2\n      sub\n      swap1\n      return\n        /* \"RM.sol\":924:947  IERC20 public usdtToken */\n    tag_11:\n      tag_52\n      tag_53\n      jump\t// in\n    tag_52:\n      mload(0x40)\n      tag_54\n      swap2\n      swap1\n      tag_55\n      jump\t// in\n    tag_54:\n      mload(0x40)\n      dup1\n      swap2\n      sub\n      swap1\n      return\n        /* \"RM.sol\":3271:3507  function purchaseTetherGoldOption(OptionPeriod period) external {... */\n    tag_12:\n      tag_56\n      0x04\n      dup1\n      calldatasize\n      sub\n      dup2\n      add\n      swap1\n      tag_57\n      swap2\n      swap1\n      tag_58\n      jump\t// in\n    tag_57:\n      tag_59\n      jump\t// in\n    tag_56:\n      stop\n        /* \"RM.sol\":588:634  mapping(address => uint256) public lockedFunds */\n    tag_13:\n      tag_60\n      0x04\n      dup1\n      calldatasize\n      sub\n      dup2\n      add\n      swap1\n      tag_61\n      swap2\n      swap1\n      tag_22\n      jump\t// in\n    tag_61:\n      tag_62\n      jump\t// in\n    tag_60:\n      mload(0x40)\n      tag_63\n      swap2\n      swap1\n      tag_25\n      jump\t// in\n    tag_63:\n      mload(0x40)\n      dup1\n      swap2\n      sub\n      swap1\n      return\n        /* \"RM.sol\":5259:5714  function withdrawRewards() external {... */\n    tag_14:\n      tag_64\n      tag_65\n      jump\t// in\n    tag_64:\n      stop\n        /* \"RM.sol\":363:410  mapping(address => uint256) public xautBalances */\n    tag_15:\n      tag_66\n      0x04\n      dup1\n      calldatasize\n      sub\n      dup2\n      add\n      swap1\n      tag_67\n      swap2\n      swap1\n      tag_22\n      jump\t// in\n    tag_67:\n      tag_68\n      jump\t// in\n    tag_66:\n      mload(0x40)\n      tag_69\n      swap2\n      swap1\n      tag_25\n      jump\t// in\n    tag_69:\n      mload(0x40)\n      dup1\n      swap2\n      sub\n      swap1\n      return\n        /* \"RM.sol\":3558:3902  function sellTetherGoldOption(OptionPeriod period) external {... */\n    tag_16:\n      tag_70\n      0x04\n      dup1\n      calldatasize\n      sub\n      dup2\n      add\n      swap1\n      tag_71\n      swap2\n      swap1\n      tag_58\n      jump\t// in\n    tag_71:\n      tag_72\n      jump\t// in\n    tag_70:\n      stop\n        /* \"RM.sol\":794:836  mapping(address => uint256) public rewards */\n    tag_23:\n      mstore(0x20, 0x04)\n      dup1\n      0x00\n      mstore\n      keccak256(0x00, 0x40)\n      0x00\n      swap2\n      pop\n      swap1\n      pop\n      sload\n      dup2\n      jump\t// out\n        /* \"RM.sol\":1856:2518  function purchaseXAUT(uint256 amount) external {... */\n    tag_29:\n        /* \"RM.sol\":1914:1927  uint256 price */\n      0x00\n        /* \"RM.sol\":1930:1946  getLatestPrice() */\n      tag_74\n        /* \"RM.sol\":1930:1944  getLatestPrice */\n      tag_46\n        /* \"RM.sol\":1930:1946  getLatestPrice() */\n      jump\t// in\n    tag_74:\n        /* \"RM.sol\":1914:1946  uint256 price = getLatestPrice() */\n      swap1\n      pop\n        /* \"RM.sol\":1979:2001  uint256 requiredAmount */\n      0x00\n        /* \"RM.sol\":2013:2018  price */\n      dup2\n        /* \"RM.sol\":2004:2010  amount */\n      dup4\n        /* \"RM.sol\":2004:2018  amount * price */\n      tag_75\n      swap2\n      swap1\n      tag_76\n      jump\t// in\n    tag_75:\n        /* \"RM.sol\":1979:2018  uint256 requiredAmount = amount * price */\n      swap1\n      pop\n        /* \"RM.sol\":2157:2171  requiredAmount */\n      dup1\n        /* \"RM.sol\":2122:2131  usdtToken */\n      0x06\n      0x00\n      swap1\n      sload\n      swap1\n      0x0100\n      exp\n      swap1\n      div\n      0xffffffffffffffffffffffffffffffffffffffff\n      and\n        /* \"RM.sol\":2122:2141  usdtToken.balanceOf */\n      0xffffffffffffffffffffffffffffffffffffffff\n      and\n      0x70a08231\n        /* \"RM.sol\":2142:2152  msg.sender */\n      caller\n        /* \"RM.sol\":2122:2153  usdtToken.balanceOf(msg.sender) */\n      mload(0x40)\n      dup3\n      0xffffffff\n      and\n      0xe0\n      shl\n      dup2\n      mstore\n      0x04\n      add\n      tag_77\n      swap2\n      swap1\n      tag_78\n      jump\t// in\n    tag_77:\n      0x20\n      mload(0x40)\n      dup1\n      dup4\n      sub\n      dup2\n      dup7\n      gas\n      staticcall\n      iszero\n      dup1\n      iszero\n      tag_80\n      jumpi\n      returndatasize\n      0x00\n      dup1\n      returndatacopy\n      revert(0x00, returndatasize)\n    tag_80:\n      pop\n      pop\n      pop\n      pop\n      mload(0x40)\n      returndatasize\n      not(0x1f)\n      0x1f\n      dup3\n      add\n      and\n      dup3\n      add\n      dup1\n      0x40\n      mstore\n      pop\n      dup2\n      add\n      swap1\n      tag_81\n      swap2\n      swap1\n      tag_82\n      jump\t// in\n    tag_81:\n        /* \"RM.sol\":2122:2171  usdtToken.balanceOf(msg.sender) >= requiredAmount */\n      lt\n      iszero\n        /* \"RM.sol\":2114:2201  require(usdtToken.balanceOf(msg.sender) >= requiredAmount, \"Insufficient USDT balance\") */\n      tag_83\n      jumpi\n      mload(0x40)\n      0x08c379a000000000000000000000000000000000000000000000000000000000\n      dup2\n      mstore\n      0x04\n      add\n      tag_84\n      swap1\n      tag_85\n      jump\t// in\n    tag_84:\n      mload(0x40)\n      dup1\n      swap2\n      sub\n      swap1\n      revert\n    tag_83:\n        /* \"RM.sol\":2271:2280  usdtToken */\n      0x06\n      0x00\n      swap1\n      sload\n      swap1\n      0x0100\n      exp\n      swap1\n      div\n      0xffffffffffffffffffffffffffffffffffffffff\n      and\n        /* \"RM.sol\":2271:2293  usdtToken.transferFrom */\n      0xffffffffffffffffffffffffffffffffffffffff\n      and\n      0x23b872dd\n        /* \"RM.sol\":2294:2304  msg.sender */\n      caller\n        /* \"RM.sol\":2314:2318  this */\n      address\n        /* \"RM.sol\":2321:2335  requiredAmount */\n      dup5\n        /* \"RM.sol\":2271:2336  usdtToken.transferFrom(msg.sender, address(this), requiredAmount) */\n      mload(0x40)\n      dup5\n      0xffffffff\n      and\n      0xe0\n      shl\n      dup2\n      mstore\n      0x04\n      add\n      tag_86\n      swap4\n      swap3\n      swap2\n      swap1\n      tag_87\n      jump\t// in\n    tag_86:\n      0x20\n      mload(0x40)\n      dup1\n      dup4\n      sub\n      dup2\n      0x00\n      dup8\n      gas\n      call\n      iszero\n      dup1\n      iszero\n      tag_89\n      jumpi\n      returndatasize\n      0x00\n      dup1\n      returndatacopy\n      revert(0x00, returndatasize)\n    tag_89:\n      pop\n      pop\n      pop\n      pop\n      mload(0x40)\n      returndatasize\n      not(0x1f)\n      0x1f\n      dup3\n      add\n      and\n      dup3\n      add\n      dup1\n      0x40\n      mstore\n      pop\n      dup2\n      add\n      swap1\n      tag_90\n      swap2\n      swap1\n      tag_91\n      jump\t// in\n    tag_90:\n        /* \"RM.sol\":2263:2361  require(usdtToken.transferFrom(msg.sender, address(this), requiredAmount), \"USDT transfer failed\") */\n      tag_92\n      jumpi\n      mload(0x40)\n      0x08c379a000000000000000000000000000000000000000000000000000000000\n      dup2\n      mstore\n      0x04\n      add\n      tag_93\n      swap1\n      tag_94\n      jump\t// in\n    tag_93:\n      mload(0x40)\n      dup1\n      swap2\n      sub\n      swap1\n      revert\n    tag_92:\n        /* \"RM.sol\":2402:2408  amount */\n      dup3\n        /* \"RM.sol\":2374:2386  xautBalances */\n      0x00\n        /* \"RM.sol\":2374:2398  xautBalances[msg.sender] */\n      dup1\n        /* \"RM.sol\":2387:2397  msg.sender */\n      caller\n        /* \"RM.sol\":2374:2398  xautBalances[msg.sender] */\n      0xffffffffffffffffffffffffffffffffffffffff\n      and\n      0xffffffffffffffffffffffffffffffffffffffff\n      and\n      dup2\n      mstore\n      0x20\n      add\n      swap1\n      dup2\n      mstore\n      0x20\n      add\n      0x00\n      keccak256\n      0x00\n        /* \"RM.sol\":2374:2408  xautBalances[msg.sender] += amount */\n      dup3\n      dup3\n      sload\n      tag_95\n      swap2\n      swap1\n      tag_96\n      jump\t// in\n    tag_95:\n      swap3\n      pop\n      pop\n      dup2\n      swap1\n      sstore\n      pop\n        /* \"RM.sol\":2469:2479  msg.sender */\n      caller\n        /* \"RM.sol\":2455:2488  XAUTPurchased(msg.sender, amount) */\n      0xffffffffffffffffffffffffffffffffffffffff\n      and\n      0x374f2ac8c77a0322f73aeaceb7e31508d2827b74ebaaccb167b419b9762b7665\n        /* \"RM.sol\":2481:2487  amount */\n      dup5\n        /* \"RM.sol\":2455:2488  XAUTPurchased(msg.sender, amount) */\n      mload(0x40)\n      tag_97\n      swap2\n      swap1\n      tag_25\n      jump\t// in\n    tag_97:\n      mload(0x40)\n      dup1\n      swap2\n      sub\n      swap1\n      log2\n        /* \"RM.sol\":1903:2518  {... */\n      pop\n      pop\n        /* \"RM.sol\":1856:2518  function purchaseXAUT(uint256 amount) external {... */\n      pop\n      jump\t// out\n        /* \"RM.sol\":3955:4474  function lockFunds(uint256 amount, uint256 durationInDays) external {... */\n    tag_33:\n        /* \"RM.sol\":4051:4052  0 */\n      0x00\n        /* \"RM.sol\":4042:4048  amount */\n      dup3\n        /* \"RM.sol\":4042:4052  amount > 0 */\n      gt\n        /* \"RM.sol\":4034:4086  require(amount > 0, \"Amount must be greater than 0\") */\n      tag_99\n      jumpi\n      mload(0x40)\n      0x08c379a000000000000000000000000000000000000000000000000000000000\n      dup2\n      mstore\n      0x04\n      add\n      tag_100\n      swap1\n      tag_101\n      jump\t// in\n    tag_100:\n      mload(0x40)\n      dup1\n      swap2\n      sub\n      swap1\n      revert\n    tag_99:\n        /* \"RM.sol\":4147:4153  amount */\n      dup2\n        /* \"RM.sol\":4120:4131  lockedFunds */\n      0x02\n        /* \"RM.sol\":4120:4143  lockedFunds[msg.sender] */\n      0x00\n        /* \"RM.sol\":4132:4142  msg.sender */\n      caller\n        /* \"RM.sol\":4120:4143  lockedFunds[msg.sender] */\n      0xffffffffffffffffffffffffffffffffffffffff\n      and\n      0xffffffffffffffffffffffffffffffffffffffff\n      and\n      dup2\n      mstore\n      0x20\n      add\n      swap1\n      dup2\n      mstore\n      0x20\n      add\n      0x00\n      keccak256\n      0x00\n        /* \"RM.sol\":4120:4153  lockedFunds[msg.sender] += amount */\n      dup3\n      dup3\n      sload\n      tag_102\n      swap2\n      swap1\n      tag_96\n      jump\t// in\n    tag_102:\n      swap3\n      pop\n      pop\n      dup2\n      swap1\n      sstore\n      pop\n        /* \"RM.sol\":4249:4255  1 days */\n      0x015180\n        /* \"RM.sol\":4232:4246  durationInDays */\n      dup2\n        /* \"RM.sol\":4232:4255  durationInDays * 1 days */\n      tag_103\n      swap2\n      swap1\n      tag_76\n      jump\t// in\n    tag_103:\n        /* \"RM.sol\":4213:4228  block.timestamp */\n      timestamp\n        /* \"RM.sol\":4213:4256  block.timestamp + (durationInDays * 1 days) */\n      tag_104\n      swap2\n      swap1\n      tag_96\n      jump\t// in\n    tag_104:\n        /* \"RM.sol\":4186:4198  lockEndTimes */\n      0x03\n        /* \"RM.sol\":4186:4210  lockEndTimes[msg.sender] */\n      0x00\n        /* \"RM.sol\":4199:4209  msg.sender */\n      caller\n        /* \"RM.sol\":4186:4210  lockEndTimes[msg.sender] */\n      0xffffffffffffffffffffffffffffffffffffffff\n      and\n      0xffffffffffffffffffffffffffffffffffffffff\n      and\n      dup2\n      mstore\n      0x20\n      add\n      swap1\n      dup2\n      mstore\n      0x20\n      add\n      0x00\n      keccak256\n        /* \"RM.sol\":4186:4256  lockEndTimes[msg.sender] = block.timestamp + (durationInDays * 1 days) */\n      dup2\n      swap1\n      sstore\n      pop\n        /* \"RM.sol\":4317:4356  calculateReward(amount, durationInDays) */\n      tag_105\n        /* \"RM.sol\":4333:4339  amount */\n      dup3\n        /* \"RM.sol\":4341:4355  durationInDays */\n      dup3\n        /* \"RM.sol\":4317:4332  calculateReward */\n      tag_106\n        /* \"RM.sol\":4317:4356  calculateReward(amount, durationInDays) */\n      jump\t// in\n    tag_105:\n        /* \"RM.sol\":4295:4302  rewards */\n      0x04\n        /* \"RM.sol\":4295:4314  rewards[msg.sender] */\n      0x00\n        /* \"RM.sol\":4303:4313  msg.sender */\n      caller\n        /* \"RM.sol\":4295:4314  rewards[msg.sender] */\n      0xffffffffffffffffffffffffffffffffffffffff\n      and\n      0xffffffffffffffffffffffffffffffffffffffff\n      and\n      dup2\n      mstore\n      0x20\n      add\n      swap1\n      dup2\n      mstore\n      0x20\n      add\n      0x00\n      keccak256\n        /* \"RM.sol\":4295:4356  rewards[msg.sender] = calculateReward(amount, durationInDays) */\n      dup2\n      swap1\n      sstore\n      pop\n        /* \"RM.sol\":4409:4419  msg.sender */\n      caller\n        /* \"RM.sol\":4397:4444  FundsLocked(msg.sender, amount, durationInDays) */\n      0xffffffffffffffffffffffffffffffffffffffff\n      and\n      0xe52cdcd45f0913116ea4f3de9bab0401ca2bbb5593445d1f6736170f57db75e8\n        /* \"RM.sol\":4421:4427  amount */\n      dup4\n        /* \"RM.sol\":4429:4443  durationInDays */\n      dup4\n        /* \"RM.sol\":4397:4444  FundsLocked(msg.sender, amount, durationInDays) */\n      mload(0x40)\n      tag_107\n      swap3\n      swap2\n      swap1\n      tag_108\n      jump\t// in\n    tag_107:\n      mload(0x40)\n      dup1\n      swap2\n      sub\n      swap1\n      log2\n        /* \"RM.sol\":3955:4474  function lockFunds(uint256 amount, uint256 durationInDays) external {... */\n      pop\n      pop\n      jump\t// out\n        /* \"RM.sol\":695:742  mapping(address => uint256) public lockEndTimes */\n    tag_36:\n      mstore(0x20, 0x03)\n      dup1\n      0x00\n      mstore\n      keccak256(0x00, 0x40)\n      0x00\n      swap2\n      pop\n      swap1\n      pop\n      sload\n      dup2\n      jump\t// out\n        /* \"RM.sol\":845:883  AggregatorV3Interface public priceFeed */\n    tag_39:\n      0x05\n      0x00\n      swap1\n      sload\n      swap1\n      0x0100\n      exp\n      swap1\n      div\n      0xffffffffffffffffffffffffffffffffffffffff\n      and\n      dup2\n      jump\t// out\n        /* \"RM.sol\":2939:3220  function withdrawXAUT(uint256 amount) external {... */\n    tag_44:\n        /* \"RM.sol\":3033:3039  amount */\n      dup1\n        /* \"RM.sol\":3005:3017  xautBalances */\n      0x00\n        /* \"RM.sol\":3005:3029  xautBalances[msg.sender] */\n      dup1\n        /* \"RM.sol\":3018:3028  msg.sender */\n      caller\n        /* \"RM.sol\":3005:3029  xautBalances[msg.sender] */\n      0xffffffffffffffffffffffffffffffffffffffff\n      and\n      0xffffffffffffffffffffffffffffffffffffffff\n      and\n      dup2\n      mstore\n      0x20\n      add\n      swap1\n      dup2\n      mstore\n      0x20\n      add\n      0x00\n      keccak256\n      sload\n        /* \"RM.sol\":3005:3039  xautBalances[msg.sender] >= amount */\n      lt\n      iszero\n        /* \"RM.sol\":2997:3064  require(xautBalances[msg.sender] >= amount, \"Insufficient balance\") */\n      tag_110\n      jumpi\n      mload(0x40)\n      0x08c379a000000000000000000000000000000000000000000000000000000000\n      dup2\n      mstore\n      0x04\n      add\n      tag_111\n      swap1\n      tag_112\n      jump\t// in\n    tag_111:\n      mload(0x40)\n      dup1\n      swap2\n      sub\n      swap1\n      revert\n    tag_110:\n        /* \"RM.sol\":3119:3125  amount */\n      dup1\n        /* \"RM.sol\":3091:3103  xautBalances */\n      0x00\n        /* \"RM.sol\":3091:3115  xautBalances[msg.sender] */\n      dup1\n        /* \"RM.sol\":3104:3114  msg.sender */\n      caller\n        /* \"RM.sol\":3091:3115  xautBalances[msg.sender] */\n      0xffffffffffffffffffffffffffffffffffffffff\n      and\n      0xffffffffffffffffffffffffffffffffffffffff\n      and\n      dup2\n      mstore\n      0x20\n      add\n      swap1\n      dup2\n      mstore\n      0x20\n      add\n      0x00\n      keccak256\n      0x00\n        /* \"RM.sol\":3091:3125  xautBalances[msg.sender] -= amount */\n      dup3\n      dup3\n      sload\n      tag_113\n      swap2\n      swap1\n      tag_114\n      jump\t// in\n    tag_113:\n      swap3\n      pop\n      pop\n      dup2\n      swap1\n      sstore\n      pop\n        /* \"RM.sol\":3171:3181  msg.sender */\n      caller\n        /* \"RM.sol\":3157:3190  XAUTWithdrawn(msg.sender, amount) */\n      0xffffffffffffffffffffffffffffffffffffffff\n      and\n      0x3cd7b95942f6a994121c48c9028a6e02089c0fad2a699c2c4b638f2a570b9c30\n        /* \"RM.sol\":3183:3189  amount */\n      dup3\n        /* \"RM.sol\":3157:3190  XAUTWithdrawn(msg.sender, amount) */\n      mload(0x40)\n      tag_115\n      swap2\n      swap1\n      tag_25\n      jump\t// in\n    tag_115:\n      mload(0x40)\n      dup1\n      swap2\n      sub\n      swap1\n      log2\n        /* \"RM.sol\":2939:3220  function withdrawXAUT(uint256 amount) external {... */\n      pop\n      jump\t// out\n        /* \"RM.sol\":2562:2901  function getLatestPrice() public view returns (uint256) {... */\n    tag_46:\n        /* \"RM.sol\":2609:2616  uint256 */\n      0x00\n        /* \"RM.sol\":2660:2669  int price */\n      dup1\n        /* \"RM.sol\":2714:2723  priceFeed */\n      0x05\n      0x00\n      swap1\n      sload\n      swap1\n      0x0100\n      exp\n      swap1\n      div\n      0xffffffffffffffffffffffffffffffffffffffff\n      and\n        /* \"RM.sol\":2714:2739  priceFeed.latestRoundData */\n      0xffffffffffffffffffffffffffffffffffffffff\n      and\n      0xfeaf968c\n        /* \"RM.sol\":2714:2741  priceFeed.latestRoundData() */\n      mload(0x40)\n      dup2\n      0xffffffff\n      and\n      0xe0\n      shl\n      dup2\n      mstore\n      0x04\n      add\n      0xa0\n      mload(0x40)\n      dup1\n      dup4\n      sub\n      dup2\n      dup7\n      gas\n      staticcall\n      iszero\n      dup1\n      iszero\n      tag_118\n      jumpi\n      returndatasize\n      0x00\n      dup1\n      returndatacopy\n      revert(0x00, returndatasize)\n    tag_118:\n      pop\n      pop\n      pop\n      pop\n      mload(0x40)\n      returndatasize\n      not(0x1f)\n      0x1f\n      dup3\n      add\n      and\n      dup3\n      add\n      dup1\n      0x40\n      mstore\n      pop\n      dup2\n      add\n      swap1\n      tag_119\n      swap2\n      swap1\n      tag_120\n      jump\t// in\n    tag_119:\n        /* \"RM.sol\":2629:2741  (... */\n      pop\n      pop\n      pop\n      swap2\n      pop\n      pop\n        /* \"RM.sol\":2799:2800  0 */\n      0x00\n        /* \"RM.sol\":2791:2796  price */\n      dup2\n        /* \"RM.sol\":2791:2800  price > 0 */\n      sgt\n        /* \"RM.sol\":2783:2823  require(price > 0, \"Invalid price data\") */\n      tag_121\n      jumpi\n      mload(0x40)\n      0x08c379a000000000000000000000000000000000000000000000000000000000\n      dup2\n      mstore\n      0x04\n      add\n      tag_122\n      swap1\n      tag_123\n      jump\t// in\n    tag_122:\n      mload(0x40)\n      dup1\n      swap2\n      sub\n      swap1\n      revert\n    tag_121:\n        /* \"RM.sol\":2871:2876  price */\n      dup1\n        /* \"RM.sol\":2856:2877  return uint256(price) */\n      swap2\n      pop\n      pop\n        /* \"RM.sol\":2562:2901  function getLatestPrice() public view returns (uint256) {... */\n      swap1\n      jump\t// out\n        /* \"RM.sol\":475:527  mapping(address => uint256) public tetherGoldOptions */\n    tag_50:\n      mstore(0x20, 0x01)\n      dup1\n      0x00\n      mstore\n      keccak256(0x00, 0x40)\n      0x00\n      swap2\n      pop\n      swap1\n      pop\n      sload\n      dup2\n      jump\t// out\n        /* \"RM.sol\":924:947  IERC20 public usdtToken */\n    tag_53:\n      0x06\n      0x00\n      swap1\n      sload\n      swap1\n      0x0100\n      exp\n      swap1\n      div\n      0xffffffffffffffffffffffffffffffffffffffff\n      and\n      dup2\n      jump\t// out\n        /* \"RM.sol\":3271:3507  function purchaseTetherGoldOption(OptionPeriod period) external {... */\n    tag_59:\n        /* \"RM.sol\":3387:3393  period */\n      dup1\n        /* \"RM.sol\":3379:3394  uint256(period) */\n      0x02\n      dup2\n      gt\n      iszero\n      tag_125\n      jumpi\n      tag_126\n      tag_127\n      jump\t// in\n    tag_126:\n    tag_125:\n        /* \"RM.sol\":3346:3363  tetherGoldOptions */\n      0x01\n        /* \"RM.sol\":3346:3375  tetherGoldOptions[msg.sender] */\n      0x00\n        /* \"RM.sol\":3364:3374  msg.sender */\n      caller\n        /* \"RM.sol\":3346:3375  tetherGoldOptions[msg.sender] */\n      0xffffffffffffffffffffffffffffffffffffffff\n      and\n      0xffffffffffffffffffffffffffffffffffffffff\n      and\n      dup2\n      mstore\n      0x20\n      add\n      swap1\n      dup2\n      mstore\n      0x20\n      add\n      0x00\n      keccak256\n      0x00\n        /* \"RM.sol\":3346:3394  tetherGoldOptions[msg.sender] += uint256(period) */\n      dup3\n      dup3\n      sload\n      tag_128\n      swap2\n      swap1\n      tag_96\n      jump\t// in\n    tag_128:\n      swap3\n      pop\n      pop\n      dup2\n      swap1\n      sstore\n      pop\n        /* \"RM.sol\":3458:3468  msg.sender */\n      caller\n        /* \"RM.sol\":3432:3477  TetherGoldOptionPurchased(msg.sender, period) */\n      0xffffffffffffffffffffffffffffffffffffffff\n      and\n      0x16c28021b949b7f0d6c0ba60b2a75154b604e5456802439c70c2d230d82e57ce\n        /* \"RM.sol\":3470:3476  period */\n      dup3\n        /* \"RM.sol\":3432:3477  TetherGoldOptionPurchased(msg.sender, period) */\n      mload(0x40)\n      tag_129\n      swap2\n      swap1\n      tag_130\n      jump\t// in\n    tag_129:\n      mload(0x40)\n      dup1\n      swap2\n      sub\n      swap1\n      log2\n        /* \"RM.sol\":3271:3507  function purchaseTetherGoldOption(OptionPeriod period) external {... */\n      pop\n      jump\t// out\n        /* \"RM.sol\":588:634  mapping(address => uint256) public lockedFunds */\n    tag_62:\n      mstore(0x20, 0x02)\n      dup1\n      0x00\n      mstore\n      keccak256(0x00, 0x40)\n      0x00\n      swap2\n      pop\n      swap1\n      pop\n      sload\n      dup2\n      jump\t// out\n        /* \"RM.sol\":5259:5714  function withdrawRewards() external {... */\n    tag_65:\n        /* \"RM.sol\":5333:5345  lockEndTimes */\n      0x03\n        /* \"RM.sol\":5333:5357  lockEndTimes[msg.sender] */\n      0x00\n        /* \"RM.sol\":5346:5356  msg.sender */\n      caller\n        /* \"RM.sol\":5333:5357  lockEndTimes[msg.sender] */\n      0xffffffffffffffffffffffffffffffffffffffff\n      and\n      0xffffffffffffffffffffffffffffffffffffffff\n      and\n      dup2\n      mstore\n      0x20\n      add\n      swap1\n      dup2\n      mstore\n      0x20\n      add\n      0x00\n      keccak256\n      sload\n        /* \"RM.sol\":5314:5329  block.timestamp */\n      timestamp\n        /* \"RM.sol\":5314:5357  block.timestamp >= lockEndTimes[msg.sender] */\n      lt\n      iszero\n        /* \"RM.sol\":5306:5383  require(block.timestamp >= lockEndTimes[msg.sender], \"Lock period not ended\") */\n      tag_132\n      jumpi\n      mload(0x40)\n      0x08c379a000000000000000000000000000000000000000000000000000000000\n      dup2\n      mstore\n      0x04\n      add\n      tag_133\n      swap1\n      tag_134\n      jump\t// in\n    tag_133:\n      mload(0x40)\n      dup1\n      swap2\n      sub\n      swap1\n      revert\n    tag_132:\n        /* \"RM.sol\":5425:5439  uint256 reward */\n      0x00\n        /* \"RM.sol\":5442:5449  rewards */\n      0x04\n        /* \"RM.sol\":5442:5461  rewards[msg.sender] */\n      0x00\n        /* \"RM.sol\":5450:5460  msg.sender */\n      caller\n        /* \"RM.sol\":5442:5461  rewards[msg.sender] */\n      0xffffffffffffffffffffffffffffffffffffffff\n      and\n      0xffffffffffffffffffffffffffffffffffffffff\n      and\n      dup2\n      mstore\n      0x20\n      add\n      swap1\n      dup2\n      mstore\n      0x20\n      add\n      0x00\n      keccak256\n      sload\n        /* \"RM.sol\":5425:5461  uint256 reward = rewards[msg.sender] */\n      swap1\n      pop\n        /* \"RM.sol\":5505:5506  0 */\n      0x00\n        /* \"RM.sol\":5496:5502  reward */\n      dup2\n        /* \"RM.sol\":5496:5506  reward > 0 */\n      gt\n        /* \"RM.sol\":5488:5533  require(reward > 0, \"No rewards to withdraw\") */\n      tag_135\n      jumpi\n      mload(0x40)\n      0x08c379a000000000000000000000000000000000000000000000000000000000\n      dup2\n      mstore\n      0x04\n      add\n      tag_136\n      swap1\n      tag_137\n      jump\t// in\n    tag_136:\n      mload(0x40)\n      dup1\n      swap2\n      sub\n      swap1\n      revert\n    tag_135:\n        /* \"RM.sol\":5594:5595  0 */\n      0x00\n        /* \"RM.sol\":5572:5579  rewards */\n      0x04\n        /* \"RM.sol\":5572:5591  rewards[msg.sender] */\n      0x00\n        /* \"RM.sol\":5580:5590  msg.sender */\n      caller\n        /* \"RM.sol\":5572:5591  rewards[msg.sender] */\n      0xffffffffffffffffffffffffffffffffffffffff\n      and\n      0xffffffffffffffffffffffffffffffffffffffff\n      and\n      dup2\n      mstore\n      0x20\n      add\n      swap1\n      dup2\n      mstore\n      0x20\n      add\n      0x00\n      keccak256\n        /* \"RM.sol\":5572:5595  rewards[msg.sender] = 0 */\n      dup2\n      swap1\n      sstore\n      pop\n        /* \"RM.sol\":5632:5641  usdtToken */\n      0x06\n      0x00\n      swap1\n      sload\n      swap1\n      0x0100\n      exp\n      swap1\n      div\n      0xffffffffffffffffffffffffffffffffffffffff\n      and\n        /* \"RM.sol\":5632:5650  usdtToken.transfer */\n      0xffffffffffffffffffffffffffffffffffffffff\n      and\n      0xa9059cbb\n        /* \"RM.sol\":5651:5661  msg.sender */\n      caller\n        /* \"RM.sol\":5663:5669  reward */\n      dup4\n        /* \"RM.sol\":5632:5670  usdtToken.transfer(msg.sender, reward) */\n      mload(0x40)\n      dup4\n      0xffffffff\n      and\n      0xe0\n      shl\n      dup2\n      mstore\n      0x04\n      add\n      tag_138\n      swap3\n      swap2\n      swap1\n      tag_139\n      jump\t// in\n    tag_138:\n      0x20\n      mload(0x40)\n      dup1\n      dup4\n      sub\n      dup2\n      0x00\n      dup8\n      gas\n      call\n      iszero\n      dup1\n      iszero\n      tag_141\n      jumpi\n      returndatasize\n      0x00\n      dup1\n      returndatacopy\n      revert(0x00, returndatasize)\n    tag_141:\n      pop\n      pop\n      pop\n      pop\n      mload(0x40)\n      returndatasize\n      not(0x1f)\n      0x1f\n      dup3\n      add\n      and\n      dup3\n      add\n      dup1\n      0x40\n      mstore\n      pop\n      dup2\n      add\n      swap1\n      tag_142\n      swap2\n      swap1\n      tag_91\n      jump\t// in\n    tag_142:\n        /* \"RM.sol\":5624:5690  require(usdtToken.transfer(msg.sender, reward), \"Transfer failed\") */\n      tag_143\n      jumpi\n      mload(0x40)\n      0x08c379a000000000000000000000000000000000000000000000000000000000\n      dup2\n      mstore\n      0x04\n      add\n      tag_144\n      swap1\n      tag_145\n      jump\t// in\n    tag_144:\n      mload(0x40)\n      dup1\n      swap2\n      sub\n      swap1\n      revert\n    tag_143:\n        /* \"RM.sol\":5295:5714  {... */\n      pop\n        /* \"RM.sol\":5259:5714  function withdrawRewards() external {... */\n      jump\t// out\n        /* \"RM.sol\":363:410  mapping(address => uint256) public xautBalances */\n    tag_68:\n      mstore(0x20, 0x00)\n      dup1\n      0x00\n      mstore\n      keccak256(0x00, 0x40)\n      0x00\n      swap2\n      pop\n      swap1\n      pop\n      sload\n      dup2\n      jump\t// out\n        /* \"RM.sol\":3558:3902  function sellTetherGoldOption(OptionPeriod period) external {... */\n    tag_72:\n        /* \"RM.sol\":3678:3684  period */\n      dup1\n        /* \"RM.sol\":3670:3685  uint256(period) */\n      0x02\n      dup2\n      gt\n      iszero\n      tag_147\n      jumpi\n      tag_148\n      tag_127\n      jump\t// in\n    tag_148:\n    tag_147:\n        /* \"RM.sol\":3637:3654  tetherGoldOptions */\n      0x01\n        /* \"RM.sol\":3637:3666  tetherGoldOptions[msg.sender] */\n      0x00\n        /* \"RM.sol\":3655:3665  msg.sender */\n      caller\n        /* \"RM.sol\":3637:3666  tetherGoldOptions[msg.sender] */\n      0xffffffffffffffffffffffffffffffffffffffff\n      and\n      0xffffffffffffffffffffffffffffffffffffffff\n      and\n      dup2\n      mstore\n      0x20\n      add\n      swap1\n      dup2\n      mstore\n      0x20\n      add\n      0x00\n      keccak256\n      sload\n        /* \"RM.sol\":3637:3685  tetherGoldOptions[msg.sender] >= uint256(period) */\n      lt\n      iszero\n        /* \"RM.sol\":3629:3707  require(tetherGoldOptions[msg.sender] >= uint256(period), \"No option to sell\") */\n      tag_149\n      jumpi\n      mload(0x40)\n      0x08c379a000000000000000000000000000000000000000000000000000000000\n      dup2\n      mstore\n      0x04\n      add\n      tag_150\n      swap1\n      tag_151\n      jump\t// in\n    tag_150:\n      mload(0x40)\n      dup1\n      swap2\n      sub\n      swap1\n      revert\n    tag_149:\n        /* \"RM.sol\":3787:3793  period */\n      dup1\n        /* \"RM.sol\":3779:3794  uint256(period) */\n      0x02\n      dup2\n      gt\n      iszero\n      tag_152\n      jumpi\n      tag_153\n      tag_127\n      jump\t// in\n    tag_153:\n    tag_152:\n        /* \"RM.sol\":3746:3763  tetherGoldOptions */\n      0x01\n        /* \"RM.sol\":3746:3775  tetherGoldOptions[msg.sender] */\n      0x00\n        /* \"RM.sol\":3764:3774  msg.sender */\n      caller\n        /* \"RM.sol\":3746:3775  tetherGoldOptions[msg.sender] */\n      0xffffffffffffffffffffffffffffffffffffffff\n      and\n      0xffffffffffffffffffffffffffffffffffffffff\n      and\n      dup2\n      mstore\n      0x20\n      add\n      swap1\n      dup2\n      mstore\n      0x20\n      add\n      0x00\n      keccak256\n      0x00\n        /* \"RM.sol\":3746:3794  tetherGoldOptions[msg.sender] -= uint256(period) */\n      dup3\n      dup3\n      sload\n      tag_154\n      swap2\n      swap1\n      tag_114\n      jump\t// in\n    tag_154:\n      swap3\n      pop\n      pop\n      dup2\n      swap1\n      sstore\n      pop\n        /* \"RM.sol\":3853:3863  msg.sender */\n      caller\n        /* \"RM.sol\":3832:3872  TetherGoldOptionSold(msg.sender, period) */\n      0xffffffffffffffffffffffffffffffffffffffff\n      and\n      0x23ea343e717f615708129120780cd015ab42f16243fb030c61e810cc2fa68846\n        /* \"RM.sol\":3865:3871  period */\n      dup3\n        /* \"RM.sol\":3832:3872  TetherGoldOptionSold(msg.sender, period) */\n      mload(0x40)\n      tag_155\n      swap2\n      swap1\n      tag_130\n      jump\t// in\n    tag_155:\n      mload(0x40)\n      dup1\n      swap2\n      sub\n      swap1\n      log2\n        /* \"RM.sol\":3558:3902  function sellTetherGoldOption(OptionPeriod period) external {... */\n      pop\n      jump\t// out\n        /* \"RM.sol\":4518:5224  function calculateReward(uint256 amount, uint256 durationInDays) internal pure returns (uint256) {... */\n    tag_106:\n        /* \"RM.sol\":4606:4613  uint256 */\n      0x00\n        /* \"RM.sol\":4697:4698  1 */\n      0x01\n        /* \"RM.sol\":4679:4693  durationInDays */\n      dup3\n        /* \"RM.sol\":4679:4698  durationInDays == 1 */\n      sub\n        /* \"RM.sol\":4675:5181  if (durationInDays == 1) {... */\n      tag_157\n      jumpi\n        /* \"RM.sol\":4738:4742  1000 */\n      0x03e8\n        /* \"RM.sol\":4732:4734  14 */\n      0x0e\n        /* \"RM.sol\":4723:4729  amount */\n      dup5\n        /* \"RM.sol\":4723:4734  amount * 14 */\n      tag_158\n      swap2\n      swap1\n      tag_76\n      jump\t// in\n    tag_158:\n        /* \"RM.sol\":4722:4742  (amount * 14) / 1000 */\n      tag_159\n      swap2\n      swap1\n      tag_160\n      jump\t// in\n    tag_159:\n        /* \"RM.sol\":4715:4742  return (amount * 14) / 1000 */\n      swap1\n      pop\n      jump(tag_156)\n        /* \"RM.sol\":4675:5181  if (durationInDays == 1) {... */\n    tag_157:\n        /* \"RM.sol\":4799:4800  3 */\n      0x03\n        /* \"RM.sol\":4781:4795  durationInDays */\n      dup3\n        /* \"RM.sol\":4781:4800  durationInDays == 3 */\n      sub\n        /* \"RM.sol\":4777:5181  if (durationInDays == 3) {... */\n      tag_162\n      jumpi\n        /* \"RM.sol\":4840:4844  1000 */\n      0x03e8\n        /* \"RM.sol\":4834:4836  18 */\n      0x12\n        /* \"RM.sol\":4825:4831  amount */\n      dup5\n        /* \"RM.sol\":4825:4836  amount * 18 */\n      tag_163\n      swap2\n      swap1\n      tag_76\n      jump\t// in\n    tag_163:\n        /* \"RM.sol\":4824:4844  (amount * 18) / 1000 */\n      tag_164\n      swap2\n      swap1\n      tag_160\n      jump\t// in\n    tag_164:\n        /* \"RM.sol\":4817:4844  return (amount * 18) / 1000 */\n      swap1\n      pop\n      jump(tag_156)\n        /* \"RM.sol\":4777:5181  if (durationInDays == 3) {... */\n    tag_162:\n        /* \"RM.sol\":4901:4902  7 */\n      0x07\n        /* \"RM.sol\":4883:4897  durationInDays */\n      dup3\n        /* \"RM.sol\":4883:4902  durationInDays == 7 */\n      sub\n        /* \"RM.sol\":4879:5181  if (durationInDays == 7) {... */\n      tag_166\n      jumpi\n        /* \"RM.sol\":4942:4946  1000 */\n      0x03e8\n        /* \"RM.sol\":4936:4938  22 */\n      0x16\n        /* \"RM.sol\":4927:4933  amount */\n      dup5\n        /* \"RM.sol\":4927:4938  amount * 22 */\n      tag_167\n      swap2\n      swap1\n      tag_76\n      jump\t// in\n    tag_167:\n        /* \"RM.sol\":4926:4946  (amount * 22) / 1000 */\n      tag_168\n      swap2\n      swap1\n      tag_160\n      jump\t// in\n    tag_168:\n        /* \"RM.sol\":4919:4946  return (amount * 22) / 1000 */\n      swap1\n      pop\n      jump(tag_156)\n        /* \"RM.sol\":4879:5181  if (durationInDays == 7) {... */\n    tag_166:\n        /* \"RM.sol\":5003:5005  15 */\n      0x0f\n        /* \"RM.sol\":4985:4999  durationInDays */\n      dup3\n        /* \"RM.sol\":4985:5005  durationInDays == 15 */\n      sub\n        /* \"RM.sol\":4981:5181  if (durationInDays == 15) {... */\n      tag_170\n      jumpi\n        /* \"RM.sol\":5045:5049  1000 */\n      0x03e8\n        /* \"RM.sol\":5039:5041  26 */\n      0x1a\n        /* \"RM.sol\":5030:5036  amount */\n      dup5\n        /* \"RM.sol\":5030:5041  amount * 26 */\n      tag_171\n      swap2\n      swap1\n      tag_76\n      jump\t// in\n    tag_171:\n        /* \"RM.sol\":5029:5049  (amount * 26) / 1000 */\n      tag_172\n      swap2\n      swap1\n      tag_160\n      jump\t// in\n    tag_172:\n        /* \"RM.sol\":5022:5049  return (amount * 26) / 1000 */\n      swap1\n      pop\n      jump(tag_156)\n        /* \"RM.sol\":4981:5181  if (durationInDays == 15) {... */\n    tag_170:\n        /* \"RM.sol\":5106:5108  30 */\n      0x1e\n        /* \"RM.sol\":5088:5102  durationInDays */\n      dup3\n        /* \"RM.sol\":5088:5108  durationInDays == 30 */\n      sub\n        /* \"RM.sol\":5084:5181  if (durationInDays == 30) {... */\n      tag_174\n      jumpi\n        /* \"RM.sol\":5148:5152  1000 */\n      0x03e8\n        /* \"RM.sol\":5142:5144  30 */\n      0x1e\n        /* \"RM.sol\":5133:5139  amount */\n      dup5\n        /* \"RM.sol\":5133:5144  amount * 30 */\n      tag_175\n      swap2\n      swap1\n      tag_76\n      jump\t// in\n    tag_175:\n        /* \"RM.sol\":5132:5152  (amount * 30) / 1000 */\n      tag_176\n      swap2\n      swap1\n      tag_160\n      jump\t// in\n    tag_176:\n        /* \"RM.sol\":5125:5152  return (amount * 30) / 1000 */\n      swap1\n      pop\n      jump(tag_156)\n        /* \"RM.sol\":5084:5181  if (durationInDays == 30) {... */\n    tag_174:\n        /* \"RM.sol\":5198:5199  0 */\n      0x00\n        /* \"RM.sol\":5191:5199  return 0 */\n      swap1\n      pop\n        /* \"RM.sol\":4518:5224  function calculateReward(uint256 amount, uint256 durationInDays) internal pure returns (uint256) {... */\n    tag_156:\n      swap3\n      swap2\n      pop\n      pop\n      jump\t// out\n        /* \"#utility.yul\":88:205   */\n    tag_178:\n        /* \"#utility.yul\":197:198   */\n      0x00\n        /* \"#utility.yul\":194:195   */\n      dup1\n        /* \"#utility.yul\":187:199   */\n      revert\n        /* \"#utility.yul\":334:460   */\n    tag_180:\n        /* \"#utility.yul\":371:378   */\n      0x00\n        /* \"#utility.yul\":411:453   */\n      0xffffffffffffffffffffffffffffffffffffffff\n        /* \"#utility.yul\":404:409   */\n      dup3\n        /* \"#utility.yul\":400:454   */\n      and\n        /* \"#utility.yul\":389:454   */\n      swap1\n      pop\n        /* \"#utility.yul\":334:460   */\n      swap2\n      swap1\n      pop\n      jump\t// out\n        /* \"#utility.yul\":466:562   */\n    tag_181:\n        /* \"#utility.yul\":503:510   */\n      0x00\n        /* \"#utility.yul\":532:556   */\n      tag_239\n        /* \"#utility.yul\":550:555   */\n      dup3\n        /* \"#utility.yul\":532:556   */\n      tag_180\n      jump\t// in\n    tag_239:\n        /* \"#utility.yul\":521:556   */\n      swap1\n      pop\n        /* \"#utility.yul\":466:562   */\n      swap2\n      swap1\n      pop\n      jump\t// out\n        /* \"#utility.yul\":568:690   */\n    tag_182:\n        /* \"#utility.yul\":641:665   */\n      tag_241\n        /* \"#utility.yul\":659:664   */\n      dup2\n        /* \"#utility.yul\":641:665   */\n      tag_181\n      jump\t// in\n    tag_241:\n        /* \"#utility.yul\":634:639   */\n      dup2\n        /* \"#utility.yul\":631:666   */\n      eq\n        /* \"#utility.yul\":621:684   */\n      tag_242\n      jumpi\n        /* \"#utility.yul\":680:681   */\n      0x00\n        /* \"#utility.yul\":677:678   */\n      dup1\n        /* \"#utility.yul\":670:682   */\n      revert\n        /* \"#utility.yul\":621:684   */\n    tag_242:\n        /* \"#utility.yul\":568:690   */\n      pop\n      jump\t// out\n        /* \"#utility.yul\":696:835   */\n    tag_183:\n        /* \"#utility.yul\":742:747   */\n      0x00\n        /* \"#utility.yul\":780:786   */\n      dup2\n        /* \"#utility.yul\":767:787   */\n      calldataload\n        /* \"#utility.yul\":758:787   */\n      swap1\n      pop\n        /* \"#utility.yul\":796:829   */\n      tag_244\n        /* \"#utility.yul\":823:828   */\n      dup2\n        /* \"#utility.yul\":796:829   */\n      tag_182\n      jump\t// in\n    tag_244:\n        /* \"#utility.yul\":696:835   */\n      swap3\n      swap2\n      pop\n      pop\n      jump\t// out\n        /* \"#utility.yul\":841:1170   */\n    tag_22:\n        /* \"#utility.yul\":900:906   */\n      0x00\n        /* \"#utility.yul\":949:951   */\n      0x20\n        /* \"#utility.yul\":937:946   */\n      dup3\n        /* \"#utility.yul\":928:935   */\n      dup5\n        /* \"#utility.yul\":924:947   */\n      sub\n        /* \"#utility.yul\":920:952   */\n      slt\n        /* \"#utility.yul\":917:1036   */\n      iszero\n      tag_246\n      jumpi\n        /* \"#utility.yul\":955:1034   */\n      tag_247\n      tag_178\n      jump\t// in\n    tag_247:\n        /* \"#utility.yul\":917:1036   */\n    tag_246:\n        /* \"#utility.yul\":1075:1076   */\n      0x00\n        /* \"#utility.yul\":1100:1153   */\n      tag_248\n        /* \"#utility.yul\":1145:1152   */\n      dup5\n        /* \"#utility.yul\":1136:1142   */\n      dup3\n        /* \"#utility.yul\":1125:1134   */\n      dup6\n        /* \"#utility.yul\":1121:1143   */\n      add\n        /* \"#utility.yul\":1100:1153   */\n      tag_183\n      jump\t// in\n    tag_248:\n        /* \"#utility.yul\":1090:1153   */\n      swap2\n      pop\n        /* \"#utility.yul\":1046:1163   */\n      pop\n        /* \"#utility.yul\":841:1170   */\n      swap3\n      swap2\n      pop\n      pop\n      jump\t// out\n        /* \"#utility.yul\":1176:1253   */\n    tag_184:\n        /* \"#utility.yul\":1213:1220   */\n      0x00\n        /* \"#utility.yul\":1242:1247   */\n      dup2\n        /* \"#utility.yul\":1231:1247   */\n      swap1\n      pop\n        /* \"#utility.yul\":1176:1253   */\n      swap2\n      swap1\n      pop\n      jump\t// out\n        /* \"#utility.yul\":1259:1377   */\n    tag_185:\n        /* \"#utility.yul\":1346:1370   */\n      tag_251\n        /* \"#utility.yul\":1364:1369   */\n      dup2\n        /* \"#utility.yul\":1346:1370   */\n      tag_184\n      jump\t// in\n    tag_251:\n        /* \"#utility.yul\":1341:1344   */\n      dup3\n        /* \"#utility.yul\":1334:1371   */\n      mstore\n        /* \"#utility.yul\":1259:1377   */\n      pop\n      pop\n      jump\t// out\n        /* \"#utility.yul\":1383:1605   */\n    tag_25:\n        /* \"#utility.yul\":1476:1480   */\n      0x00\n        /* \"#utility.yul\":1514:1516   */\n      0x20\n        /* \"#utility.yul\":1503:1512   */\n      dup3\n        /* \"#utility.yul\":1499:1517   */\n      add\n        /* \"#utility.yul\":1491:1517   */\n      swap1\n      pop\n        /* \"#utility.yul\":1527:1598   */\n      tag_253\n        /* \"#utility.yul\":1595:1596   */\n      0x00\n        /* \"#utility.yul\":1584:1593   */\n      dup4\n        /* \"#utility.yul\":1580:1597   */\n      add\n        /* \"#utility.yul\":1571:1577   */\n      dup5\n        /* \"#utility.yul\":1527:1598   */\n      tag_185\n      jump\t// in\n    tag_253:\n        /* \"#utility.yul\":1383:1605   */\n      swap3\n      swap2\n      pop\n      pop\n      jump\t// out\n        /* \"#utility.yul\":1611:1733   */\n    tag_186:\n        /* \"#utility.yul\":1684:1708   */\n      tag_255\n        /* \"#utility.yul\":1702:1707   */\n      dup2\n        /* \"#utility.yul\":1684:1708   */\n      tag_184\n      jump\t// in\n    tag_255:\n        /* \"#utility.yul\":1677:1682   */\n      dup2\n        /* \"#utility.yul\":1674:1709   */\n      eq\n        /* \"#utility.yul\":1664:1727   */\n      tag_256\n      jumpi\n        /* \"#utility.yul\":1723:1724   */\n      0x00\n        /* \"#utility.yul\":1720:1721   */\n      dup1\n        /* \"#utility.yul\":1713:1725   */\n      revert\n        /* \"#utility.yul\":1664:1727   */\n    tag_256:\n        /* \"#utility.yul\":1611:1733   */\n      pop\n      jump\t// out\n        /* \"#utility.yul\":1739:1878   */\n    tag_187:\n        /* \"#utility.yul\":1785:1790   */\n      0x00\n        /* \"#utility.yul\":1823:1829   */\n      dup2\n        /* \"#utility.yul\":1810:1830   */\n      calldataload\n        /* \"#utility.yul\":1801:1830   */\n      swap1\n      pop\n        /* \"#utility.yul\":1839:1872   */\n      tag_258\n        /* \"#utility.yul\":1866:1871   */\n      dup2\n        /* \"#utility.yul\":1839:1872   */\n      tag_186\n      jump\t// in\n    tag_258:\n        /* \"#utility.yul\":1739:1878   */\n      swap3\n      swap2\n      pop\n      pop\n      jump\t// out\n        /* \"#utility.yul\":1884:2213   */\n    tag_28:\n        /* \"#utility.yul\":1943:1949   */\n      0x00\n        /* \"#utility.yul\":1992:1994   */\n      0x20\n        /* \"#utility.yul\":1980:1989   */\n      dup3\n        /* \"#utility.yul\":1971:1978   */\n      dup5\n        /* \"#utility.yul\":1967:1990   */\n      sub\n        /* \"#utility.yul\":1963:1995   */\n      slt\n        /* \"#utility.yul\":1960:2079   */\n      iszero\n      tag_260\n      jumpi\n        /* \"#utility.yul\":1998:2077   */\n      tag_261\n      tag_178\n      jump\t// in\n    tag_261:\n        /* \"#utility.yul\":1960:2079   */\n    tag_260:\n        /* \"#utility.yul\":2118:2119   */\n      0x00\n        /* \"#utility.yul\":2143:2196   */\n      tag_262\n        /* \"#utility.yul\":2188:2195   */\n      dup5\n        /* \"#utility.yul\":2179:2185   */\n      dup3\n        /* \"#utility.yul\":2168:2177   */\n      dup6\n        /* \"#utility.yul\":2164:2186   */\n      add\n        /* \"#utility.yul\":2143:2196   */\n      tag_187\n      jump\t// in\n    tag_262:\n        /* \"#utility.yul\":2133:2196   */\n      swap2\n      pop\n        /* \"#utility.yul\":2089:2206   */\n      pop\n        /* \"#utility.yul\":1884:2213   */\n      swap3\n      swap2\n      pop\n      pop\n      jump\t// out\n        /* \"#utility.yul\":2219:2693   */\n    tag_32:\n        /* \"#utility.yul\":2287:2293   */\n      0x00\n        /* \"#utility.yul\":2295:2301   */\n      dup1\n        /* \"#utility.yul\":2344:2346   */\n      0x40\n        /* \"#utility.yul\":2332:2341   */\n      dup4\n        /* \"#utility.yul\":2323:2330   */\n      dup6\n        /* \"#utility.yul\":2319:2342   */\n      sub\n        /* \"#utility.yul\":2315:2347   */\n      slt\n        /* \"#utility.yul\":2312:2431   */\n      iszero\n      tag_264\n      jumpi\n        /* \"#utility.yul\":2350:2429   */\n      tag_265\n      tag_178\n      jump\t// in\n    tag_265:\n        /* \"#utility.yul\":2312:2431   */\n    tag_264:\n        /* \"#utility.yul\":2470:2471   */\n      0x00\n        /* \"#utility.yul\":2495:2548   */\n      tag_266\n        /* \"#utility.yul\":2540:2547   */\n      dup6\n        /* \"#utility.yul\":2531:2537   */\n      dup3\n        /* \"#utility.yul\":2520:2529   */\n      dup7\n        /* \"#utility.yul\":2516:2538   */\n      add\n        /* \"#utility.yul\":2495:2548   */\n      tag_187\n      jump\t// in\n    tag_266:\n        /* \"#utility.yul\":2485:2548   */\n      swap3\n      pop\n        /* \"#utility.yul\":2441:2558   */\n      pop\n        /* \"#utility.yul\":2597:2599   */\n      0x20\n        /* \"#utility.yul\":2623:2676   */\n      tag_267\n        /* \"#utility.yul\":2668:2675   */\n      dup6\n        /* \"#utility.yul\":2659:2665   */\n      dup3\n        /* \"#utility.yul\":2648:2657   */\n      dup7\n        /* \"#utility.yul\":2644:2666   */\n      add\n        /* \"#utility.yul\":2623:2676   */\n      tag_187\n      jump\t// in\n    tag_267:\n        /* \"#utility.yul\":2613:2676   */\n      swap2\n      pop\n        /* \"#utility.yul\":2568:2686   */\n      pop\n        /* \"#utility.yul\":2219:2693   */\n      swap3\n      pop\n      swap3\n      swap1\n      pop\n      jump\t// out\n        /* \"#utility.yul\":2699:2759   */\n    tag_188:\n        /* \"#utility.yul\":2727:2730   */\n      0x00\n        /* \"#utility.yul\":2748:2753   */\n      dup2\n        /* \"#utility.yul\":2741:2753   */\n      swap1\n      pop\n        /* \"#utility.yul\":2699:2759   */\n      swap2\n      swap1\n      pop\n      jump\t// out\n        /* \"#utility.yul\":2765:2907   */\n    tag_189:\n        /* \"#utility.yul\":2815:2824   */\n      0x00\n        /* \"#utility.yul\":2848:2901   */\n      tag_270\n        /* \"#utility.yul\":2866:2900   */\n      tag_271\n        /* \"#utility.yul\":2875:2899   */\n      tag_272\n        /* \"#utility.yul\":2893:2898   */\n      dup5\n        /* \"#utility.yul\":2875:2899   */\n      tag_180\n      jump\t// in\n    tag_272:\n        /* \"#utility.yul\":2866:2900   */\n      tag_188\n      jump\t// in\n    tag_271:\n        /* \"#utility.yul\":2848:2901   */\n      tag_180\n      jump\t// in\n    tag_270:\n        /* \"#utility.yul\":2835:2901   */\n      swap1\n      pop\n        /* \"#utility.yul\":2765:2907   */\n      swap2\n      swap1\n      pop\n      jump\t// out\n        /* \"#utility.yul\":2913:3039   */\n    tag_190:\n        /* \"#utility.yul\":2963:2972   */\n      0x00\n        /* \"#utility.yul\":2996:3033   */\n      tag_274\n        /* \"#utility.yul\":3027:3032   */\n      dup3\n        /* \"#utility.yul\":2996:3033   */\n      tag_189\n      jump\t// in\n    tag_274:\n        /* \"#utility.yul\":2983:3033   */\n      swap1\n      pop\n        /* \"#utility.yul\":2913:3039   */\n      swap2\n      swap1\n      pop\n      jump\t// out\n        /* \"#utility.yul\":3045:3199   */\n    tag_191:\n        /* \"#utility.yul\":3123:3132   */\n      0x00\n        /* \"#utility.yul\":3156:3193   */\n      tag_276\n        /* \"#utility.yul\":3187:3192   */\n      dup3\n        /* \"#utility.yul\":3156:3193   */\n      tag_190\n      jump\t// in\n    tag_276:\n        /* \"#utility.yul\":3143:3193   */\n      swap1\n      pop\n        /* \"#utility.yul\":3045:3199   */\n      swap2\n      swap1\n      pop\n      jump\t// out\n        /* \"#utility.yul\":3205:3392   */\n    tag_192:\n        /* \"#utility.yul\":3320:3385   */\n      tag_278\n        /* \"#utility.yul\":3379:3384   */\n      dup2\n        /* \"#utility.yul\":3320:3385   */\n      tag_191\n      jump\t// in\n    tag_278:\n        /* \"#utility.yul\":3315:3318   */\n      dup3\n        /* \"#utility.yul\":3308:3386   */\n      mstore\n        /* \"#utility.yul\":3205:3392   */\n      pop\n      pop\n      jump\t// out\n        /* \"#utility.yul\":3398:3676   */\n    tag_41:\n        /* \"#utility.yul\":3519:3523   */\n      0x00\n        /* \"#utility.yul\":3557:3559   */\n      0x20\n        /* \"#utility.yul\":3546:3555   */\n      dup3\n        /* \"#utility.yul\":3542:3560   */\n      add\n        /* \"#utility.yul\":3534:3560   */\n      swap1\n      pop\n        /* \"#utility.yul\":3570:3669   */\n      tag_280\n        /* \"#utility.yul\":3666:3667   */\n      0x00\n        /* \"#utility.yul\":3655:3664   */\n      dup4\n        /* \"#utility.yul\":3651:3668   */\n      add\n        /* \"#utility.yul\":3642:3648   */\n      dup5\n        /* \"#utility.yul\":3570:3669   */\n      tag_192\n      jump\t// in\n    tag_280:\n        /* \"#utility.yul\":3398:3676   */\n      swap3\n      swap2\n      pop\n      pop\n      jump\t// out\n        /* \"#utility.yul\":3682:3822   */\n    tag_193:\n        /* \"#utility.yul\":3746:3755   */\n      0x00\n        /* \"#utility.yul\":3779:3816   */\n      tag_282\n        /* \"#utility.yul\":3810:3815   */\n      dup3\n        /* \"#utility.yul\":3779:3816   */\n      tag_190\n      jump\t// in\n    tag_282:\n        /* \"#utility.yul\":3766:3816   */\n      swap1\n      pop\n        /* \"#utility.yul\":3682:3822   */\n      swap2\n      swap1\n      pop\n      jump\t// out\n        /* \"#utility.yul\":3828:3987   */\n    tag_194:\n        /* \"#utility.yul\":3929:3980   */\n      tag_284\n        /* \"#utility.yul\":3974:3979   */\n      dup2\n        /* \"#utility.yul\":3929:3980   */\n      tag_193\n      jump\t// in\n    tag_284:\n        /* \"#utility.yul\":3924:3927   */\n      dup3\n        /* \"#utility.yul\":3917:3981   */\n      mstore\n        /* \"#utility.yul\":3828:3987   */\n      pop\n      pop\n      jump\t// out\n        /* \"#utility.yul\":3993:4243   */\n    tag_55:\n        /* \"#utility.yul\":4100:4104   */\n      0x00\n        /* \"#utility.yul\":4138:4140   */\n      0x20\n        /* \"#utility.yul\":4127:4136   */\n      dup3\n        /* \"#utility.yul\":4123:4141   */\n      add\n        /* \"#utility.yul\":4115:4141   */\n      swap1\n      pop\n        /* \"#utility.yul\":4151:4236   */\n      tag_286\n        /* \"#utility.yul\":4233:4234   */\n      0x00\n        /* \"#utility.yul\":4222:4231   */\n      dup4\n        /* \"#utility.yul\":4218:4235   */\n      add\n        /* \"#utility.yul\":4209:4215   */\n      dup5\n        /* \"#utility.yul\":4151:4236   */\n      tag_194\n      jump\t// in\n    tag_286:\n        /* \"#utility.yul\":3993:4243   */\n      swap3\n      swap2\n      pop\n      pop\n      jump\t// out\n        /* \"#utility.yul\":4249:4364   */\n    tag_195:\n        /* \"#utility.yul\":4338:4339   */\n      0x03\n        /* \"#utility.yul\":4331:4336   */\n      dup2\n        /* \"#utility.yul\":4328:4340   */\n      lt\n        /* \"#utility.yul\":4318:4358   */\n      tag_288\n      jumpi\n        /* \"#utility.yul\":4354:4355   */\n      0x00\n        /* \"#utility.yul\":4351:4352   */\n      dup1\n        /* \"#utility.yul\":4344:4356   */\n      revert\n        /* \"#utility.yul\":4318:4358   */\n    tag_288:\n        /* \"#utility.yul\":4249:4364   */\n      pop\n      jump\t// out\n        /* \"#utility.yul\":4370:4541   */\n    tag_196:\n        /* \"#utility.yul\":4432:4437   */\n      0x00\n        /* \"#utility.yul\":4470:4476   */\n      dup2\n        /* \"#utility.yul\":4457:4477   */\n      calldataload\n        /* \"#utility.yul\":4448:4477   */\n      swap1\n      pop\n        /* \"#utility.yul\":4486:4535   */\n      tag_290\n        /* \"#utility.yul\":4529:4534   */\n      dup2\n        /* \"#utility.yul\":4486:4535   */\n      tag_195\n      jump\t// in\n    tag_290:\n        /* \"#utility.yul\":4370:4541   */\n      swap3\n      swap2\n      pop\n      pop\n      jump\t// out\n        /* \"#utility.yul\":4547:4908   */\n    tag_58:\n        /* \"#utility.yul\":4622:4628   */\n      0x00\n        /* \"#utility.yul\":4671:4673   */\n      0x20\n        /* \"#utility.yul\":4659:4668   */\n      dup3\n        /* \"#utility.yul\":4650:4657   */\n      dup5\n        /* \"#utility.yul\":4646:4669   */\n      sub\n        /* \"#utility.yul\":4642:4674   */\n      slt\n        /* \"#utility.yul\":4639:4758   */\n      iszero\n      tag_292\n      jumpi\n        /* \"#utility.yul\":4677:4756   */\n      tag_293\n      tag_178\n      jump\t// in\n    tag_293:\n        /* \"#utility.yul\":4639:4758   */\n    tag_292:\n        /* \"#utility.yul\":4797:4798   */\n      0x00\n        /* \"#utility.yul\":4822:4891   */\n      tag_294\n        /* \"#utility.yul\":4883:4890   */\n      dup5\n        /* \"#utility.yul\":4874:4880   */\n      dup3\n        /* \"#utility.yul\":4863:4872   */\n      dup6\n        /* \"#utility.yul\":4859:4881   */\n      add\n        /* \"#utility.yul\":4822:4891   */\n      tag_196\n      jump\t// in\n    tag_294:\n        /* \"#utility.yul\":4812:4891   */\n      swap2\n      pop\n        /* \"#utility.yul\":4768:4901   */\n      pop\n        /* \"#utility.yul\":4547:4908   */\n      swap3\n      swap2\n      pop\n      pop\n      jump\t// out\n        /* \"#utility.yul\":4914:5094   */\n    tag_197:\n        /* \"#utility.yul\":4962:5039   */\n      0x4e487b7100000000000000000000000000000000000000000000000000000000\n        /* \"#utility.yul\":4959:4960   */\n      0x00\n        /* \"#utility.yul\":4952:5040   */\n      mstore\n        /* \"#utility.yul\":5059:5063   */\n      0x11\n        /* \"#utility.yul\":5056:5057   */\n      0x04\n        /* \"#utility.yul\":5049:5064   */\n      mstore\n        /* \"#utility.yul\":5083:5087   */\n      0x24\n        /* \"#utility.yul\":5080:5081   */\n      0x00\n        /* \"#utility.yul\":5073:5088   */\n      revert\n        /* \"#utility.yul\":5100:5510   */\n    tag_76:\n        /* \"#utility.yul\":5140:5147   */\n      0x00\n        /* \"#utility.yul\":5163:5183   */\n      tag_297\n        /* \"#utility.yul\":5181:5182   */\n      dup3\n        /* \"#utility.yul\":5163:5183   */\n      tag_184\n      jump\t// in\n    tag_297:\n        /* \"#utility.yul\":5158:5183   */\n      swap2\n      pop\n        /* \"#utility.yul\":5197:5217   */\n      tag_298\n        /* \"#utility.yul\":5215:5216   */\n      dup4\n        /* \"#utility.yul\":5197:5217   */\n      tag_184\n      jump\t// in\n    tag_298:\n        /* \"#utility.yul\":5192:5217   */\n      swap3\n      pop\n        /* \"#utility.yul\":5252:5253   */\n      dup3\n        /* \"#utility.yul\":5249:5250   */\n      dup3\n        /* \"#utility.yul\":5245:5254   */\n      mul\n        /* \"#utility.yul\":5274:5304   */\n      tag_299\n        /* \"#utility.yul\":5292:5303   */\n      dup2\n        /* \"#utility.yul\":5274:5304   */\n      tag_184\n      jump\t// in\n    tag_299:\n        /* \"#utility.yul\":5263:5304   */\n      swap2\n      pop\n        /* \"#utility.yul\":5453:5454   */\n      dup3\n        /* \"#utility.yul\":5444:5451   */\n      dup3\n        /* \"#utility.yul\":5440:5455   */\n      div\n        /* \"#utility.yul\":5437:5438   */\n      dup5\n        /* \"#utility.yul\":5434:5456   */\n      eq\n        /* \"#utility.yul\":5414:5415   */\n      dup4\n        /* \"#utility.yul\":5407:5416   */\n      iszero\n        /* \"#utility.yul\":5387:5470   */\n      or\n        /* \"#utility.yul\":5364:5503   */\n      tag_300\n      jumpi\n        /* \"#utility.yul\":5483:5501   */\n      tag_301\n      tag_197\n      jump\t// in\n    tag_301:\n        /* \"#utility.yul\":5364:5503   */\n    tag_300:\n        /* \"#utility.yul\":5148:5510   */\n      pop\n        /* \"#utility.yul\":5100:5510   */\n      swap3\n      swap2\n      pop\n      pop\n      jump\t// out\n        /* \"#utility.yul\":5516:5634   */\n    tag_198:\n        /* \"#utility.yul\":5603:5627   */\n      tag_303\n        /* \"#utility.yul\":5621:5626   */\n      dup2\n        /* \"#utility.yul\":5603:5627   */\n      tag_181\n      jump\t// in\n    tag_303:\n        /* \"#utility.yul\":5598:5601   */\n      dup3\n        /* \"#utility.yul\":5591:5628   */\n      mstore\n        /* \"#utility.yul\":5516:5634   */\n      pop\n      pop\n      jump\t// out\n        /* \"#utility.yul\":5640:5862   */\n    tag_78:\n        /* \"#utility.yul\":5733:5737   */\n      0x00\n        /* \"#utility.yul\":5771:5773   */\n      0x20\n        /* \"#utility.yul\":5760:5769   */\n      dup3\n        /* \"#utility.yul\":5756:5774   */\n      add\n        /* \"#utility.yul\":5748:5774   */\n      swap1\n      pop\n        /* \"#utility.yul\":5784:5855   */\n      tag_305\n        /* \"#utility.yul\":5852:5853   */\n      0x00\n        /* \"#utility.yul\":5841:5850   */\n      dup4\n        /* \"#utility.yul\":5837:5854   */\n      add\n        /* \"#utility.yul\":5828:5834   */\n      dup5\n        /* \"#utility.yul\":5784:5855   */\n      tag_198\n      jump\t// in\n    tag_305:\n        /* \"#utility.yul\":5640:5862   */\n      swap3\n      swap2\n      pop\n      pop\n      jump\t// out\n        /* \"#utility.yul\":5868:6011   */\n    tag_199:\n        /* \"#utility.yul\":5925:5930   */\n      0x00\n        /* \"#utility.yul\":5956:5962   */\n      dup2\n        /* \"#utility.yul\":5950:5963   */\n      mload\n        /* \"#utility.yul\":5941:5963   */\n      swap1\n      pop\n        /* \"#utility.yul\":5972:6005   */\n      tag_307\n        /* \"#utility.yul\":5999:6004   */\n      dup2\n        /* \"#utility.yul\":5972:6005   */\n      tag_186\n      jump\t// in\n    tag_307:\n        /* \"#utility.yul\":5868:6011   */\n      swap3\n      swap2\n      pop\n      pop\n      jump\t// out\n        /* \"#utility.yul\":6017:6368   */\n    tag_82:\n        /* \"#utility.yul\":6087:6093   */\n      0x00\n        /* \"#utility.yul\":6136:6138   */\n      0x20\n        /* \"#utility.yul\":6124:6133   */\n      dup3\n        /* \"#utility.yul\":6115:6122   */\n      dup5\n        /* \"#utility.yul\":6111:6134   */\n      sub\n        /* \"#utility.yul\":6107:6139   */\n      slt\n        /* \"#utility.yul\":6104:6223   */\n      iszero\n      tag_309\n      jumpi\n        /* \"#utility.yul\":6142:6221   */\n      tag_310\n      tag_178\n      jump\t// in\n    tag_310:\n        /* \"#utility.yul\":6104:6223   */\n    tag_309:\n        /* \"#utility.yul\":6262:6263   */\n      0x00\n        /* \"#utility.yul\":6287:6351   */\n      tag_311\n        /* \"#utility.yul\":6343:6350   */\n      dup5\n        /* \"#utility.yul\":6334:6340   */\n      dup3\n        /* \"#utility.yul\":6323:6332   */\n      dup6\n        /* \"#utility.yul\":6319:6341   */\n      add\n        /* \"#utility.yul\":6287:6351   */\n      tag_199\n      jump\t// in\n    tag_311:\n        /* \"#utility.yul\":6277:6351   */\n      swap2\n      pop\n        /* \"#utility.yul\":6233:6361   */\n      pop\n        /* \"#utility.yul\":6017:6368   */\n      swap3\n      swap2\n      pop\n      pop\n      jump\t// out\n        /* \"#utility.yul\":6374:6543   */\n    tag_200:\n        /* \"#utility.yul\":6458:6469   */\n      0x00\n        /* \"#utility.yul\":6492:6498   */\n      dup3\n        /* \"#utility.yul\":6487:6490   */\n      dup3\n        /* \"#utility.yul\":6480:6499   */\n      mstore\n        /* \"#utility.yul\":6532:6536   */\n      0x20\n        /* \"#utility.yul\":6527:6530   */\n      dup3\n        /* \"#utility.yul\":6523:6537   */\n      add\n        /* \"#utility.yul\":6508:6537   */\n      swap1\n      pop\n        /* \"#utility.yul\":6374:6543   */\n      swap3\n      swap2\n      pop\n      pop\n      jump\t// out\n        /* \"#utility.yul\":6549:6724   */\n    tag_201:\n        /* \"#utility.yul\":6689:6716   */\n      0x496e73756666696369656e7420555344542062616c616e636500000000000000\n        /* \"#utility.yul\":6685:6686   */\n      0x00\n        /* \"#utility.yul\":6677:6683   */\n      dup3\n        /* \"#utility.yul\":6673:6687   */\n      add\n        /* \"#utility.yul\":6666:6717   */\n      mstore\n        /* \"#utility.yul\":6549:6724   */\n      pop\n      jump\t// out\n        /* \"#utility.yul\":6730:7096   */\n    tag_202:\n        /* \"#utility.yul\":6872:6875   */\n      0x00\n        /* \"#utility.yul\":6893:6960   */\n      tag_315\n        /* \"#utility.yul\":6957:6959   */\n      0x19\n        /* \"#utility.yul\":6952:6955   */\n      dup4\n        /* \"#utility.yul\":6893:6960   */\n      tag_200\n      jump\t// in\n    tag_315:\n        /* \"#utility.yul\":6886:6960   */\n      swap2\n      pop\n        /* \"#utility.yul\":6969:7062   */\n      tag_316\n        /* \"#utility.yul\":7058:7061   */\n      dup3\n        /* \"#utility.yul\":6969:7062   */\n      tag_201\n      jump\t// in\n    tag_316:\n        /* \"#utility.yul\":7087:7089   */\n      0x20\n        /* \"#utility.yul\":7082:7085   */\n      dup3\n        /* \"#utility.yul\":7078:7090   */\n      add\n        /* \"#utility.yul\":7071:7090   */\n      swap1\n      pop\n        /* \"#utility.yul\":6730:7096   */\n      swap2\n      swap1\n      pop\n      jump\t// out\n        /* \"#utility.yul\":7102:7521   */\n    tag_85:\n        /* \"#utility.yul\":7268:7272   */\n      0x00\n        /* \"#utility.yul\":7306:7308   */\n      0x20\n        /* \"#utility.yul\":7295:7304   */\n      dup3\n        /* \"#utility.yul\":7291:7309   */\n      add\n        /* \"#utility.yul\":7283:7309   */\n      swap1\n      pop\n        /* \"#utility.yul\":7355:7364   */\n      dup2\n        /* \"#utility.yul\":7349:7353   */\n      dup2\n        /* \"#utility.yul\":7345:7365   */\n      sub\n        /* \"#utility.yul\":7341:7342   */\n      0x00\n        /* \"#utility.yul\":7330:7339   */\n      dup4\n        /* \"#utility.yul\":7326:7343   */\n      add\n        /* \"#utility.yul\":7319:7366   */\n      mstore\n        /* \"#utility.yul\":7383:7514   */\n      tag_318\n        /* \"#utility.yul\":7509:7513   */\n      dup2\n        /* \"#utility.yul\":7383:7514   */\n      tag_202\n      jump\t// in\n    tag_318:\n        /* \"#utility.yul\":7375:7514   */\n      swap1\n      pop\n        /* \"#utility.yul\":7102:7521   */\n      swap2\n      swap1\n      pop\n      jump\t// out\n        /* \"#utility.yul\":7527:7969   */\n    tag_87:\n        /* \"#utility.yul\":7676:7680   */\n      0x00\n        /* \"#utility.yul\":7714:7716   */\n      0x60\n        /* \"#utility.yul\":7703:7712   */\n      dup3\n        /* \"#utility.yul\":7699:7717   */\n      add\n        /* \"#utility.yul\":7691:7717   */\n      swap1\n      pop\n        /* \"#utility.yul\":7727:7798   */\n      tag_320\n        /* \"#utility.yul\":7795:7796   */\n      0x00\n        /* \"#utility.yul\":7784:7793   */\n      dup4\n        /* \"#utility.yul\":7780:7797   */\n      add\n        /* \"#utility.yul\":7771:7777   */\n      dup7\n        /* \"#utility.yul\":7727:7798   */\n      tag_198\n      jump\t// in\n    tag_320:\n        /* \"#utility.yul\":7808:7880   */\n      tag_321\n        /* \"#utility.yul\":7876:7878   */\n      0x20\n        /* \"#utility.yul\":7865:7874   */\n      dup4\n        /* \"#utility.yul\":7861:7879   */\n      add\n        /* \"#utility.yul\":7852:7858   */\n      dup6\n        /* \"#utility.yul\":7808:7880   */\n      tag_198\n      jump\t// in\n    tag_321:\n        /* \"#utility.yul\":7890:7962   */\n      tag_322\n        /* \"#utility.yul\":7958:7960   */\n      0x40\n        /* \"#utility.yul\":7947:7956   */\n      dup4\n        /* \"#utility.yul\":7943:7961   */\n      add\n        /* \"#utility.yul\":7934:7940   */\n      dup5\n        /* \"#utility.yul\":7890:7962   */\n      tag_185\n      jump\t// in\n    tag_322:\n        /* \"#utility.yul\":7527:7969   */\n      swap5\n      swap4\n      pop\n      pop\n      pop\n      pop\n      jump\t// out\n        /* \"#utility.yul\":7975:8065   */\n    tag_203:\n        /* \"#utility.yul\":8009:8016   */\n      0x00\n        /* \"#utility.yul\":8052:8057   */\n      dup2\n        /* \"#utility.yul\":8045:8058   */\n      iszero\n        /* \"#utility.yul\":8038:8059   */\n      iszero\n        /* \"#utility.yul\":8027:8059   */\n      swap1\n      pop\n        /* \"#utility.yul\":7975:8065   */\n      swap2\n      swap1\n      pop\n      jump\t// out\n        /* \"#utility.yul\":8071:8187   */\n    tag_204:\n        /* \"#utility.yul\":8141:8162   */\n      tag_325\n        /* \"#utility.yul\":8156:8161   */\n      dup2\n        /* \"#utility.yul\":8141:8162   */\n      tag_203\n      jump\t// in\n    tag_325:\n        /* \"#utility.yul\":8134:8139   */\n      dup2\n        /* \"#utility.yul\":8131:8163   */\n      eq\n        /* \"#utility.yul\":8121:8181   */\n      tag_326\n      jumpi\n        /* \"#utility.yul\":8177:8178   */\n      0x00\n        /* \"#utility.yul\":8174:8175   */\n      dup1\n        /* \"#utility.yul\":8167:8179   */\n      revert\n        /* \"#utility.yul\":8121:8181   */\n    tag_326:\n        /* \"#utility.yul\":8071:8187   */\n      pop\n      jump\t// out\n        /* \"#utility.yul\":8193:8330   */\n    tag_205:\n        /* \"#utility.yul\":8247:8252   */\n      0x00\n        /* \"#utility.yul\":8278:8284   */\n      dup2\n        /* \"#utility.yul\":8272:8285   */\n      mload\n        /* \"#utility.yul\":8263:8285   */\n      swap1\n      pop\n        /* \"#utility.yul\":8294:8324   */\n      tag_328\n        /* \"#utility.yul\":8318:8323   */\n      dup2\n        /* \"#utility.yul\":8294:8324   */\n      tag_204\n      jump\t// in\n    tag_328:\n        /* \"#utility.yul\":8193:8330   */\n      swap3\n      swap2\n      pop\n      pop\n      jump\t// out\n        /* \"#utility.yul\":8336:8681   */\n    tag_91:\n        /* \"#utility.yul\":8403:8409   */\n      0x00\n        /* \"#utility.yul\":8452:8454   */\n      0x20\n        /* \"#utility.yul\":8440:8449   */\n      dup3\n        /* \"#utility.yul\":8431:8438   */\n      dup5\n        /* \"#utility.yul\":8427:8450   */\n      sub\n        /* \"#utility.yul\":8423:8455   */\n      slt\n        /* \"#utility.yul\":8420:8539   */\n      iszero\n      tag_330\n      jumpi\n        /* \"#utility.yul\":8458:8537   */\n      tag_331\n      tag_178\n      jump\t// in\n    tag_331:\n        /* \"#utility.yul\":8420:8539   */\n    tag_330:\n        /* \"#utility.yul\":8578:8579   */\n      0x00\n        /* \"#utility.yul\":8603:8664   */\n      tag_332\n        /* \"#utility.yul\":8656:8663   */\n      dup5\n        /* \"#utility.yul\":8647:8653   */\n      dup3\n        /* \"#utility.yul\":8636:8645   */\n      dup6\n        /* \"#utility.yul\":8632:8654   */\n      add\n        /* \"#utility.yul\":8603:8664   */\n      tag_205\n      jump\t// in\n    tag_332:\n        /* \"#utility.yul\":8593:8664   */\n      swap2\n      pop\n        /* \"#utility.yul\":8549:8674   */\n      pop\n        /* \"#utility.yul\":8336:8681   */\n      swap3\n      swap2\n      pop\n      pop\n      jump\t// out\n        /* \"#utility.yul\":8687:8857   */\n    tag_206:\n        /* \"#utility.yul\":8827:8849   */\n      0x55534454207472616e73666572206661696c6564000000000000000000000000\n        /* \"#utility.yul\":8823:8824   */\n      0x00\n        /* \"#utility.yul\":8815:8821   */\n      dup3\n        /* \"#utility.yul\":8811:8825   */\n      add\n        /* \"#utility.yul\":8804:8850   */\n      mstore\n        /* \"#utility.yul\":8687:8857   */\n      pop\n      jump\t// out\n        /* \"#utility.yul\":8863:9229   */\n    tag_207:\n        /* \"#utility.yul\":9005:9008   */\n      0x00\n        /* \"#utility.yul\":9026:9093   */\n      tag_335\n        /* \"#utility.yul\":9090:9092   */\n      0x14\n        /* \"#utility.yul\":9085:9088   */\n      dup4\n        /* \"#utility.yul\":9026:9093   */\n      tag_200\n      jump\t// in\n    tag_335:\n        /* \"#utility.yul\":9019:9093   */\n      swap2\n      pop\n        /* \"#utility.yul\":9102:9195   */\n      tag_336\n        /* \"#utility.yul\":9191:9194   */\n      dup3\n        /* \"#utility.yul\":9102:9195   */\n      tag_206\n      jump\t// in\n    tag_336:\n        /* \"#utility.yul\":9220:9222   */\n      0x20\n        /* \"#utility.yul\":9215:9218   */\n      dup3\n        /* \"#utility.yul\":9211:9223   */\n      add\n        /* \"#utility.yul\":9204:9223   */\n      swap1\n      pop\n        /* \"#utility.yul\":8863:9229   */\n      swap2\n      swap1\n      pop\n      jump\t// out\n        /* \"#utility.yul\":9235:9654   */\n    tag_94:\n        /* \"#utility.yul\":9401:9405   */\n      0x00\n        /* \"#utility.yul\":9439:9441   */\n      0x20\n        /* \"#utility.yul\":9428:9437   */\n      dup3\n        /* \"#utility.yul\":9424:9442   */\n      add\n        /* \"#utility.yul\":9416:9442   */\n      swap1\n      pop\n        /* \"#utility.yul\":9488:9497   */\n      dup2\n        /* \"#utility.yul\":9482:9486   */\n      dup2\n        /* \"#utility.yul\":9478:9498   */\n      sub\n        /* \"#utility.yul\":9474:9475   */\n      0x00\n        /* \"#utility.yul\":9463:9472   */\n      dup4\n        /* \"#utility.yul\":9459:9476   */\n      add\n        /* \"#utility.yul\":9452:9499   */\n      mstore\n        /* \"#utility.yul\":9516:9647   */\n      tag_338\n        /* \"#utility.yul\":9642:9646   */\n      dup2\n        /* \"#utility.yul\":9516:9647   */\n      tag_207\n      jump\t// in\n    tag_338:\n        /* \"#utility.yul\":9508:9647   */\n      swap1\n      pop\n        /* \"#utility.yul\":9235:9654   */\n      swap2\n      swap1\n      pop\n      jump\t// out\n        /* \"#utility.yul\":9660:9851   */\n    tag_96:\n        /* \"#utility.yul\":9700:9703   */\n      0x00\n        /* \"#utility.yul\":9719:9739   */\n      tag_340\n        /* \"#utility.yul\":9737:9738   */\n      dup3\n        /* \"#utility.yul\":9719:9739   */\n      tag_184\n      jump\t// in\n    tag_340:\n        /* \"#utility.yul\":9714:9739   */\n      swap2\n      pop\n        /* \"#utility.yul\":9753:9773   */\n      tag_341\n        /* \"#utility.yul\":9771:9772   */\n      dup4\n        /* \"#utility.yul\":9753:9773   */\n      tag_184\n      jump\t// in\n    tag_341:\n        /* \"#utility.yul\":9748:9773   */\n      swap3\n      pop\n        /* \"#utility.yul\":9796:9797   */\n      dup3\n        /* \"#utility.yul\":9793:9794   */\n      dup3\n        /* \"#utility.yul\":9789:9798   */\n      add\n        /* \"#utility.yul\":9782:9798   */\n      swap1\n      pop\n        /* \"#utility.yul\":9817:9820   */\n      dup1\n        /* \"#utility.yul\":9814:9815   */\n      dup3\n        /* \"#utility.yul\":9811:9821   */\n      gt\n        /* \"#utility.yul\":9808:9844   */\n      iszero\n      tag_342\n      jumpi\n        /* \"#utility.yul\":9824:9842   */\n      tag_343\n      tag_197\n      jump\t// in\n    tag_343:\n        /* \"#utility.yul\":9808:9844   */\n    tag_342:\n        /* \"#utility.yul\":9660:9851   */\n      swap3\n      swap2\n      pop\n      pop\n      jump\t// out\n        /* \"#utility.yul\":9857:10036   */\n    tag_208:\n        /* \"#utility.yul\":9997:10028   */\n      0x416d6f756e74206d7573742062652067726561746572207468616e2030000000\n        /* \"#utility.yul\":9993:9994   */\n      0x00\n        /* \"#utility.yul\":9985:9991   */\n      dup3\n        /* \"#utility.yul\":9981:9995   */\n      add\n        /* \"#utility.yul\":9974:10029   */\n      mstore\n        /* \"#utility.yul\":9857:10036   */\n      pop\n      jump\t// out\n        /* \"#utility.yul\":10042:10408   */\n    tag_209:\n        /* \"#utility.yul\":10184:10187   */\n      0x00\n        /* \"#utility.yul\":10205:10272   */\n      tag_346\n        /* \"#utility.yul\":10269:10271   */\n      0x1d\n        /* \"#utility.yul\":10264:10267   */\n      dup4\n        /* \"#utility.yul\":10205:10272   */\n      tag_200\n      jump\t// in\n    tag_346:\n        /* \"#utility.yul\":10198:10272   */\n      swap2\n      pop\n        /* \"#utility.yul\":10281:10374   */\n      tag_347\n        /* \"#utility.yul\":10370:10373   */\n      dup3\n        /* \"#utility.yul\":10281:10374   */\n      tag_208\n      jump\t// in\n    tag_347:\n        /* \"#utility.yul\":10399:10401   */\n      0x20\n        /* \"#utility.yul\":10394:10397   */\n      dup3\n        /* \"#utility.yul\":10390:10402   */\n      add\n        /* \"#utility.yul\":10383:10402   */\n      swap1\n      pop\n        /* \"#utility.yul\":10042:10408   */\n      swap2\n      swap1\n      pop\n      jump\t// out\n        /* \"#utility.yul\":10414:10833   */\n    tag_101:\n        /* \"#utility.yul\":10580:10584   */\n      0x00\n        /* \"#utility.yul\":10618:10620   */\n      0x20\n        /* \"#utility.yul\":10607:10616   */\n      dup3\n        /* \"#utility.yul\":10603:10621   */\n      add\n        /* \"#utility.yul\":10595:10621   */\n      swap1\n      pop\n        /* \"#utility.yul\":10667:10676   */\n      dup2\n        /* \"#utility.yul\":10661:10665   */\n      dup2\n        /* \"#utility.yul\":10657:10677   */\n      sub\n        /* \"#utility.yul\":10653:10654   */\n      0x00\n        /* \"#utility.yul\":10642:10651   */\n      dup4\n        /* \"#utility.yul\":10638:10655   */\n      add\n        /* \"#utility.yul\":10631:10678   */\n      mstore\n        /* \"#utility.yul\":10695:10826   */\n      tag_349\n        /* \"#utility.yul\":10821:10825   */\n      dup2\n        /* \"#utility.yul\":10695:10826   */\n      tag_209\n      jump\t// in\n    tag_349:\n        /* \"#utility.yul\":10687:10826   */\n      swap1\n      pop\n        /* \"#utility.yul\":10414:10833   */\n      swap2\n      swap1\n      pop\n      jump\t// out\n        /* \"#utility.yul\":10839:11171   */\n    tag_108:\n        /* \"#utility.yul\":10960:10964   */\n      0x00\n        /* \"#utility.yul\":10998:11000   */\n      0x40\n        /* \"#utility.yul\":10987:10996   */\n      dup3\n        /* \"#utility.yul\":10983:11001   */\n      add\n        /* \"#utility.yul\":10975:11001   */\n      swap1\n      pop\n        /* \"#utility.yul\":11011:11082   */\n      tag_351\n        /* \"#utility.yul\":11079:11080   */\n      0x00\n        /* \"#utility.yul\":11068:11077   */\n      dup4\n        /* \"#utility.yul\":11064:11081   */\n      add\n        /* \"#utility.yul\":11055:11061   */\n      dup6\n        /* \"#utility.yul\":11011:11082   */\n      tag_185\n      jump\t// in\n    tag_351:\n        /* \"#utility.yul\":11092:11164   */\n      tag_352\n        /* \"#utility.yul\":11160:11162   */\n      0x20\n        /* \"#utility.yul\":11149:11158   */\n      dup4\n        /* \"#utility.yul\":11145:11163   */\n      add\n        /* \"#utility.yul\":11136:11142   */\n      dup5\n        /* \"#utility.yul\":11092:11164   */\n      tag_185\n      jump\t// in\n    tag_352:\n        /* \"#utility.yul\":10839:11171   */\n      swap4\n      swap3\n      pop\n      pop\n      pop\n      jump\t// out\n        /* \"#utility.yul\":11177:11347   */\n    tag_210:\n        /* \"#utility.yul\":11317:11339   */\n      0x496e73756666696369656e742062616c616e6365000000000000000000000000\n        /* \"#utility.yul\":11313:11314   */\n      0x00\n        /* \"#utility.yul\":11305:11311   */\n      dup3\n        /* \"#utility.yul\":11301:11315   */\n      add\n        /* \"#utility.yul\":11294:11340   */\n      mstore\n        /* \"#utility.yul\":11177:11347   */\n      pop\n      jump\t// out\n        /* \"#utility.yul\":11353:11719   */\n    tag_211:\n        /* \"#utility.yul\":11495:11498   */\n      0x00\n        /* \"#utility.yul\":11516:11583   */\n      tag_355\n        /* \"#utility.yul\":11580:11582   */\n      0x14\n        /* \"#utility.yul\":11575:11578   */\n      dup4\n        /* \"#utility.yul\":11516:11583   */\n      tag_200\n      jump\t// in\n    tag_355:\n        /* \"#utility.yul\":11509:11583   */\n      swap2\n      pop\n        /* \"#utility.yul\":11592:11685   */\n      tag_356\n        /* \"#utility.yul\":11681:11684   */\n      dup3\n        /* \"#utility.yul\":11592:11685   */\n      tag_210\n      jump\t// in\n    tag_356:\n        /* \"#utility.yul\":11710:11712   */\n      0x20\n        /* \"#utility.yul\":11705:11708   */\n      dup3\n        /* \"#utility.yul\":11701:11713   */\n      add\n        /* \"#utility.yul\":11694:11713   */\n      swap1\n      pop\n        /* \"#utility.yul\":11353:11719   */\n      swap2\n      swap1\n      pop\n      jump\t// out\n        /* \"#utility.yul\":11725:12144   */\n    tag_112:\n        /* \"#utility.yul\":11891:11895   */\n      0x00\n        /* \"#utility.yul\":11929:11931   */\n      0x20\n        /* \"#utility.yul\":11918:11927   */\n      dup3\n        /* \"#utility.yul\":11914:11932   */\n      add\n        /* \"#utility.yul\":11906:11932   */\n      swap1\n      pop\n        /* \"#utility.yul\":11978:11987   */\n      dup2\n        /* \"#utility.yul\":11972:11976   */\n      dup2\n        /* \"#utility.yul\":11968:11988   */\n      sub\n        /* \"#utility.yul\":11964:11965   */\n      0x00\n        /* \"#utility.yul\":11953:11962   */\n      dup4\n        /* \"#utility.yul\":11949:11966   */\n      add\n        /* \"#utility.yul\":11942:11989   */\n      mstore\n        /* \"#utility.yul\":12006:12137   */\n      tag_358\n        /* \"#utility.yul\":12132:12136   */\n      dup2\n        /* \"#utility.yul\":12006:12137   */\n      tag_211\n      jump\t// in\n    tag_358:\n        /* \"#utility.yul\":11998:12137   */\n      swap1\n      pop\n        /* \"#utility.yul\":11725:12144   */\n      swap2\n      swap1\n      pop\n      jump\t// out\n        /* \"#utility.yul\":12150:12344   */\n    tag_114:\n        /* \"#utility.yul\":12190:12194   */\n      0x00\n        /* \"#utility.yul\":12210:12230   */\n      tag_360\n        /* \"#utility.yul\":12228:12229   */\n      dup3\n        /* \"#utility.yul\":12210:12230   */\n      tag_184\n      jump\t// in\n    tag_360:\n        /* \"#utility.yul\":12205:12230   */\n      swap2\n      pop\n        /* \"#utility.yul\":12244:12264   */\n      tag_361\n        /* \"#utility.yul\":12262:12263   */\n      dup4\n        /* \"#utility.yul\":12244:12264   */\n      tag_184\n      jump\t// in\n    tag_361:\n        /* \"#utility.yul\":12239:12264   */\n      swap3\n      pop\n        /* \"#utility.yul\":12288:12289   */\n      dup3\n        /* \"#utility.yul\":12285:12286   */\n      dup3\n        /* \"#utility.yul\":12281:12290   */\n      sub\n        /* \"#utility.yul\":12273:12290   */\n      swap1\n      pop\n        /* \"#utility.yul\":12312:12313   */\n      dup2\n        /* \"#utility.yul\":12306:12310   */\n      dup2\n        /* \"#utility.yul\":12303:12314   */\n      gt\n        /* \"#utility.yul\":12300:12337   */\n      iszero\n      tag_362\n      jumpi\n        /* \"#utility.yul\":12317:12335   */\n      tag_363\n      tag_197\n      jump\t// in\n    tag_363:\n        /* \"#utility.yul\":12300:12337   */\n    tag_362:\n        /* \"#utility.yul\":12150:12344   */\n      swap3\n      swap2\n      pop\n      pop\n      jump\t// out\n        /* \"#utility.yul\":12350:12455   */\n    tag_212:\n        /* \"#utility.yul\":12386:12393   */\n      0x00\n        /* \"#utility.yul\":12426:12448   */\n      0xffffffffffffffffffff\n        /* \"#utility.yul\":12419:12424   */\n      dup3\n        /* \"#utility.yul\":12415:12449   */\n      and\n        /* \"#utility.yul\":12404:12449   */\n      swap1\n      pop\n        /* \"#utility.yul\":12350:12455   */\n      swap2\n      swap1\n      pop\n      jump\t// out\n        /* \"#utility.yul\":12461:12581   */\n    tag_213:\n        /* \"#utility.yul\":12533:12556   */\n      tag_366\n        /* \"#utility.yul\":12550:12555   */\n      dup2\n        /* \"#utility.yul\":12533:12556   */\n      tag_212\n      jump\t// in\n    tag_366:\n        /* \"#utility.yul\":12526:12531   */\n      dup2\n        /* \"#utility.yul\":12523:12557   */\n      eq\n        /* \"#utility.yul\":12513:12575   */\n      tag_367\n      jumpi\n        /* \"#utility.yul\":12571:12572   */\n      0x00\n        /* \"#utility.yul\":12568:12569   */\n      dup1\n        /* \"#utility.yul\":12561:12573   */\n      revert\n        /* \"#utility.yul\":12513:12575   */\n    tag_367:\n        /* \"#utility.yul\":12461:12581   */\n      pop\n      jump\t// out\n        /* \"#utility.yul\":12587:12728   */\n    tag_214:\n        /* \"#utility.yul\":12643:12648   */\n      0x00\n        /* \"#utility.yul\":12674:12680   */\n      dup2\n        /* \"#utility.yul\":12668:12681   */\n      mload\n        /* \"#utility.yul\":12659:12681   */\n      swap1\n      pop\n        /* \"#utility.yul\":12690:12722   */\n      tag_369\n        /* \"#utility.yul\":12716:12721   */\n      dup2\n        /* \"#utility.yul\":12690:12722   */\n      tag_213\n      jump\t// in\n    tag_369:\n        /* \"#utility.yul\":12587:12728   */\n      swap3\n      swap2\n      pop\n      pop\n      jump\t// out\n        /* \"#utility.yul\":12734:12810   */\n    tag_215:\n        /* \"#utility.yul\":12770:12777   */\n      0x00\n        /* \"#utility.yul\":12799:12804   */\n      dup2\n        /* \"#utility.yul\":12788:12804   */\n      swap1\n      pop\n        /* \"#utility.yul\":12734:12810   */\n      swap2\n      swap1\n      pop\n      jump\t// out\n        /* \"#utility.yul\":12816:12936   */\n    tag_216:\n        /* \"#utility.yul\":12888:12911   */\n      tag_372\n        /* \"#utility.yul\":12905:12910   */\n      dup2\n        /* \"#utility.yul\":12888:12911   */\n      tag_215\n      jump\t// in\n    tag_372:\n        /* \"#utility.yul\":12881:12886   */\n      dup2\n        /* \"#utility.yul\":12878:12912   */\n      eq\n        /* \"#utility.yul\":12868:12930   */\n      tag_373\n      jumpi\n        /* \"#utility.yul\":12926:12927   */\n      0x00\n        /* \"#utility.yul\":12923:12924   */\n      dup1\n        /* \"#utility.yul\":12916:12928   */\n      revert\n        /* \"#utility.yul\":12868:12930   */\n    tag_373:\n        /* \"#utility.yul\":12816:12936   */\n      pop\n      jump\t// out\n        /* \"#utility.yul\":12942:13083   */\n    tag_217:\n        /* \"#utility.yul\":12998:13003   */\n      0x00\n        /* \"#utility.yul\":13029:13035   */\n      dup2\n        /* \"#utility.yul\":13023:13036   */\n      mload\n        /* \"#utility.yul\":13014:13036   */\n      swap1\n      pop\n        /* \"#utility.yul\":13045:13077   */\n      tag_375\n        /* \"#utility.yul\":13071:13076   */\n      dup2\n        /* \"#utility.yul\":13045:13077   */\n      tag_216\n      jump\t// in\n    tag_375:\n        /* \"#utility.yul\":12942:13083   */\n      swap3\n      swap2\n      pop\n      pop\n      jump\t// out\n        /* \"#utility.yul\":13089:14060   */\n    tag_120:\n        /* \"#utility.yul\":13192:13198   */\n      0x00\n        /* \"#utility.yul\":13200:13206   */\n      dup1\n        /* \"#utility.yul\":13208:13214   */\n      0x00\n        /* \"#utility.yul\":13216:13222   */\n      dup1\n        /* \"#utility.yul\":13224:13230   */\n      0x00\n        /* \"#utility.yul\":13273:13276   */\n      0xa0\n        /* \"#utility.yul\":13261:13270   */\n      dup7\n        /* \"#utility.yul\":13252:13259   */\n      dup9\n        /* \"#utility.yul\":13248:13271   */\n      sub\n        /* \"#utility.yul\":13244:13277   */\n      slt\n        /* \"#utility.yul\":13241:13361   */\n      iszero\n      tag_377\n      jumpi\n        /* \"#utility.yul\":13280:13359   */\n      tag_378\n      tag_178\n      jump\t// in\n    tag_378:\n        /* \"#utility.yul\":13241:13361   */\n    tag_377:\n        /* \"#utility.yul\":13400:13401   */\n      0x00\n        /* \"#utility.yul\":13425:13488   */\n      tag_379\n        /* \"#utility.yul\":13480:13487   */\n      dup9\n        /* \"#utility.yul\":13471:13477   */\n      dup3\n        /* \"#utility.yul\":13460:13469   */\n      dup10\n        /* \"#utility.yul\":13456:13478   */\n      add\n        /* \"#utility.yul\":13425:13488   */\n      tag_214\n      jump\t// in\n    tag_379:\n        /* \"#utility.yul\":13415:13488   */\n      swap6\n      pop\n        /* \"#utility.yul\":13371:13498   */\n      pop\n        /* \"#utility.yul\":13537:13539   */\n      0x20\n        /* \"#utility.yul\":13563:13626   */\n      tag_380\n        /* \"#utility.yul\":13618:13625   */\n      dup9\n        /* \"#utility.yul\":13609:13615   */\n      dup3\n        /* \"#utility.yul\":13598:13607   */\n      dup10\n        /* \"#utility.yul\":13594:13616   */\n      add\n        /* \"#utility.yul\":13563:13626   */\n      tag_217\n      jump\t// in\n    tag_380:\n        /* \"#utility.yul\":13553:13626   */\n      swap5\n      pop\n        /* \"#utility.yul\":13508:13636   */\n      pop\n        /* \"#utility.yul\":13675:13677   */\n      0x40\n        /* \"#utility.yul\":13701:13765   */\n      tag_381\n        /* \"#utility.yul\":13757:13764   */\n      dup9\n        /* \"#utility.yul\":13748:13754   */\n      dup3\n        /* \"#utility.yul\":13737:13746   */\n      dup10\n        /* \"#utility.yul\":13733:13755   */\n      add\n        /* \"#utility.yul\":13701:13765   */\n      tag_199\n      jump\t// in\n    tag_381:\n        /* \"#utility.yul\":13691:13765   */\n      swap4\n      pop\n        /* \"#utility.yul\":13646:13775   */\n      pop\n        /* \"#utility.yul\":13814:13816   */\n      0x60\n        /* \"#utility.yul\":13840:13904   */\n      tag_382\n        /* \"#utility.yul\":13896:13903   */\n      dup9\n        /* \"#utility.yul\":13887:13893   */\n      dup3\n        /* \"#utility.yul\":13876:13885   */\n      dup10\n        /* \"#utility.yul\":13872:13894   */\n      add\n        /* \"#utility.yul\":13840:13904   */\n      tag_199\n      jump\t// in\n    tag_382:\n        /* \"#utility.yul\":13830:13904   */\n      swap3\n      pop\n        /* \"#utility.yul\":13785:13914   */\n      pop\n        /* \"#utility.yul\":13953:13956   */\n      0x80\n        /* \"#utility.yul\":13980:14043   */\n      tag_383\n        /* \"#utility.yul\":14035:14042   */\n      dup9\n        /* \"#utility.yul\":14026:14032   */\n      dup3\n        /* \"#utility.yul\":14015:14024   */\n      dup10\n        /* \"#utility.yul\":14011:14033   */\n      add\n        /* \"#utility.yul\":13980:14043   */\n      tag_214\n      jump\t// in\n    tag_383:\n        /* \"#utility.yul\":13970:14043   */\n      swap2\n      pop\n        /* \"#utility.yul\":13924:14053   */\n      pop\n        /* \"#utility.yul\":13089:14060   */\n      swap3\n      swap6\n      pop\n      swap3\n      swap6\n      swap1\n      swap4\n      pop\n      jump\t// out\n        /* \"#utility.yul\":14066:14234   */\n    tag_218:\n        /* \"#utility.yul\":14206:14226   */\n      0x496e76616c696420707269636520646174610000000000000000000000000000\n        /* \"#utility.yul\":14202:14203   */\n      0x00\n        /* \"#utility.yul\":14194:14200   */\n      dup3\n        /* \"#utility.yul\":14190:14204   */\n      add\n        /* \"#utility.yul\":14183:14227   */\n      mstore\n        /* \"#utility.yul\":14066:14234   */\n      pop\n      jump\t// out\n        /* \"#utility.yul\":14240:14606   */\n    tag_219:\n        /* \"#utility.yul\":14382:14385   */\n      0x00\n        /* \"#utility.yul\":14403:14470   */\n      tag_386\n        /* \"#utility.yul\":14467:14469   */\n      0x12\n        /* \"#utility.yul\":14462:14465   */\n      dup4\n        /* \"#utility.yul\":14403:14470   */\n      tag_200\n      jump\t// in\n    tag_386:\n        /* \"#utility.yul\":14396:14470   */\n      swap2\n      pop\n        /* \"#utility.yul\":14479:14572   */\n      tag_387\n        /* \"#utility.yul\":14568:14571   */\n      dup3\n        /* \"#utility.yul\":14479:14572   */\n      tag_218\n      jump\t// in\n    tag_387:\n        /* \"#utility.yul\":14597:14599   */\n      0x20\n        /* \"#utility.yul\":14592:14595   */\n      dup3\n        /* \"#utility.yul\":14588:14600   */\n      add\n        /* \"#utility.yul\":14581:14600   */\n      swap1\n      pop\n        /* \"#utility.yul\":14240:14606   */\n      swap2\n      swap1\n      pop\n      jump\t// out\n        /* \"#utility.yul\":14612:15031   */\n    tag_123:\n        /* \"#utility.yul\":14778:14782   */\n      0x00\n        /* \"#utility.yul\":14816:14818   */\n      0x20\n        /* \"#utility.yul\":14805:14814   */\n      dup3\n        /* \"#utility.yul\":14801:14819   */\n      add\n        /* \"#utility.yul\":14793:14819   */\n      swap1\n      pop\n        /* \"#utility.yul\":14865:14874   */\n      dup2\n        /* \"#utility.yul\":14859:14863   */\n      dup2\n        /* \"#utility.yul\":14855:14875   */\n      sub\n        /* \"#utility.yul\":14851:14852   */\n      0x00\n        /* \"#utility.yul\":14840:14849   */\n      dup4\n        /* \"#utility.yul\":14836:14853   */\n      add\n        /* \"#utility.yul\":14829:14876   */\n      mstore\n        /* \"#utility.yul\":14893:15024   */\n      tag_389\n        /* \"#utility.yul\":15019:15023   */\n      dup2\n        /* \"#utility.yul\":14893:15024   */\n      tag_219\n      jump\t// in\n    tag_389:\n        /* \"#utility.yul\":14885:15024   */\n      swap1\n      pop\n        /* \"#utility.yul\":14612:15031   */\n      swap2\n      swap1\n      pop\n      jump\t// out\n        /* \"#utility.yul\":15037:15217   */\n    tag_127:\n        /* \"#utility.yul\":15085:15162   */\n      0x4e487b7100000000000000000000000000000000000000000000000000000000\n        /* \"#utility.yul\":15082:15083   */\n      0x00\n        /* \"#utility.yul\":15075:15163   */\n      mstore\n        /* \"#utility.yul\":15182:15186   */\n      0x21\n        /* \"#utility.yul\":15179:15180   */\n      0x04\n        /* \"#utility.yul\":15172:15187   */\n      mstore\n        /* \"#utility.yul\":15206:15210   */\n      0x24\n        /* \"#utility.yul\":15203:15204   */\n      0x00\n        /* \"#utility.yul\":15196:15211   */\n      revert\n        /* \"#utility.yul\":15223:15344   */\n    tag_220:\n        /* \"#utility.yul\":15312:15313   */\n      0x03\n        /* \"#utility.yul\":15305:15310   */\n      dup2\n        /* \"#utility.yul\":15302:15314   */\n      lt\n        /* \"#utility.yul\":15292:15338   */\n      tag_392\n      jumpi\n        /* \"#utility.yul\":15318:15336   */\n      tag_393\n      tag_127\n      jump\t// in\n    tag_393:\n        /* \"#utility.yul\":15292:15338   */\n    tag_392:\n        /* \"#utility.yul\":15223:15344   */\n      pop\n      jump\t// out\n        /* \"#utility.yul\":15350:15493   */\n    tag_221:\n        /* \"#utility.yul\":15403:15410   */\n      0x00\n        /* \"#utility.yul\":15432:15437   */\n      dup2\n        /* \"#utility.yul\":15421:15437   */\n      swap1\n      pop\n        /* \"#utility.yul\":15438:15487   */\n      tag_395\n        /* \"#utility.yul\":15481:15486   */\n      dup3\n        /* \"#utility.yul\":15438:15487   */\n      tag_220\n      jump\t// in\n    tag_395:\n        /* \"#utility.yul\":15350:15493   */\n      swap2\n      swap1\n      pop\n      jump\t// out\n        /* \"#utility.yul\":15499:15642   */\n    tag_222:\n        /* \"#utility.yul\":15563:15572   */\n      0x00\n        /* \"#utility.yul\":15596:15636   */\n      tag_397\n        /* \"#utility.yul\":15630:15635   */\n      dup3\n        /* \"#utility.yul\":15596:15636   */\n      tag_221\n      jump\t// in\n    tag_397:\n        /* \"#utility.yul\":15583:15636   */\n      swap1\n      pop\n        /* \"#utility.yul\":15499:15642   */\n      swap2\n      swap1\n      pop\n      jump\t// out\n        /* \"#utility.yul\":15648:15807   */\n    tag_223:\n        /* \"#utility.yul\":15749:15800   */\n      tag_399\n        /* \"#utility.yul\":15794:15799   */\n      dup2\n        /* \"#utility.yul\":15749:15800   */\n      tag_222\n      jump\t// in\n    tag_399:\n        /* \"#utility.yul\":15744:15747   */\n      dup3\n        /* \"#utility.yul\":15737:15801   */\n      mstore\n        /* \"#utility.yul\":15648:15807   */\n      pop\n      pop\n      jump\t// out\n        /* \"#utility.yul\":15813:16063   */\n    tag_130:\n        /* \"#utility.yul\":15920:15924   */\n      0x00\n        /* \"#utility.yul\":15958:15960   */\n      0x20\n        /* \"#utility.yul\":15947:15956   */\n      dup3\n        /* \"#utility.yul\":15943:15961   */\n      add\n        /* \"#utility.yul\":15935:15961   */\n      swap1\n      pop\n        /* \"#utility.yul\":15971:16056   */\n      tag_401\n        /* \"#utility.yul\":16053:16054   */\n      0x00\n        /* \"#utility.yul\":16042:16051   */\n      dup4\n        /* \"#utility.yul\":16038:16055   */\n      add\n        /* \"#utility.yul\":16029:16035   */\n      dup5\n        /* \"#utility.yul\":15971:16056   */\n      tag_223\n      jump\t// in\n    tag_401:\n        /* \"#utility.yul\":15813:16063   */\n      swap3\n      swap2\n      pop\n      pop\n      jump\t// out\n        /* \"#utility.yul\":16069:16240   */\n    tag_224:\n        /* \"#utility.yul\":16209:16232   */\n      0x4c6f636b20706572696f64206e6f7420656e6465640000000000000000000000\n        /* \"#utility.yul\":16205:16206   */\n      0x00\n        /* \"#utility.yul\":16197:16203   */\n      dup3\n        /* \"#utility.yul\":16193:16207   */\n      add\n        /* \"#utility.yul\":16186:16233   */\n      mstore\n        /* \"#utility.yul\":16069:16240   */\n      pop\n      jump\t// out\n        /* \"#utility.yul\":16246:16612   */\n    tag_225:\n        /* \"#utility.yul\":16388:16391   */\n      0x00\n        /* \"#utility.yul\":16409:16476   */\n      tag_404\n        /* \"#utility.yul\":16473:16475   */\n      0x15\n        /* \"#utility.yul\":16468:16471   */\n      dup4\n        /* \"#utility.yul\":16409:16476   */\n      tag_200\n      jump\t// in\n    tag_404:\n        /* \"#utility.yul\":16402:16476   */\n      swap2\n      pop\n        /* \"#utility.yul\":16485:16578   */\n      tag_405\n        /* \"#utility.yul\":16574:16577   */\n      dup3\n        /* \"#utility.yul\":16485:16578   */\n      tag_224\n      jump\t// in\n    tag_405:\n        /* \"#utility.yul\":16603:16605   */\n      0x20\n        /* \"#utility.yul\":16598:16601   */\n      dup3\n        /* \"#utility.yul\":16594:16606   */\n      add\n        /* \"#utility.yul\":16587:16606   */\n      swap1\n      pop\n        /* \"#utility.yul\":16246:16612   */\n      swap2\n      swap1\n      pop\n      jump\t// out\n        /* \"#utility.yul\":16618:17037   */\n    tag_134:\n        /* \"#utility.yul\":16784:16788   */\n      0x00\n        /* \"#utility.yul\":16822:16824   */\n      0x20\n        /* \"#utility.yul\":16811:16820   */\n      dup3\n        /* \"#utility.yul\":16807:16825   */\n      add\n        /* \"#utility.yul\":16799:16825   */\n      swap1\n      pop\n        /* \"#utility.yul\":16871:16880   */\n      dup2\n        /* \"#utility.yul\":16865:16869   */\n      dup2\n        /* \"#utility.yul\":16861:16881   */\n      sub\n        /* \"#utility.yul\":16857:16858   */\n      0x00\n        /* \"#utility.yul\":16846:16855   */\n      dup4\n        /* \"#utility.yul\":16842:16859   */\n      add\n        /* \"#utility.yul\":16835:16882   */\n      mstore\n        /* \"#utility.yul\":16899:17030   */\n      tag_407\n        /* \"#utility.yul\":17025:17029   */\n      dup2\n        /* \"#utility.yul\":16899:17030   */\n      tag_225\n      jump\t// in\n    tag_407:\n        /* \"#utility.yul\":16891:17030   */\n      swap1\n      pop\n        /* \"#utility.yul\":16618:17037   */\n      swap2\n      swap1\n      pop\n      jump\t// out\n        /* \"#utility.yul\":17043:17215   */\n    tag_226:\n        /* \"#utility.yul\":17183:17207   */\n      0x4e6f207265776172647320746f20776974686472617700000000000000000000\n        /* \"#utility.yul\":17179:17180   */\n      0x00\n        /* \"#utility.yul\":17171:17177   */\n      dup3\n        /* \"#utility.yul\":17167:17181   */\n      add\n        /* \"#utility.yul\":17160:17208   */\n      mstore\n        /* \"#utility.yul\":17043:17215   */\n      pop\n      jump\t// out\n        /* \"#utility.yul\":17221:17587   */\n    tag_227:\n        /* \"#utility.yul\":17363:17366   */\n      0x00\n        /* \"#utility.yul\":17384:17451   */\n      tag_410\n        /* \"#utility.yul\":17448:17450   */\n      0x16\n        /* \"#utility.yul\":17443:17446   */\n      dup4\n        /* \"#utility.yul\":17384:17451   */\n      tag_200\n      jump\t// in\n    tag_410:\n        /* \"#utility.yul\":17377:17451   */\n      swap2\n      pop\n        /* \"#utility.yul\":17460:17553   */\n      tag_411\n        /* \"#utility.yul\":17549:17552   */\n      dup3\n        /* \"#utility.yul\":17460:17553   */\n      tag_226\n      jump\t// in\n    tag_411:\n        /* \"#utility.yul\":17578:17580   */\n      0x20\n        /* \"#utility.yul\":17573:17576   */\n      dup3\n        /* \"#utility.yul\":17569:17581   */\n      add\n        /* \"#utility.yul\":17562:17581   */\n      swap1\n      pop\n        /* \"#utility.yul\":17221:17587   */\n      swap2\n      swap1\n      pop\n      jump\t// out\n        /* \"#utility.yul\":17593:18012   */\n    tag_137:\n        /* \"#utility.yul\":17759:17763   */\n      0x00\n        /* \"#utility.yul\":17797:17799   */\n      0x20\n        /* \"#utility.yul\":17786:17795   */\n      dup3\n        /* \"#utility.yul\":17782:17800   */\n      add\n        /* \"#utility.yul\":17774:17800   */\n      swap1\n      pop\n        /* \"#utility.yul\":17846:17855   */\n      dup2\n        /* \"#utility.yul\":17840:17844   */\n      dup2\n        /* \"#utility.yul\":17836:17856   */\n      sub\n        /* \"#utility.yul\":17832:17833   */\n      0x00\n        /* \"#utility.yul\":17821:17830   */\n      dup4\n        /* \"#utility.yul\":17817:17834   */\n      add\n        /* \"#utility.yul\":17810:17857   */\n      mstore\n        /* \"#utility.yul\":17874:18005   */\n      tag_413\n        /* \"#utility.yul\":18000:18004   */\n      dup2\n        /* \"#utility.yul\":17874:18005   */\n      tag_227\n      jump\t// in\n    tag_413:\n        /* \"#utility.yul\":17866:18005   */\n      swap1\n      pop\n        /* \"#utility.yul\":17593:18012   */\n      swap2\n      swap1\n      pop\n      jump\t// out\n        /* \"#utility.yul\":18018:18350   */\n    tag_139:\n        /* \"#utility.yul\":18139:18143   */\n      0x00\n        /* \"#utility.yul\":18177:18179   */\n      0x40\n        /* \"#utility.yul\":18166:18175   */\n      dup3\n        /* \"#utility.yul\":18162:18180   */\n      add\n        /* \"#utility.yul\":18154:18180   */\n      swap1\n      pop\n        /* \"#utility.yul\":18190:18261   */\n      tag_415\n        /* \"#utility.yul\":18258:18259   */\n      0x00\n        /* \"#utility.yul\":18247:18256   */\n      dup4\n        /* \"#utility.yul\":18243:18260   */\n      add\n        /* \"#utility.yul\":18234:18240   */\n      dup6\n        /* \"#utility.yul\":18190:18261   */\n      tag_198\n      jump\t// in\n    tag_415:\n        /* \"#utility.yul\":18271:18343   */\n      tag_416\n        /* \"#utility.yul\":18339:18341   */\n      0x20\n        /* \"#utility.yul\":18328:18337   */\n      dup4\n        /* \"#utility.yul\":18324:18342   */\n      add\n        /* \"#utility.yul\":18315:18321   */\n      dup5\n        /* \"#utility.yul\":18271:18343   */\n      tag_185\n      jump\t// in\n    tag_416:\n        /* \"#utility.yul\":18018:18350   */\n      swap4\n      swap3\n      pop\n      pop\n      pop\n      jump\t// out\n        /* \"#utility.yul\":18356:18521   */\n    tag_228:\n        /* \"#utility.yul\":18496:18513   */\n      0x5472616e73666572206661696c65640000000000000000000000000000000000\n        /* \"#utility.yul\":18492:18493   */\n      0x00\n        /* \"#utility.yul\":18484:18490   */\n      dup3\n        /* \"#utility.yul\":18480:18494   */\n      add\n        /* \"#utility.yul\":18473:18514   */\n      mstore\n        /* \"#utility.yul\":18356:18521   */\n      pop\n      jump\t// out\n        /* \"#utility.yul\":18527:18893   */\n    tag_229:\n        /* \"#utility.yul\":18669:18672   */\n      0x00\n        /* \"#utility.yul\":18690:18757   */\n      tag_419\n        /* \"#utility.yul\":18754:18756   */\n      0x0f\n        /* \"#utility.yul\":18749:18752   */\n      dup4\n        /* \"#utility.yul\":18690:18757   */\n      tag_200\n      jump\t// in\n    tag_419:\n        /* \"#utility.yul\":18683:18757   */\n      swap2\n      pop\n        /* \"#utility.yul\":18766:18859   */\n      tag_420\n        /* \"#utility.yul\":18855:18858   */\n      dup3\n        /* \"#utility.yul\":18766:18859   */\n      tag_228\n      jump\t// in\n    tag_420:\n        /* \"#utility.yul\":18884:18886   */\n      0x20\n        /* \"#utility.yul\":18879:18882   */\n      dup3\n        /* \"#utility.yul\":18875:18887   */\n      add\n        /* \"#utility.yul\":18868:18887   */\n      swap1\n      pop\n        /* \"#utility.yul\":18527:18893   */\n      swap2\n      swap1\n      pop\n      jump\t// out\n        /* \"#utility.yul\":18899:19318   */\n    tag_145:\n        /* \"#utility.yul\":19065:19069   */\n      0x00\n        /* \"#utility.yul\":19103:19105   */\n      0x20\n        /* \"#utility.yul\":19092:19101   */\n      dup3\n        /* \"#utility.yul\":19088:19106   */\n      add\n        /* \"#utility.yul\":19080:19106   */\n      swap1\n      pop\n        /* \"#utility.yul\":19152:19161   */\n      dup2\n        /* \"#utility.yul\":19146:19150   */\n      dup2\n        /* \"#utility.yul\":19142:19162   */\n      sub\n        /* \"#utility.yul\":19138:19139   */\n      0x00\n        /* \"#utility.yul\":19127:19136   */\n      dup4\n        /* \"#utility.yul\":19123:19140   */\n      add\n        /* \"#utility.yul\":19116:19163   */\n      mstore\n        /* \"#utility.yul\":19180:19311   */\n      tag_422\n        /* \"#utility.yul\":19306:19310   */\n      dup2\n        /* \"#utility.yul\":19180:19311   */\n      tag_229\n      jump\t// in\n    tag_422:\n        /* \"#utility.yul\":19172:19311   */\n      swap1\n      pop\n        /* \"#utility.yul\":18899:19318   */\n      swap2\n      swap1\n      pop\n      jump\t// out\n        /* \"#utility.yul\":19324:19491   */\n    tag_230:\n        /* \"#utility.yul\":19464:19483   */\n      0x4e6f206f7074696f6e20746f2073656c6c000000000000000000000000000000\n        /* \"#utility.yul\":19460:19461   */\n      0x00\n        /* \"#utility.yul\":19452:19458   */\n      dup3\n        /* \"#utility.yul\":19448:19462   */\n      add\n        /* \"#utility.yul\":19441:19484   */\n      mstore\n        /* \"#utility.yul\":19324:19491   */\n      pop\n      jump\t// out\n        /* \"#utility.yul\":19497:19863   */\n    tag_231:\n        /* \"#utility.yul\":19639:19642   */\n      0x00\n        /* \"#utility.yul\":19660:19727   */\n      tag_425\n        /* \"#utility.yul\":19724:19726   */\n      0x11\n        /* \"#utility.yul\":19719:19722   */\n      dup4\n        /* \"#utility.yul\":19660:19727   */\n      tag_200\n      jump\t// in\n    tag_425:\n        /* \"#utility.yul\":19653:19727   */\n      swap2\n      pop\n        /* \"#utility.yul\":19736:19829   */\n      tag_426\n        /* \"#utility.yul\":19825:19828   */\n      dup3\n        /* \"#utility.yul\":19736:19829   */\n      tag_230\n      jump\t// in\n    tag_426:\n        /* \"#utility.yul\":19854:19856   */\n      0x20\n        /* \"#utility.yul\":19849:19852   */\n      dup3\n        /* \"#utility.yul\":19845:19857   */\n      add\n        /* \"#utility.yul\":19838:19857   */\n      swap1\n      pop\n        /* \"#utility.yul\":19497:19863   */\n      swap2\n      swap1\n      pop\n      jump\t// out\n        /* \"#utility.yul\":19869:20288   */\n    tag_151:\n        /* \"#utility.yul\":20035:20039   */\n      0x00\n        /* \"#utility.yul\":20073:20075   */\n      0x20\n        /* \"#utility.yul\":20062:20071   */\n      dup3\n        /* \"#utility.yul\":20058:20076   */\n      add\n        /* \"#utility.yul\":20050:20076   */\n      swap1\n      pop\n        /* \"#utility.yul\":20122:20131   */\n      dup2\n        /* \"#utility.yul\":20116:20120   */\n      dup2\n        /* \"#utility.yul\":20112:20132   */\n      sub\n        /* \"#utility.yul\":20108:20109   */\n      0x00\n        /* \"#utility.yul\":20097:20106   */\n      dup4\n        /* \"#utility.yul\":20093:20110   */\n      add\n        /* \"#utility.yul\":20086:20133   */\n      mstore\n        /* \"#utility.yul\":20150:20281   */\n      tag_428\n        /* \"#utility.yul\":20276:20280   */\n      dup2\n        /* \"#utility.yul\":20150:20281   */\n      tag_231\n      jump\t// in\n    tag_428:\n        /* \"#utility.yul\":20142:20281   */\n      swap1\n      pop\n        /* \"#utility.yul\":19869:20288   */\n      swap2\n      swap1\n      pop\n      jump\t// out\n        /* \"#utility.yul\":20294:20474   */\n    tag_232:\n        /* \"#utility.yul\":20342:20419   */\n      0x4e487b7100000000000000000000000000000000000000000000000000000000\n        /* \"#utility.yul\":20339:20340   */\n      0x00\n        /* \"#utility.yul\":20332:20420   */\n      mstore\n        /* \"#utility.yul\":20439:20443   */\n      0x12\n        /* \"#utility.yul\":20436:20437   */\n      0x04\n        /* \"#utility.yul\":20429:20444   */\n      mstore\n        /* \"#utility.yul\":20463:20467   */\n      0x24\n        /* \"#utility.yul\":20460:20461   */\n      0x00\n        /* \"#utility.yul\":20453:20468   */\n      revert\n        /* \"#utility.yul\":20480:20665   */\n    tag_160:\n        /* \"#utility.yul\":20520:20521   */\n      0x00\n        /* \"#utility.yul\":20537:20557   */\n      tag_431\n        /* \"#utility.yul\":20555:20556   */\n      dup3\n        /* \"#utility.yul\":20537:20557   */\n      tag_184\n      jump\t// in\n    tag_431:\n        /* \"#utility.yul\":20532:20557   */\n      swap2\n      pop\n        /* \"#utility.yul\":20571:20591   */\n      tag_432\n        /* \"#utility.yul\":20589:20590   */\n      dup4\n        /* \"#utility.yul\":20571:20591   */\n      tag_184\n      jump\t// in\n    tag_432:\n        /* \"#utility.yul\":20566:20591   */\n      swap3\n      pop\n        /* \"#utility.yul\":20610:20611   */\n      dup3\n        /* \"#utility.yul\":20600:20635   */\n      tag_433\n      jumpi\n        /* \"#utility.yul\":20615:20633   */\n      tag_434\n      tag_232\n      jump\t// in\n    tag_434:\n        /* \"#utility.yul\":20600:20635   */\n    tag_433:\n        /* \"#utility.yul\":20657:20658   */\n      dup3\n        /* \"#utility.yul\":20654:20655   */\n      dup3\n        /* \"#utility.yul\":20650:20659   */\n      div\n        /* \"#utility.yul\":20645:20659   */\n      swap1\n      pop\n        /* \"#utility.yul\":20480:20665   */\n      swap3\n      swap2\n      pop\n      pop\n      jump\t// out\n\n    auxdata: 0xa2646970667358221220fdd8391338142fd2c8398719257ee9bdb9e3c3a8ae69705bf793569c9eb33f4964736f6c634300081a0033\n}\n",
				"bytecode": {
					"linkReferences": {},
					"object": "608060405234801561000f575f80fd5b50604051611a05380380611a0583398181016040528101906100319190610116565b8160055f6101000a81548173ffffffffffffffffffffffffffffffffffffffff021916908373ffffffffffffffffffffffffffffffffffffffff1602179055508060065f6101000a81548173ffffffffffffffffffffffffffffffffffffffff021916908373ffffffffffffffffffffffffffffffffffffffff1602179055505050610154565b5f80fd5b5f73ffffffffffffffffffffffffffffffffffffffff82169050919050565b5f6100e5826100bc565b9050919050565b6100f5816100db565b81146100ff575f80fd5b50565b5f81519050610110816100ec565b92915050565b5f806040838503121561012c5761012b6100b8565b5b5f61013985828601610102565b925050602061014a85828601610102565b9150509250929050565b6118a4806101615f395ff3fe608060405234801561000f575f80fd5b50600436106100e8575f3560e01c806397aca13e1161008a578063b86247d711610064578063b86247d714610246578063c7b8981c14610276578063ddaa865814610280578063f50e2252146102b0576100e8565b806397aca13e146101dc578063a98ad46c1461020c578063b74973c51461022a576100e8565b806342712167116100c65780634271216714610154578063741bef1a146101845780637d59080e146101a25780638e15f473146101be576100e8565b80630700037d146100ec5780632bfc8df01461011c5780633287db4b14610138575b5f80fd5b61010660048036038101906101019190610edc565b6102cc565b6040516101139190610f1f565b60405180910390f35b61013660048036038101906101319190610f62565b6102e1565b005b610152600480360381019061014d9190610f8d565b610558565b005b61016e60048036038101906101699190610edc565b6106e7565b60405161017b9190610f1f565b60405180910390f35b61018c6106fc565b6040516101999190611026565b60405180910390f35b6101bc60048036038101906101b79190610f62565b610721565b005b6101c6610843565b6040516101d39190610f1f565b60405180910390f35b6101f660048036038101906101f19190610edc565b610922565b6040516102039190610f1f565b60405180910390f35b610214610937565b604051610221919061105f565b60405180910390f35b610244600480360381019061023f919061109b565b61095c565b005b610260600480360381019061025b9190610edc565b610a12565b60405161026d9190610f1f565b60405180910390f35b61027e610a27565b005b61029a60048036038101906102959190610edc565b610c4a565b6040516102a79190610f1f565b60405180910390f35b6102ca60048036038101906102c5919061109b565b610c5e565b005b6004602052805f5260405f205f915090505481565b5f6102ea610843565b90505f81836102f991906110f3565b90508060065f9054906101000a900473ffffffffffffffffffffffffffffffffffffffff1673ffffffffffffffffffffffffffffffffffffffff166370a08231336040518263ffffffff1660e01b81526004016103569190611143565b602060405180830381865afa158015610371573d5f803e3d5ffd5b505050506040513d601f19601f820116820180604052508101906103959190611170565b10156103d6576040517f08c379a00000000000000000000000000000000000000000000000000000000081526004016103cd906111f5565b60405180910390fd5b60065f9054906101000a900473ffffffffffffffffffffffffffffffffffffffff1673ffffffffffffffffffffffffffffffffffffffff166323b872dd3330846040518463ffffffff1660e01b815260040161043493929190611213565b6020604051808303815f875af1158015610450573d5f803e3d5ffd5b505050506040513d601f19601f82011682018060405250810190610474919061127d565b6104b3576040517f08c379a00000000000000000000000000000000000000000000000000000000081526004016104aa906112f2565b60405180910390fd5b825f803373ffffffffffffffffffffffffffffffffffffffff1673ffffffffffffffffffffffffffffffffffffffff1681526020019081526020015f205f8282546104fe9190611310565b925050819055503373ffffffffffffffffffffffffffffffffffffffff167f374f2ac8c77a0322f73aeaceb7e31508d2827b74ebaaccb167b419b9762b76658460405161054b9190610f1f565b60405180910390a2505050565b5f821161059a576040517f08c379a00000000000000000000000000000000000000000000000000000000081526004016105919061138d565b60405180910390fd5b8160025f3373ffffffffffffffffffffffffffffffffffffffff1673ffffffffffffffffffffffffffffffffffffffff1681526020019081526020015f205f8282546105e69190611310565b9250508190555062015180816105fc91906110f3565b426106079190611310565b60035f3373ffffffffffffffffffffffffffffffffffffffff1673ffffffffffffffffffffffffffffffffffffffff1681526020019081526020015f20819055506106528282610da6565b60045f3373ffffffffffffffffffffffffffffffffffffffff1673ffffffffffffffffffffffffffffffffffffffff1681526020019081526020015f20819055503373ffffffffffffffffffffffffffffffffffffffff167fe52cdcd45f0913116ea4f3de9bab0401ca2bbb5593445d1f6736170f57db75e883836040516106db9291906113ab565b60405180910390a25050565b6003602052805f5260405f205f915090505481565b60055f9054906101000a900473ffffffffffffffffffffffffffffffffffffffff1681565b805f803373ffffffffffffffffffffffffffffffffffffffff1673ffffffffffffffffffffffffffffffffffffffff1681526020019081526020015f205410156107a0576040517f08c379a00000000000000000000000000000000000000000000000000000000081526004016107979061141c565b60405180910390fd5b805f803373ffffffffffffffffffffffffffffffffffffffff1673ffffffffffffffffffffffffffffffffffffffff1681526020019081526020015f205f8282546107eb919061143a565b925050819055503373ffffffffffffffffffffffffffffffffffffffff167f3cd7b95942f6a994121c48c9028a6e02089c0fad2a699c2c4b638f2a570b9c30826040516108389190610f1f565b60405180910390a250565b5f8060055f9054906101000a900473ffffffffffffffffffffffffffffffffffffffff1673ffffffffffffffffffffffffffffffffffffffff1663feaf968c6040518163ffffffff1660e01b815260040160a060405180830381865afa1580156108af573d5f803e3d5ffd5b505050506040513d601f19601f820116820180604052508101906108d391906114df565b5050509150505f811361091b576040517f08c379a0000000000000000000000000000000000000000000000000000000008152600401610912906115a0565b60405180910390fd5b8091505090565b6001602052805f5260405f205f915090505481565b60065f9054906101000a900473ffffffffffffffffffffffffffffffffffffffff1681565b80600281111561096f5761096e6115be565b5b60015f3373ffffffffffffffffffffffffffffffffffffffff1673ffffffffffffffffffffffffffffffffffffffff1681526020019081526020015f205f8282546109ba9190611310565b925050819055503373ffffffffffffffffffffffffffffffffffffffff167f16c28021b949b7f0d6c0ba60b2a75154b604e5456802439c70c2d230d82e57ce82604051610a079190611631565b60405180910390a250565b6002602052805f5260405f205f915090505481565b60035f3373ffffffffffffffffffffffffffffffffffffffff1673ffffffffffffffffffffffffffffffffffffffff1681526020019081526020015f2054421015610aa7576040517f08c379a0000000000000000000000000000000000000000000000000000000008152600401610a9e90611694565b60405180910390fd5b5f60045f3373ffffffffffffffffffffffffffffffffffffffff1673ffffffffffffffffffffffffffffffffffffffff1681526020019081526020015f205490505f8111610b2a576040517f08c379a0000000000000000000000000000000000000000000000000000000008152600401610b21906116fc565b60405180910390fd5b5f60045f3373ffffffffffffffffffffffffffffffffffffffff1673ffffffffffffffffffffffffffffffffffffffff1681526020019081526020015f208190555060065f9054906101000a900473ffffffffffffffffffffffffffffffffffffffff1673ffffffffffffffffffffffffffffffffffffffff1663a9059cbb33836040518363ffffffff1660e01b8152600401610bc892919061171a565b6020604051808303815f875af1158015610be4573d5f803e3d5ffd5b505050506040513d601f19601f82011682018060405250810190610c08919061127d565b610c47576040517f08c379a0000000000000000000000000000000000000000000000000000000008152600401610c3e9061178b565b60405180910390fd5b50565b5f602052805f5260405f205f915090505481565b806002811115610c7157610c706115be565b5b60015f3373ffffffffffffffffffffffffffffffffffffffff1673ffffffffffffffffffffffffffffffffffffffff1681526020019081526020015f20541015610cf0576040517f08c379a0000000000000000000000000000000000000000000000000000000008152600401610ce7906117f3565b60405180910390fd5b806002811115610d0357610d026115be565b5b60015f3373ffffffffffffffffffffffffffffffffffffffff1673ffffffffffffffffffffffffffffffffffffffff1681526020019081526020015f205f828254610d4e919061143a565b925050819055503373ffffffffffffffffffffffffffffffffffffffff167f23ea343e717f615708129120780cd015ab42f16243fb030c61e810cc2fa6884682604051610d9b9190611631565b60405180910390a250565b5f60018203610dd0576103e8600e84610dbf91906110f3565b610dc9919061183e565b9050610e78565b60038203610df9576103e8601284610de891906110f3565b610df2919061183e565b9050610e78565b60078203610e22576103e8601684610e1191906110f3565b610e1b919061183e565b9050610e78565b600f8203610e4b576103e8601a84610e3a91906110f3565b610e44919061183e565b9050610e78565b601e8203610e74576103e8601e84610e6391906110f3565b610e6d919061183e565b9050610e78565b5f90505b92915050565b5f80fd5b5f73ffffffffffffffffffffffffffffffffffffffff82169050919050565b5f610eab82610e82565b9050919050565b610ebb81610ea1565b8114610ec5575f80fd5b50565b5f81359050610ed681610eb2565b92915050565b5f60208284031215610ef157610ef0610e7e565b5b5f610efe84828501610ec8565b91505092915050565b5f819050919050565b610f1981610f07565b82525050565b5f602082019050610f325f830184610f10565b92915050565b610f4181610f07565b8114610f4b575f80fd5b50565b5f81359050610f5c81610f38565b92915050565b5f60208284031215610f7757610f76610e7e565b5b5f610f8484828501610f4e565b91505092915050565b5f8060408385031215610fa357610fa2610e7e565b5b5f610fb085828601610f4e565b9250506020610fc185828601610f4e565b9150509250929050565b5f819050919050565b5f610fee610fe9610fe484610e82565b610fcb565b610e82565b9050919050565b5f610fff82610fd4565b9050919050565b5f61101082610ff5565b9050919050565b61102081611006565b82525050565b5f6020820190506110395f830184611017565b92915050565b5f61104982610ff5565b9050919050565b6110598161103f565b82525050565b5f6020820190506110725f830184611050565b92915050565b60038110611084575f80fd5b50565b5f8135905061109581611078565b92915050565b5f602082840312156110b0576110af610e7e565b5b5f6110bd84828501611087565b91505092915050565b7f4e487b71000000000000000000000000000000000000000000000000000000005f52601160045260245ffd5b5f6110fd82610f07565b915061110883610f07565b925082820261111681610f07565b9150828204841483151761112d5761112c6110c6565b5b5092915050565b61113d81610ea1565b82525050565b5f6020820190506111565f830184611134565b92915050565b5f8151905061116a81610f38565b92915050565b5f6020828403121561118557611184610e7e565b5b5f6111928482850161115c565b91505092915050565b5f82825260208201905092915050565b7f496e73756666696369656e7420555344542062616c616e6365000000000000005f82015250565b5f6111df60198361119b565b91506111ea826111ab565b602082019050919050565b5f6020820190508181035f83015261120c816111d3565b9050919050565b5f6060820190506112265f830186611134565b6112336020830185611134565b6112406040830184610f10565b949350505050565b5f8115159050919050565b61125c81611248565b8114611266575f80fd5b50565b5f8151905061127781611253565b92915050565b5f6020828403121561129257611291610e7e565b5b5f61129f84828501611269565b91505092915050565b7f55534454207472616e73666572206661696c65640000000000000000000000005f82015250565b5f6112dc60148361119b565b91506112e7826112a8565b602082019050919050565b5f6020820190508181035f830152611309816112d0565b9050919050565b5f61131a82610f07565b915061132583610f07565b925082820190508082111561133d5761133c6110c6565b5b92915050565b7f416d6f756e74206d7573742062652067726561746572207468616e20300000005f82015250565b5f611377601d8361119b565b915061138282611343565b602082019050919050565b5f6020820190508181035f8301526113a48161136b565b9050919050565b5f6040820190506113be5f830185610f10565b6113cb6020830184610f10565b9392505050565b7f496e73756666696369656e742062616c616e63650000000000000000000000005f82015250565b5f61140660148361119b565b9150611411826113d2565b602082019050919050565b5f6020820190508181035f830152611433816113fa565b9050919050565b5f61144482610f07565b915061144f83610f07565b9250828203905081811115611467576114666110c6565b5b92915050565b5f69ffffffffffffffffffff82169050919050565b61148b8161146d565b8114611495575f80fd5b50565b5f815190506114a681611482565b92915050565b5f819050919050565b6114be816114ac565b81146114c8575f80fd5b50565b5f815190506114d9816114b5565b92915050565b5f805f805f60a086880312156114f8576114f7610e7e565b5b5f61150588828901611498565b9550506020611516888289016114cb565b94505060406115278882890161115c565b93505060606115388882890161115c565b925050608061154988828901611498565b9150509295509295909350565b7f496e76616c6964207072696365206461746100000000000000000000000000005f82015250565b5f61158a60128361119b565b915061159582611556565b602082019050919050565b5f6020820190508181035f8301526115b78161157e565b9050919050565b7f4e487b71000000000000000000000000000000000000000000000000000000005f52602160045260245ffd5b600381106115fc576115fb6115be565b5b50565b5f81905061160c826115eb565b919050565b5f61161b826115ff565b9050919050565b61162b81611611565b82525050565b5f6020820190506116445f830184611622565b92915050565b7f4c6f636b20706572696f64206e6f7420656e64656400000000000000000000005f82015250565b5f61167e60158361119b565b91506116898261164a565b602082019050919050565b5f6020820190508181035f8301526116ab81611672565b9050919050565b7f4e6f207265776172647320746f207769746864726177000000000000000000005f82015250565b5f6116e660168361119b565b91506116f1826116b2565b602082019050919050565b5f6020820190508181035f830152611713816116da565b9050919050565b5f60408201905061172d5f830185611134565b61173a6020830184610f10565b9392505050565b7f5472616e73666572206661696c656400000000000000000000000000000000005f82015250565b5f611775600f8361119b565b915061178082611741565b602082019050919050565b5f6020820190508181035f8301526117a281611769565b9050919050565b7f4e6f206f7074696f6e20746f2073656c6c0000000000000000000000000000005f82015250565b5f6117dd60118361119b565b91506117e8826117a9565b602082019050919050565b5f6020820190508181035f83015261180a816117d1565b9050919050565b7f4e487b71000000000000000000000000000000000000000000000000000000005f52601260045260245ffd5b5f61184882610f07565b915061185383610f07565b92508261186357611862611811565b5b82820490509291505056fea2646970667358221220fdd8391338142fd2c8398719257ee9bdb9e3c3a8ae69705bf793569c9eb33f4964736f6c634300081a0033",
					"opcodes": "PUSH1 0x80 PUSH1 0x40 MSTORE CALLVALUE DUP1 ISZERO PUSH2 0xF JUMPI PUSH0 DUP1 REVERT JUMPDEST POP PUSH1 0x40 MLOAD PUSH2 0x1A05 CODESIZE SUB DUP1 PUSH2 0x1A05 DUP4 CODECOPY DUP2 DUP2 ADD PUSH1 0x40 MSTORE DUP2 ADD SWAP1 PUSH2 0x31 SWAP2 SWAP1 PUSH2 0x116 JUMP JUMPDEST DUP2 PUSH1 0x5 PUSH0 PUSH2 0x100 EXP DUP2 SLOAD DUP2 PUSH20 0xFFFFFFFFFFFFFFFFFFFFFFFFFFFFFFFFFFFFFFFF MUL NOT AND SWAP1 DUP4 PUSH20 0xFFFFFFFFFFFFFFFFFFFFFFFFFFFFFFFFFFFFFFFF AND MUL OR SWAP1 SSTORE POP DUP1 PUSH1 0x6 PUSH0 PUSH2 0x100 EXP DUP2 SLOAD DUP2 PUSH20 0xFFFFFFFFFFFFFFFFFFFFFFFFFFFFFFFFFFFFFFFF MUL NOT AND SWAP1 DUP4 PUSH20 0xFFFFFFFFFFFFFFFFFFFFFFFFFFFFFFFFFFFFFFFF AND MUL OR SWAP1 SSTORE POP POP POP PUSH2 0x154 JUMP JUMPDEST PUSH0 DUP1 REVERT JUMPDEST PUSH0 PUSH20 0xFFFFFFFFFFFFFFFFFFFFFFFFFFFFFFFFFFFFFFFF DUP3 AND SWAP1 POP SWAP2 SWAP1 POP JUMP JUMPDEST PUSH0 PUSH2 0xE5 DUP3 PUSH2 0xBC JUMP JUMPDEST SWAP1 POP SWAP2 SWAP1 POP JUMP JUMPDEST PUSH2 0xF5 DUP2 PUSH2 0xDB JUMP JUMPDEST DUP2 EQ PUSH2 0xFF JUMPI PUSH0 DUP1 REVERT JUMPDEST POP JUMP JUMPDEST PUSH0 DUP2 MLOAD SWAP1 POP PUSH2 0x110 DUP2 PUSH2 0xEC JUMP JUMPDEST SWAP3 SWAP2 POP POP JUMP JUMPDEST PUSH0 DUP1 PUSH1 0x40 DUP4 DUP6 SUB SLT ISZERO PUSH2 0x12C JUMPI PUSH2 0x12B PUSH2 0xB8 JUMP JUMPDEST JUMPDEST PUSH0 PUSH2 0x139 DUP6 DUP3 DUP7 ADD PUSH2 0x102 JUMP JUMPDEST SWAP3 POP POP PUSH1 0x20 PUSH2 0x14A DUP6 DUP3 DUP7 ADD PUSH2 0x102 JUMP JUMPDEST SWAP2 POP POP SWAP3 POP SWAP3 SWAP1 POP JUMP JUMPDEST PUSH2 0x18A4 DUP1 PUSH2 0x161 PUSH0 CODECOPY PUSH0 RETURN INVALID PUSH1 0x80 PUSH1 0x40 MSTORE CALLVALUE DUP1 ISZERO PUSH2 0xF JUMPI PUSH0 DUP1 REVERT JUMPDEST POP PUSH1 0x4 CALLDATASIZE LT PUSH2 0xE8 JUMPI PUSH0 CALLDATALOAD PUSH1 0xE0 SHR DUP1 PUSH4 0x97ACA13E GT PUSH2 0x8A JUMPI DUP1 PUSH4 0xB86247D7 GT PUSH2 0x64 JUMPI DUP1 PUSH4 0xB86247D7 EQ PUSH2 0x246 JUMPI DUP1 PUSH4 0xC7B8981C EQ PUSH2 0x276 JUMPI DUP1 PUSH4 0xDDAA8658 EQ PUSH2 0x280 JUMPI DUP1 PUSH4 0xF50E2252 EQ PUSH2 0x2B0 JUMPI PUSH2 0xE8 JUMP JUMPDEST DUP1 PUSH4 0x97ACA13E EQ PUSH2 0x1DC JUMPI DUP1 PUSH4 0xA98AD46C EQ PUSH2 0x20C JUMPI DUP1 PUSH4 0xB74973C5 EQ PUSH2 0x22A JUMPI PUSH2 0xE8 JUMP JUMPDEST DUP1 PUSH4 0x42712167 GT PUSH2 0xC6 JUMPI DUP1 PUSH4 0x42712167 EQ PUSH2 0x154 JUMPI DUP1 PUSH4 0x741BEF1A EQ PUSH2 0x184 JUMPI DUP1 PUSH4 0x7D59080E EQ PUSH2 0x1A2 JUMPI DUP1 PUSH4 0x8E15F473 EQ PUSH2 0x1BE JUMPI PUSH2 0xE8 JUMP JUMPDEST DUP1 PUSH4 0x700037D EQ PUSH2 0xEC JUMPI DUP1 PUSH4 0x2BFC8DF0 EQ PUSH2 0x11C JUMPI DUP1 PUSH4 0x3287DB4B EQ PUSH2 0x138 JUMPI JUMPDEST PUSH0 DUP1 REVERT JUMPDEST PUSH2 0x106 PUSH1 0x4 DUP1 CALLDATASIZE SUB DUP2 ADD SWAP1 PUSH2 0x101 SWAP2 SWAP1 PUSH2 0xEDC JUMP JUMPDEST PUSH2 0x2CC JUMP JUMPDEST PUSH1 0x40 MLOAD PUSH2 0x113 SWAP2 SWAP1 PUSH2 0xF1F JUMP JUMPDEST PUSH1 0x40 MLOAD DUP1 SWAP2 SUB SWAP1 RETURN JUMPDEST PUSH2 0x136 PUSH1 0x4 DUP1 CALLDATASIZE SUB DUP2 ADD SWAP1 PUSH2 0x131 SWAP2 SWAP1 PUSH2 0xF62 JUMP JUMPDEST PUSH2 0x2E1 JUMP JUMPDEST STOP JUMPDEST PUSH2 0x152 PUSH1 0x4 DUP1 CALLDATASIZE SUB DUP2 ADD SWAP1 PUSH2 0x14D SWAP2 SWAP1 PUSH2 0xF8D JUMP JUMPDEST PUSH2 0x558 JUMP JUMPDEST STOP JUMPDEST PUSH2 0x16E PUSH1 0x4 DUP1 CALLDATASIZE SUB DUP2 ADD SWAP1 PUSH2 0x169 SWAP2 SWAP1 PUSH2 0xEDC JUMP JUMPDEST PUSH2 0x6E7 JUMP JUMPDEST PUSH1 0x40 MLOAD PUSH2 0x17B SWAP2 SWAP1 PUSH2 0xF1F JUMP JUMPDEST PUSH1 0x40 MLOAD DUP1 SWAP2 SUB SWAP1 RETURN JUMPDEST PUSH2 0x18C PUSH2 0x6FC JUMP JUMPDEST PUSH1 0x40 MLOAD PUSH2 0x199 SWAP2 SWAP1 PUSH2 0x1026 JUMP JUMPDEST PUSH1 0x40 MLOAD DUP1 SWAP2 SUB SWAP1 RETURN JUMPDEST PUSH2 0x1BC PUSH1 0x4 DUP1 CALLDATASIZE SUB DUP2 ADD SWAP1 PUSH2 0x1B7 SWAP2 SWAP1 PUSH2 0xF62 JUMP JUMPDEST PUSH2 0x721 JUMP JUMPDEST STOP JUMPDEST PUSH2 0x1C6 PUSH2 0x843 JUMP JUMPDEST PUSH1 0x40 MLOAD PUSH2 0x1D3 SWAP2 SWAP1 PUSH2 0xF1F JUMP JUMPDEST PUSH1 0x40 MLOAD DUP1 SWAP2 SUB SWAP1 RETURN JUMPDEST PUSH2 0x1F6 PUSH1 0x4 DUP1 CALLDATASIZE SUB DUP2 ADD SWAP1 PUSH2 0x1F1 SWAP2 SWAP1 PUSH2 0xEDC JUMP JUMPDEST PUSH2 0x922 JUMP JUMPDEST PUSH1 0x40 MLOAD PUSH2 0x203 SWAP2 SWAP1 PUSH2 0xF1F JUMP JUMPDEST PUSH1 0x40 MLOAD DUP1 SWAP2 SUB SWAP1 RETURN JUMPDEST PUSH2 0x214 PUSH2 0x937 JUMP JUMPDEST PUSH1 0x40 MLOAD PUSH2 0x221 SWAP2 SWAP1 PUSH2 0x105F JUMP JUMPDEST PUSH1 0x40 MLOAD DUP1 SWAP2 SUB SWAP1 RETURN JUMPDEST PUSH2 0x244 PUSH1 0x4 DUP1 CALLDATASIZE SUB DUP2 ADD SWAP1 PUSH2 0x23F SWAP2 SWAP1 PUSH2 0x109B JUMP JUMPDEST PUSH2 0x95C JUMP JUMPDEST STOP JUMPDEST PUSH2 0x260 PUSH1 0x4 DUP1 CALLDATASIZE SUB DUP2 ADD SWAP1 PUSH2 0x25B SWAP2 SWAP1 PUSH2 0xEDC JUMP JUMPDEST PUSH2 0xA12 JUMP JUMPDEST PUSH1 0x40 MLOAD PUSH2 0x26D SWAP2 SWAP1 PUSH2 0xF1F JUMP JUMPDEST PUSH1 0x40 MLOAD DUP1 SWAP2 SUB SWAP1 RETURN JUMPDEST PUSH2 0x27E PUSH2 0xA27 JUMP JUMPDEST STOP JUMPDEST PUSH2 0x29A PUSH1 0x4 DUP1 CALLDATASIZE SUB DUP2 ADD SWAP1 PUSH2 0x295 SWAP2 SWAP1 PUSH2 0xEDC JUMP JUMPDEST PUSH2 0xC4A JUMP JUMPDEST PUSH1 0x40 MLOAD PUSH2 0x2A7 SWAP2 SWAP1 PUSH2 0xF1F JUMP JUMPDEST PUSH1 0x40 MLOAD DUP1 SWAP2 SUB SWAP1 RETURN JUMPDEST PUSH2 0x2CA PUSH1 0x4 DUP1 CALLDATASIZE SUB DUP2 ADD SWAP1 PUSH2 0x2C5 SWAP2 SWAP1 PUSH2 0x109B JUMP JUMPDEST PUSH2 0xC5E JUMP JUMPDEST STOP JUMPDEST PUSH1 0x4 PUSH1 0x20 MSTORE DUP1 PUSH0 MSTORE PUSH1 0x40 PUSH0 KECCAK256 PUSH0 SWAP2 POP SWAP1 POP SLOAD DUP2 JUMP JUMPDEST PUSH0 PUSH2 0x2EA PUSH2 0x843 JUMP JUMPDEST SWAP1 POP PUSH0 DUP2 DUP4 PUSH2 0x2F9 SWAP2 SWAP1 PUSH2 0x10F3 JUMP JUMPDEST SWAP1 POP DUP1 PUSH1 0x6 PUSH0 SWAP1 SLOAD SWAP1 PUSH2 0x100 EXP SWAP1 DIV PUSH20 0xFFFFFFFFFFFFFFFFFFFFFFFFFFFFFFFFFFFFFFFF AND PUSH20 0xFFFFFFFFFFFFFFFFFFFFFFFFFFFFFFFFFFFFFFFF AND PUSH4 0x70A08231 CALLER PUSH1 0x40 MLOAD DUP3 PUSH4 0xFFFFFFFF AND PUSH1 0xE0 SHL DUP2 MSTORE PUSH1 0x4 ADD PUSH2 0x356 SWAP2 SWAP1 PUSH2 0x1143 JUMP JUMPDEST PUSH1 0x20 PUSH1 0x40 MLOAD DUP1 DUP4 SUB DUP2 DUP7 GAS STATICCALL ISZERO DUP1 ISZERO PUSH2 0x371 JUMPI RETURNDATASIZE PUSH0 DUP1 RETURNDATACOPY RETURNDATASIZE PUSH0 REVERT JUMPDEST POP POP POP POP PUSH1 0x40 MLOAD RETURNDATASIZE PUSH1 0x1F NOT PUSH1 0x1F DUP3 ADD AND DUP3 ADD DUP1 PUSH1 0x40 MSTORE POP DUP2 ADD SWAP1 PUSH2 0x395 SWAP2 SWAP1 PUSH2 0x1170 JUMP JUMPDEST LT ISZERO PUSH2 0x3D6 JUMPI PUSH1 0x40 MLOAD PUSH32 0x8C379A000000000000000000000000000000000000000000000000000000000 DUP2 MSTORE PUSH1 0x4 ADD PUSH2 0x3CD SWAP1 PUSH2 0x11F5 JUMP JUMPDEST PUSH1 0x40 MLOAD DUP1 SWAP2 SUB SWAP1 REVERT JUMPDEST PUSH1 0x6 PUSH0 SWAP1 SLOAD SWAP1 PUSH2 0x100 EXP SWAP1 DIV PUSH20 0xFFFFFFFFFFFFFFFFFFFFFFFFFFFFFFFFFFFFFFFF AND PUSH20 0xFFFFFFFFFFFFFFFFFFFFFFFFFFFFFFFFFFFFFFFF AND PUSH4 0x23B872DD CALLER ADDRESS DUP5 PUSH1 0x40 MLOAD DUP5 PUSH4 0xFFFFFFFF AND PUSH1 0xE0 SHL DUP2 MSTORE PUSH1 0x4 ADD PUSH2 0x434 SWAP4 SWAP3 SWAP2 SWAP1 PUSH2 0x1213 JUMP JUMPDEST PUSH1 0x20 PUSH1 0x40 MLOAD DUP1 DUP4 SUB DUP2 PUSH0 DUP8 GAS CALL ISZERO DUP1 ISZERO PUSH2 0x450 JUMPI RETURNDATASIZE PUSH0 DUP1 RETURNDATACOPY RETURNDATASIZE PUSH0 REVERT JUMPDEST POP POP POP POP PUSH1 0x40 MLOAD RETURNDATASIZE PUSH1 0x1F NOT PUSH1 0x1F DUP3 ADD AND DUP3 ADD DUP1 PUSH1 0x40 MSTORE POP DUP2 ADD SWAP1 PUSH2 0x474 SWAP2 SWAP1 PUSH2 0x127D JUMP JUMPDEST PUSH2 0x4B3 JUMPI PUSH1 0x40 MLOAD PUSH32 0x8C379A000000000000000000000000000000000000000000000000000000000 DUP2 MSTORE PUSH1 0x4 ADD PUSH2 0x4AA SWAP1 PUSH2 0x12F2 JUMP JUMPDEST PUSH1 0x40 MLOAD DUP1 SWAP2 SUB SWAP1 REVERT JUMPDEST DUP3 PUSH0 DUP1 CALLER PUSH20 0xFFFFFFFFFFFFFFFFFFFFFFFFFFFFFFFFFFFFFFFF AND PUSH20 0xFFFFFFFFFFFFFFFFFFFFFFFFFFFFFFFFFFFFFFFF AND DUP2 MSTORE PUSH1 0x20 ADD SWAP1 DUP2 MSTORE PUSH1 0x20 ADD PUSH0 KECCAK256 PUSH0 DUP3 DUP3 SLOAD PUSH2 0x4FE SWAP2 SWAP1 PUSH2 0x1310 JUMP JUMPDEST SWAP3 POP POP DUP2 SWAP1 SSTORE POP CALLER PUSH20 0xFFFFFFFFFFFFFFFFFFFFFFFFFFFFFFFFFFFFFFFF AND PUSH32 0x374F2AC8C77A0322F73AEACEB7E31508D2827B74EBAACCB167B419B9762B7665 DUP5 PUSH1 0x40 MLOAD PUSH2 0x54B SWAP2 SWAP1 PUSH2 0xF1F JUMP JUMPDEST PUSH1 0x40 MLOAD DUP1 SWAP2 SUB SWAP1 LOG2 POP POP POP JUMP JUMPDEST PUSH0 DUP3 GT PUSH2 0x59A JUMPI PUSH1 0x40 MLOAD PUSH32 0x8C379A000000000000000000000000000000000000000000000000000000000 DUP2 MSTORE PUSH1 0x4 ADD PUSH2 0x591 SWAP1 PUSH2 0x138D JUMP JUMPDEST PUSH1 0x40 MLOAD DUP1 SWAP2 SUB SWAP1 REVERT JUMPDEST DUP2 PUSH1 0x2 PUSH0 CALLER PUSH20 0xFFFFFFFFFFFFFFFFFFFFFFFFFFFFFFFFFFFFFFFF AND PUSH20 0xFFFFFFFFFFFFFFFFFFFFFFFFFFFFFFFFFFFFFFFF AND DUP2 MSTORE PUSH1 0x20 ADD SWAP1 DUP2 MSTORE PUSH1 0x20 ADD PUSH0 KECCAK256 PUSH0 DUP3 DUP3 SLOAD PUSH2 0x5E6 SWAP2 SWAP1 PUSH2 0x1310 JUMP JUMPDEST SWAP3 POP POP DUP2 SWAP1 SSTORE POP PUSH3 0x15180 DUP2 PUSH2 0x5FC SWAP2 SWAP1 PUSH2 0x10F3 JUMP JUMPDEST TIMESTAMP PUSH2 0x607 SWAP2 SWAP1 PUSH2 0x1310 JUMP JUMPDEST PUSH1 0x3 PUSH0 CALLER PUSH20 0xFFFFFFFFFFFFFFFFFFFFFFFFFFFFFFFFFFFFFFFF AND PUSH20 0xFFFFFFFFFFFFFFFFFFFFFFFFFFFFFFFFFFFFFFFF AND DUP2 MSTORE PUSH1 0x20 ADD SWAP1 DUP2 MSTORE PUSH1 0x20 ADD PUSH0 KECCAK256 DUP2 SWAP1 SSTORE POP PUSH2 0x652 DUP3 DUP3 PUSH2 0xDA6 JUMP JUMPDEST PUSH1 0x4 PUSH0 CALLER PUSH20 0xFFFFFFFFFFFFFFFFFFFFFFFFFFFFFFFFFFFFFFFF AND PUSH20 0xFFFFFFFFFFFFFFFFFFFFFFFFFFFFFFFFFFFFFFFF AND DUP2 MSTORE PUSH1 0x20 ADD SWAP1 DUP2 MSTORE PUSH1 0x20 ADD PUSH0 KECCAK256 DUP2 SWAP1 SSTORE POP CALLER PUSH20 0xFFFFFFFFFFFFFFFFFFFFFFFFFFFFFFFFFFFFFFFF AND PUSH32 0xE52CDCD45F0913116EA4F3DE9BAB0401CA2BBB5593445D1F6736170F57DB75E8 DUP4 DUP4 PUSH1 0x40 MLOAD PUSH2 0x6DB SWAP3 SWAP2 SWAP1 PUSH2 0x13AB JUMP JUMPDEST PUSH1 0x40 MLOAD DUP1 SWAP2 SUB SWAP1 LOG2 POP POP JUMP JUMPDEST PUSH1 0x3 PUSH1 0x20 MSTORE DUP1 PUSH0 MSTORE PUSH1 0x40 PUSH0 KECCAK256 PUSH0 SWAP2 POP SWAP1 POP SLOAD DUP2 JUMP JUMPDEST PUSH1 0x5 PUSH0 SWAP1 SLOAD SWAP1 PUSH2 0x100 EXP SWAP1 DIV PUSH20 0xFFFFFFFFFFFFFFFFFFFFFFFFFFFFFFFFFFFFFFFF AND DUP2 JUMP JUMPDEST DUP1 PUSH0 DUP1 CALLER PUSH20 0xFFFFFFFFFFFFFFFFFFFFFFFFFFFFFFFFFFFFFFFF AND PUSH20 0xFFFFFFFFFFFFFFFFFFFFFFFFFFFFFFFFFFFFFFFF AND DUP2 MSTORE PUSH1 0x20 ADD SWAP1 DUP2 MSTORE PUSH1 0x20 ADD PUSH0 KECCAK256 SLOAD LT ISZERO PUSH2 0x7A0 JUMPI PUSH1 0x40 MLOAD PUSH32 0x8C379A000000000000000000000000000000000000000000000000000000000 DUP2 MSTORE PUSH1 0x4 ADD PUSH2 0x797 SWAP1 PUSH2 0x141C JUMP JUMPDEST PUSH1 0x40 MLOAD DUP1 SWAP2 SUB SWAP1 REVERT JUMPDEST DUP1 PUSH0 DUP1 CALLER PUSH20 0xFFFFFFFFFFFFFFFFFFFFFFFFFFFFFFFFFFFFFFFF AND PUSH20 0xFFFFFFFFFFFFFFFFFFFFFFFFFFFFFFFFFFFFFFFF AND DUP2 MSTORE PUSH1 0x20 ADD SWAP1 DUP2 MSTORE PUSH1 0x20 ADD PUSH0 KECCAK256 PUSH0 DUP3 DUP3 SLOAD PUSH2 0x7EB SWAP2 SWAP1 PUSH2 0x143A JUMP JUMPDEST SWAP3 POP POP DUP2 SWAP1 SSTORE POP CALLER PUSH20 0xFFFFFFFFFFFFFFFFFFFFFFFFFFFFFFFFFFFFFFFF AND PUSH32 0x3CD7B95942F6A994121C48C9028A6E02089C0FAD2A699C2C4B638F2A570B9C30 DUP3 PUSH1 0x40 MLOAD PUSH2 0x838 SWAP2 SWAP1 PUSH2 0xF1F JUMP JUMPDEST PUSH1 0x40 MLOAD DUP1 SWAP2 SUB SWAP1 LOG2 POP JUMP JUMPDEST PUSH0 DUP1 PUSH1 0x5 PUSH0 SWAP1 SLOAD SWAP1 PUSH2 0x100 EXP SWAP1 DIV PUSH20 0xFFFFFFFFFFFFFFFFFFFFFFFFFFFFFFFFFFFFFFFF AND PUSH20 0xFFFFFFFFFFFFFFFFFFFFFFFFFFFFFFFFFFFFFFFF AND PUSH4 0xFEAF968C PUSH1 0x40 MLOAD DUP2 PUSH4 0xFFFFFFFF AND PUSH1 0xE0 SHL DUP2 MSTORE PUSH1 0x4 ADD PUSH1 0xA0 PUSH1 0x40 MLOAD DUP1 DUP4 SUB DUP2 DUP7 GAS STATICCALL ISZERO DUP1 ISZERO PUSH2 0x8AF JUMPI RETURNDATASIZE PUSH0 DUP1 RETURNDATACOPY RETURNDATASIZE PUSH0 REVERT JUMPDEST POP POP POP POP PUSH1 0x40 MLOAD RETURNDATASIZE PUSH1 0x1F NOT PUSH1 0x1F DUP3 ADD AND DUP3 ADD DUP1 PUSH1 0x40 MSTORE POP DUP2 ADD SWAP1 PUSH2 0x8D3 SWAP2 SWAP1 PUSH2 0x14DF JUMP JUMPDEST POP POP POP SWAP2 POP POP PUSH0 DUP2 SGT PUSH2 0x91B JUMPI PUSH1 0x40 MLOAD PUSH32 0x8C379A000000000000000000000000000000000000000000000000000000000 DUP2 MSTORE PUSH1 0x4 ADD PUSH2 0x912 SWAP1 PUSH2 0x15A0 JUMP JUMPDEST PUSH1 0x40 MLOAD DUP1 SWAP2 SUB SWAP1 REVERT JUMPDEST DUP1 SWAP2 POP POP SWAP1 JUMP JUMPDEST PUSH1 0x1 PUSH1 0x20 MSTORE DUP1 PUSH0 MSTORE PUSH1 0x40 PUSH0 KECCAK256 PUSH0 SWAP2 POP SWAP1 POP SLOAD DUP2 JUMP JUMPDEST PUSH1 0x6 PUSH0 SWAP1 SLOAD SWAP1 PUSH2 0x100 EXP SWAP1 DIV PUSH20 0xFFFFFFFFFFFFFFFFFFFFFFFFFFFFFFFFFFFFFFFF AND DUP2 JUMP JUMPDEST DUP1 PUSH1 0x2 DUP2 GT ISZERO PUSH2 0x96F JUMPI PUSH2 0x96E PUSH2 0x15BE JUMP JUMPDEST JUMPDEST PUSH1 0x1 PUSH0 CALLER PUSH20 0xFFFFFFFFFFFFFFFFFFFFFFFFFFFFFFFFFFFFFFFF AND PUSH20 0xFFFFFFFFFFFFFFFFFFFFFFFFFFFFFFFFFFFFFFFF AND DUP2 MSTORE PUSH1 0x20 ADD SWAP1 DUP2 MSTORE PUSH1 0x20 ADD PUSH0 KECCAK256 PUSH0 DUP3 DUP3 SLOAD PUSH2 0x9BA SWAP2 SWAP1 PUSH2 0x1310 JUMP JUMPDEST SWAP3 POP POP DUP2 SWAP1 SSTORE POP CALLER PUSH20 0xFFFFFFFFFFFFFFFFFFFFFFFFFFFFFFFFFFFFFFFF AND PUSH32 0x16C28021B949B7F0D6C0BA60B2A75154B604E5456802439C70C2D230D82E57CE DUP3 PUSH1 0x40 MLOAD PUSH2 0xA07 SWAP2 SWAP1 PUSH2 0x1631 JUMP JUMPDEST PUSH1 0x40 MLOAD DUP1 SWAP2 SUB SWAP1 LOG2 POP JUMP JUMPDEST PUSH1 0x2 PUSH1 0x20 MSTORE DUP1 PUSH0 MSTORE PUSH1 0x40 PUSH0 KECCAK256 PUSH0 SWAP2 POP SWAP1 POP SLOAD DUP2 JUMP JUMPDEST PUSH1 0x3 PUSH0 CALLER PUSH20 0xFFFFFFFFFFFFFFFFFFFFFFFFFFFFFFFFFFFFFFFF AND PUSH20 0xFFFFFFFFFFFFFFFFFFFFFFFFFFFFFFFFFFFFFFFF AND DUP2 MSTORE PUSH1 0x20 ADD SWAP1 DUP2 MSTORE PUSH1 0x20 ADD PUSH0 KECCAK256 SLOAD TIMESTAMP LT ISZERO PUSH2 0xAA7 JUMPI PUSH1 0x40 MLOAD PUSH32 0x8C379A000000000000000000000000000000000000000000000000000000000 DUP2 MSTORE PUSH1 0x4 ADD PUSH2 0xA9E SWAP1 PUSH2 0x1694 JUMP JUMPDEST PUSH1 0x40 MLOAD DUP1 SWAP2 SUB SWAP1 REVERT JUMPDEST PUSH0 PUSH1 0x4 PUSH0 CALLER PUSH20 0xFFFFFFFFFFFFFFFFFFFFFFFFFFFFFFFFFFFFFFFF AND PUSH20 0xFFFFFFFFFFFFFFFFFFFFFFFFFFFFFFFFFFFFFFFF AND DUP2 MSTORE PUSH1 0x20 ADD SWAP1 DUP2 MSTORE PUSH1 0x20 ADD PUSH0 KECCAK256 SLOAD SWAP1 POP PUSH0 DUP2 GT PUSH2 0xB2A JUMPI PUSH1 0x40 MLOAD PUSH32 0x8C379A000000000000000000000000000000000000000000000000000000000 DUP2 MSTORE PUSH1 0x4 ADD PUSH2 0xB21 SWAP1 PUSH2 0x16FC JUMP JUMPDEST PUSH1 0x40 MLOAD DUP1 SWAP2 SUB SWAP1 REVERT JUMPDEST PUSH0 PUSH1 0x4 PUSH0 CALLER PUSH20 0xFFFFFFFFFFFFFFFFFFFFFFFFFFFFFFFFFFFFFFFF AND PUSH20 0xFFFFFFFFFFFFFFFFFFFFFFFFFFFFFFFFFFFFFFFF AND DUP2 MSTORE PUSH1 0x20 ADD SWAP1 DUP2 MSTORE PUSH1 0x20 ADD PUSH0 KECCAK256 DUP2 SWAP1 SSTORE POP PUSH1 0x6 PUSH0 SWAP1 SLOAD SWAP1 PUSH2 0x100 EXP SWAP1 DIV PUSH20 0xFFFFFFFFFFFFFFFFFFFFFFFFFFFFFFFFFFFFFFFF AND PUSH20 0xFFFFFFFFFFFFFFFFFFFFFFFFFFFFFFFFFFFFFFFF AND PUSH4 0xA9059CBB CALLER DUP4 PUSH1 0x40 MLOAD DUP4 PUSH4 0xFFFFFFFF AND PUSH1 0xE0 SHL DUP2 MSTORE PUSH1 0x4 ADD PUSH2 0xBC8 SWAP3 SWAP2 SWAP1 PUSH2 0x171A JUMP JUMPDEST PUSH1 0x20 PUSH1 0x40 MLOAD DUP1 DUP4 SUB DUP2 PUSH0 DUP8 GAS CALL ISZERO DUP1 ISZERO PUSH2 0xBE4 JUMPI RETURNDATASIZE PUSH0 DUP1 RETURNDATACOPY RETURNDATASIZE PUSH0 REVERT JUMPDEST POP POP POP POP PUSH1 0x40 MLOAD RETURNDATASIZE PUSH1 0x1F NOT PUSH1 0x1F DUP3 ADD AND DUP3 ADD DUP1 PUSH1 0x40 MSTORE POP DUP2 ADD SWAP1 PUSH2 0xC08 SWAP2 SWAP1 PUSH2 0x127D JUMP JUMPDEST PUSH2 0xC47 JUMPI PUSH1 0x40 MLOAD PUSH32 0x8C379A000000000000000000000000000000000000000000000000000000000 DUP2 MSTORE PUSH1 0x4 ADD PUSH2 0xC3E SWAP1 PUSH2 0x178B JUMP JUMPDEST PUSH1 0x40 MLOAD DUP1 SWAP2 SUB SWAP1 REVERT JUMPDEST POP JUMP JUMPDEST PUSH0 PUSH1 0x20 MSTORE DUP1 PUSH0 MSTORE PUSH1 0x40 PUSH0 KECCAK256 PUSH0 SWAP2 POP SWAP1 POP SLOAD DUP2 JUMP JUMPDEST DUP1 PUSH1 0x2 DUP2 GT ISZERO PUSH2 0xC71 JUMPI PUSH2 0xC70 PUSH2 0x15BE JUMP JUMPDEST JUMPDEST PUSH1 0x1 PUSH0 CALLER PUSH20 0xFFFFFFFFFFFFFFFFFFFFFFFFFFFFFFFFFFFFFFFF AND PUSH20 0xFFFFFFFFFFFFFFFFFFFFFFFFFFFFFFFFFFFFFFFF AND DUP2 MSTORE PUSH1 0x20 ADD SWAP1 DUP2 MSTORE PUSH1 0x20 ADD PUSH0 KECCAK256 SLOAD LT ISZERO PUSH2 0xCF0 JUMPI PUSH1 0x40 MLOAD PUSH32 0x8C379A000000000000000000000000000000000000000000000000000000000 DUP2 MSTORE PUSH1 0x4 ADD PUSH2 0xCE7 SWAP1 PUSH2 0x17F3 JUMP JUMPDEST PUSH1 0x40 MLOAD DUP1 SWAP2 SUB SWAP1 REVERT JUMPDEST DUP1 PUSH1 0x2 DUP2 GT ISZERO PUSH2 0xD03 JUMPI PUSH2 0xD02 PUSH2 0x15BE JUMP JUMPDEST JUMPDEST PUSH1 0x1 PUSH0 CALLER PUSH20 0xFFFFFFFFFFFFFFFFFFFFFFFFFFFFFFFFFFFFFFFF AND PUSH20 0xFFFFFFFFFFFFFFFFFFFFFFFFFFFFFFFFFFFFFFFF AND DUP2 MSTORE PUSH1 0x20 ADD SWAP1 DUP2 MSTORE PUSH1 0x20 ADD PUSH0 KECCAK256 PUSH0 DUP3 DUP3 SLOAD PUSH2 0xD4E SWAP2 SWAP1 PUSH2 0x143A JUMP JUMPDEST SWAP3 POP POP DUP2 SWAP1 SSTORE POP CALLER PUSH20 0xFFFFFFFFFFFFFFFFFFFFFFFFFFFFFFFFFFFFFFFF AND PUSH32 0x23EA343E717F615708129120780CD015AB42F16243FB030C61E810CC2FA68846 DUP3 PUSH1 0x40 MLOAD PUSH2 0xD9B SWAP2 SWAP1 PUSH2 0x1631 JUMP JUMPDEST PUSH1 0x40 MLOAD DUP1 SWAP2 SUB SWAP1 LOG2 POP JUMP JUMPDEST PUSH0 PUSH1 0x1 DUP3 SUB PUSH2 0xDD0 JUMPI PUSH2 0x3E8 PUSH1 0xE DUP5 PUSH2 0xDBF SWAP2 SWAP1 PUSH2 0x10F3 JUMP JUMPDEST PUSH2 0xDC9 SWAP2 SWAP1 PUSH2 0x183E JUMP JUMPDEST SWAP1 POP PUSH2 0xE78 JUMP JUMPDEST PUSH1 0x3 DUP3 SUB PUSH2 0xDF9 JUMPI PUSH2 0x3E8 PUSH1 0x12 DUP5 PUSH2 0xDE8 SWAP2 SWAP1 PUSH2 0x10F3 JUMP JUMPDEST PUSH2 0xDF2 SWAP2 SWAP1 PUSH2 0x183E JUMP JUMPDEST SWAP1 POP PUSH2 0xE78 JUMP JUMPDEST PUSH1 0x7 DUP3 SUB PUSH2 0xE22 JUMPI PUSH2 0x3E8 PUSH1 0x16 DUP5 PUSH2 0xE11 SWAP2 SWAP1 PUSH2 0x10F3 JUMP JUMPDEST PUSH2 0xE1B SWAP2 SWAP1 PUSH2 0x183E JUMP JUMPDEST SWAP1 POP PUSH2 0xE78 JUMP JUMPDEST PUSH1 0xF DUP3 SUB PUSH2 0xE4B JUMPI PUSH2 0x3E8 PUSH1 0x1A DUP5 PUSH2 0xE3A SWAP2 SWAP1 PUSH2 0x10F3 JUMP JUMPDEST PUSH2 0xE44 SWAP2 SWAP1 PUSH2 0x183E JUMP JUMPDEST SWAP1 POP PUSH2 0xE78 JUMP JUMPDEST PUSH1 0x1E DUP3 SUB PUSH2 0xE74 JUMPI PUSH2 0x3E8 PUSH1 0x1E DUP5 PUSH2 0xE63 SWAP2 SWAP1 PUSH2 0x10F3 JUMP JUMPDEST PUSH2 0xE6D SWAP2 SWAP1 PUSH2 0x183E JUMP JUMPDEST SWAP1 POP PUSH2 0xE78 JUMP JUMPDEST PUSH0 SWAP1 POP JUMPDEST SWAP3 SWAP2 POP POP JUMP JUMPDEST PUSH0 DUP1 REVERT JUMPDEST PUSH0 PUSH20 0xFFFFFFFFFFFFFFFFFFFFFFFFFFFFFFFFFFFFFFFF DUP3 AND SWAP1 POP SWAP2 SWAP1 POP JUMP JUMPDEST PUSH0 PUSH2 0xEAB DUP3 PUSH2 0xE82 JUMP JUMPDEST SWAP1 POP SWAP2 SWAP1 POP JUMP JUMPDEST PUSH2 0xEBB DUP2 PUSH2 0xEA1 JUMP JUMPDEST DUP2 EQ PUSH2 0xEC5 JUMPI PUSH0 DUP1 REVERT JUMPDEST POP JUMP JUMPDEST PUSH0 DUP2 CALLDATALOAD SWAP1 POP PUSH2 0xED6 DUP2 PUSH2 0xEB2 JUMP JUMPDEST SWAP3 SWAP2 POP POP JUMP JUMPDEST PUSH0 PUSH1 0x20 DUP3 DUP5 SUB SLT ISZERO PUSH2 0xEF1 JUMPI PUSH2 0xEF0 PUSH2 0xE7E JUMP JUMPDEST JUMPDEST PUSH0 PUSH2 0xEFE DUP5 DUP3 DUP6 ADD PUSH2 0xEC8 JUMP JUMPDEST SWAP2 POP POP SWAP3 SWAP2 POP POP JUMP JUMPDEST PUSH0 DUP2 SWAP1 POP SWAP2 SWAP1 POP JUMP JUMPDEST PUSH2 0xF19 DUP2 PUSH2 0xF07 JUMP JUMPDEST DUP3 MSTORE POP POP JUMP JUMPDEST PUSH0 PUSH1 0x20 DUP3 ADD SWAP1 POP PUSH2 0xF32 PUSH0 DUP4 ADD DUP5 PUSH2 0xF10 JUMP JUMPDEST SWAP3 SWAP2 POP POP JUMP JUMPDEST PUSH2 0xF41 DUP2 PUSH2 0xF07 JUMP JUMPDEST DUP2 EQ PUSH2 0xF4B JUMPI PUSH0 DUP1 REVERT JUMPDEST POP JUMP JUMPDEST PUSH0 DUP2 CALLDATALOAD SWAP1 POP PUSH2 0xF5C DUP2 PUSH2 0xF38 JUMP JUMPDEST SWAP3 SWAP2 POP POP JUMP JUMPDEST PUSH0 PUSH1 0x20 DUP3 DUP5 SUB SLT ISZERO PUSH2 0xF77 JUMPI PUSH2 0xF76 PUSH2 0xE7E JUMP JUMPDEST JUMPDEST PUSH0 PUSH2 0xF84 DUP5 DUP3 DUP6 ADD PUSH2 0xF4E JUMP JUMPDEST SWAP2 POP POP SWAP3 SWAP2 POP POP JUMP JUMPDEST PUSH0 DUP1 PUSH1 0x40 DUP4 DUP6 SUB SLT ISZERO PUSH2 0xFA3 JUMPI PUSH2 0xFA2 PUSH2 0xE7E JUMP JUMPDEST JUMPDEST PUSH0 PUSH2 0xFB0 DUP6 DUP3 DUP7 ADD PUSH2 0xF4E JUMP JUMPDEST SWAP3 POP POP PUSH1 0x20 PUSH2 0xFC1 DUP6 DUP3 DUP7 ADD PUSH2 0xF4E JUMP JUMPDEST SWAP2 POP POP SWAP3 POP SWAP3 SWAP1 POP JUMP JUMPDEST PUSH0 DUP2 SWAP1 POP SWAP2 SWAP1 POP JUMP JUMPDEST PUSH0 PUSH2 0xFEE PUSH2 0xFE9 PUSH2 0xFE4 DUP5 PUSH2 0xE82 JUMP JUMPDEST PUSH2 0xFCB JUMP JUMPDEST PUSH2 0xE82 JUMP JUMPDEST SWAP1 POP SWAP2 SWAP1 POP JUMP JUMPDEST PUSH0 PUSH2 0xFFF DUP3 PUSH2 0xFD4 JUMP JUMPDEST SWAP1 POP SWAP2 SWAP1 POP JUMP JUMPDEST PUSH0 PUSH2 0x1010 DUP3 PUSH2 0xFF5 JUMP JUMPDEST SWAP1 POP SWAP2 SWAP1 POP JUMP JUMPDEST PUSH2 0x1020 DUP2 PUSH2 0x1006 JUMP JUMPDEST DUP3 MSTORE POP POP JUMP JUMPDEST PUSH0 PUSH1 0x20 DUP3 ADD SWAP1 POP PUSH2 0x1039 PUSH0 DUP4 ADD DUP5 PUSH2 0x1017 JUMP JUMPDEST SWAP3 SWAP2 POP POP JUMP JUMPDEST PUSH0 PUSH2 0x1049 DUP3 PUSH2 0xFF5 JUMP JUMPDEST SWAP1 POP SWAP2 SWAP1 POP JUMP JUMPDEST PUSH2 0x1059 DUP2 PUSH2 0x103F JUMP JUMPDEST DUP3 MSTORE POP POP JUMP JUMPDEST PUSH0 PUSH1 0x20 DUP3 ADD SWAP1 POP PUSH2 0x1072 PUSH0 DUP4 ADD DUP5 PUSH2 0x1050 JUMP JUMPDEST SWAP3 SWAP2 POP POP JUMP JUMPDEST PUSH1 0x3 DUP2 LT PUSH2 0x1084 JUMPI PUSH0 DUP1 REVERT JUMPDEST POP JUMP JUMPDEST PUSH0 DUP2 CALLDATALOAD SWAP1 POP PUSH2 0x1095 DUP2 PUSH2 0x1078 JUMP JUMPDEST SWAP3 SWAP2 POP POP JUMP JUMPDEST PUSH0 PUSH1 0x20 DUP3 DUP5 SUB SLT ISZERO PUSH2 0x10B0 JUMPI PUSH2 0x10AF PUSH2 0xE7E JUMP JUMPDEST JUMPDEST PUSH0 PUSH2 0x10BD DUP5 DUP3 DUP6 ADD PUSH2 0x1087 JUMP JUMPDEST SWAP2 POP POP SWAP3 SWAP2 POP POP JUMP JUMPDEST PUSH32 0x4E487B7100000000000000000000000000000000000000000000000000000000 PUSH0 MSTORE PUSH1 0x11 PUSH1 0x4 MSTORE PUSH1 0x24 PUSH0 REVERT JUMPDEST PUSH0 PUSH2 0x10FD DUP3 PUSH2 0xF07 JUMP JUMPDEST SWAP2 POP PUSH2 0x1108 DUP4 PUSH2 0xF07 JUMP JUMPDEST SWAP3 POP DUP3 DUP3 MUL PUSH2 0x1116 DUP2 PUSH2 0xF07 JUMP JUMPDEST SWAP2 POP DUP3 DUP3 DIV DUP5 EQ DUP4 ISZERO OR PUSH2 0x112D JUMPI PUSH2 0x112C PUSH2 0x10C6 JUMP JUMPDEST JUMPDEST POP SWAP3 SWAP2 POP POP JUMP JUMPDEST PUSH2 0x113D DUP2 PUSH2 0xEA1 JUMP JUMPDEST DUP3 MSTORE POP POP JUMP JUMPDEST PUSH0 PUSH1 0x20 DUP3 ADD SWAP1 POP PUSH2 0x1156 PUSH0 DUP4 ADD DUP5 PUSH2 0x1134 JUMP JUMPDEST SWAP3 SWAP2 POP POP JUMP JUMPDEST PUSH0 DUP2 MLOAD SWAP1 POP PUSH2 0x116A DUP2 PUSH2 0xF38 JUMP JUMPDEST SWAP3 SWAP2 POP POP JUMP JUMPDEST PUSH0 PUSH1 0x20 DUP3 DUP5 SUB SLT ISZERO PUSH2 0x1185 JUMPI PUSH2 0x1184 PUSH2 0xE7E JUMP JUMPDEST JUMPDEST PUSH0 PUSH2 0x1192 DUP5 DUP3 DUP6 ADD PUSH2 0x115C JUMP JUMPDEST SWAP2 POP POP SWAP3 SWAP2 POP POP JUMP JUMPDEST PUSH0 DUP3 DUP3 MSTORE PUSH1 0x20 DUP3 ADD SWAP1 POP SWAP3 SWAP2 POP POP JUMP JUMPDEST PUSH32 0x496E73756666696369656E7420555344542062616C616E636500000000000000 PUSH0 DUP3 ADD MSTORE POP JUMP JUMPDEST PUSH0 PUSH2 0x11DF PUSH1 0x19 DUP4 PUSH2 0x119B JUMP JUMPDEST SWAP2 POP PUSH2 0x11EA DUP3 PUSH2 0x11AB JUMP JUMPDEST PUSH1 0x20 DUP3 ADD SWAP1 POP SWAP2 SWAP1 POP JUMP JUMPDEST PUSH0 PUSH1 0x20 DUP3 ADD SWAP1 POP DUP2 DUP2 SUB PUSH0 DUP4 ADD MSTORE PUSH2 0x120C DUP2 PUSH2 0x11D3 JUMP JUMPDEST SWAP1 POP SWAP2 SWAP1 POP JUMP JUMPDEST PUSH0 PUSH1 0x60 DUP3 ADD SWAP1 POP PUSH2 0x1226 PUSH0 DUP4 ADD DUP7 PUSH2 0x1134 JUMP JUMPDEST PUSH2 0x1233 PUSH1 0x20 DUP4 ADD DUP6 PUSH2 0x1134 JUMP JUMPDEST PUSH2 0x1240 PUSH1 0x40 DUP4 ADD DUP5 PUSH2 0xF10 JUMP JUMPDEST SWAP5 SWAP4 POP POP POP POP JUMP JUMPDEST PUSH0 DUP2 ISZERO ISZERO SWAP1 POP SWAP2 SWAP1 POP JUMP JUMPDEST PUSH2 0x125C DUP2 PUSH2 0x1248 JUMP JUMPDEST DUP2 EQ PUSH2 0x1266 JUMPI PUSH0 DUP1 REVERT JUMPDEST POP JUMP JUMPDEST PUSH0 DUP2 MLOAD SWAP1 POP PUSH2 0x1277 DUP2 PUSH2 0x1253 JUMP JUMPDEST SWAP3 SWAP2 POP POP JUMP JUMPDEST PUSH0 PUSH1 0x20 DUP3 DUP5 SUB SLT ISZERO PUSH2 0x1292 JUMPI PUSH2 0x1291 PUSH2 0xE7E JUMP JUMPDEST JUMPDEST PUSH0 PUSH2 0x129F DUP5 DUP3 DUP6 ADD PUSH2 0x1269 JUMP JUMPDEST SWAP2 POP POP SWAP3 SWAP2 POP POP JUMP JUMPDEST PUSH32 0x55534454207472616E73666572206661696C6564000000000000000000000000 PUSH0 DUP3 ADD MSTORE POP JUMP JUMPDEST PUSH0 PUSH2 0x12DC PUSH1 0x14 DUP4 PUSH2 0x119B JUMP JUMPDEST SWAP2 POP PUSH2 0x12E7 DUP3 PUSH2 0x12A8 JUMP JUMPDEST PUSH1 0x20 DUP3 ADD SWAP1 POP SWAP2 SWAP1 POP JUMP JUMPDEST PUSH0 PUSH1 0x20 DUP3 ADD SWAP1 POP DUP2 DUP2 SUB PUSH0 DUP4 ADD MSTORE PUSH2 0x1309 DUP2 PUSH2 0x12D0 JUMP JUMPDEST SWAP1 POP SWAP2 SWAP1 POP JUMP JUMPDEST PUSH0 PUSH2 0x131A DUP3 PUSH2 0xF07 JUMP JUMPDEST SWAP2 POP PUSH2 0x1325 DUP4 PUSH2 0xF07 JUMP JUMPDEST SWAP3 POP DUP3 DUP3 ADD SWAP1 POP DUP1 DUP3 GT ISZERO PUSH2 0x133D JUMPI PUSH2 0x133C PUSH2 0x10C6 JUMP JUMPDEST JUMPDEST SWAP3 SWAP2 POP POP JUMP JUMPDEST PUSH32 0x416D6F756E74206D7573742062652067726561746572207468616E2030000000 PUSH0 DUP3 ADD MSTORE POP JUMP JUMPDEST PUSH0 PUSH2 0x1377 PUSH1 0x1D DUP4 PUSH2 0x119B JUMP JUMPDEST SWAP2 POP PUSH2 0x1382 DUP3 PUSH2 0x1343 JUMP JUMPDEST PUSH1 0x20 DUP3 ADD SWAP1 POP SWAP2 SWAP1 POP JUMP JUMPDEST PUSH0 PUSH1 0x20 DUP3 ADD SWAP1 POP DUP2 DUP2 SUB PUSH0 DUP4 ADD MSTORE PUSH2 0x13A4 DUP2 PUSH2 0x136B JUMP JUMPDEST SWAP1 POP SWAP2 SWAP1 POP JUMP JUMPDEST PUSH0 PUSH1 0x40 DUP3 ADD SWAP1 POP PUSH2 0x13BE PUSH0 DUP4 ADD DUP6 PUSH2 0xF10 JUMP JUMPDEST PUSH2 0x13CB PUSH1 0x20 DUP4 ADD DUP5 PUSH2 0xF10 JUMP JUMPDEST SWAP4 SWAP3 POP POP POP JUMP JUMPDEST PUSH32 0x496E73756666696369656E742062616C616E6365000000000000000000000000 PUSH0 DUP3 ADD MSTORE POP JUMP JUMPDEST PUSH0 PUSH2 0x1406 PUSH1 0x14 DUP4 PUSH2 0x119B JUMP JUMPDEST SWAP2 POP PUSH2 0x1411 DUP3 PUSH2 0x13D2 JUMP JUMPDEST PUSH1 0x20 DUP3 ADD SWAP1 POP SWAP2 SWAP1 POP JUMP JUMPDEST PUSH0 PUSH1 0x20 DUP3 ADD SWAP1 POP DUP2 DUP2 SUB PUSH0 DUP4 ADD MSTORE PUSH2 0x1433 DUP2 PUSH2 0x13FA JUMP JUMPDEST SWAP1 POP SWAP2 SWAP1 POP JUMP JUMPDEST PUSH0 PUSH2 0x1444 DUP3 PUSH2 0xF07 JUMP JUMPDEST SWAP2 POP PUSH2 0x144F DUP4 PUSH2 0xF07 JUMP JUMPDEST SWAP3 POP DUP3 DUP3 SUB SWAP1 POP DUP2 DUP2 GT ISZERO PUSH2 0x1467 JUMPI PUSH2 0x1466 PUSH2 0x10C6 JUMP JUMPDEST JUMPDEST SWAP3 SWAP2 POP POP JUMP JUMPDEST PUSH0 PUSH10 0xFFFFFFFFFFFFFFFFFFFF DUP3 AND SWAP1 POP SWAP2 SWAP1 POP JUMP JUMPDEST PUSH2 0x148B DUP2 PUSH2 0x146D JUMP JUMPDEST DUP2 EQ PUSH2 0x1495 JUMPI PUSH0 DUP1 REVERT JUMPDEST POP JUMP JUMPDEST PUSH0 DUP2 MLOAD SWAP1 POP PUSH2 0x14A6 DUP2 PUSH2 0x1482 JUMP JUMPDEST SWAP3 SWAP2 POP POP JUMP JUMPDEST PUSH0 DUP2 SWAP1 POP SWAP2 SWAP1 POP JUMP JUMPDEST PUSH2 0x14BE DUP2 PUSH2 0x14AC JUMP JUMPDEST DUP2 EQ PUSH2 0x14C8 JUMPI PUSH0 DUP1 REVERT JUMPDEST POP JUMP JUMPDEST PUSH0 DUP2 MLOAD SWAP1 POP PUSH2 0x14D9 DUP2 PUSH2 0x14B5 JUMP JUMPDEST SWAP3 SWAP2 POP POP JUMP JUMPDEST PUSH0 DUP1 PUSH0 DUP1 PUSH0 PUSH1 0xA0 DUP7 DUP9 SUB SLT ISZERO PUSH2 0x14F8 JUMPI PUSH2 0x14F7 PUSH2 0xE7E JUMP JUMPDEST JUMPDEST PUSH0 PUSH2 0x1505 DUP9 DUP3 DUP10 ADD PUSH2 0x1498 JUMP JUMPDEST SWAP6 POP POP PUSH1 0x20 PUSH2 0x1516 DUP9 DUP3 DUP10 ADD PUSH2 0x14CB JUMP JUMPDEST SWAP5 POP POP PUSH1 0x40 PUSH2 0x1527 DUP9 DUP3 DUP10 ADD PUSH2 0x115C JUMP JUMPDEST SWAP4 POP POP PUSH1 0x60 PUSH2 0x1538 DUP9 DUP3 DUP10 ADD PUSH2 0x115C JUMP JUMPDEST SWAP3 POP POP PUSH1 0x80 PUSH2 0x1549 DUP9 DUP3 DUP10 ADD PUSH2 0x1498 JUMP JUMPDEST SWAP2 POP POP SWAP3 SWAP6 POP SWAP3 SWAP6 SWAP1 SWAP4 POP JUMP JUMPDEST PUSH32 0x496E76616C696420707269636520646174610000000000000000000000000000 PUSH0 DUP3 ADD MSTORE POP JUMP JUMPDEST PUSH0 PUSH2 0x158A PUSH1 0x12 DUP4 PUSH2 0x119B JUMP JUMPDEST SWAP2 POP PUSH2 0x1595 DUP3 PUSH2 0x1556 JUMP JUMPDEST PUSH1 0x20 DUP3 ADD SWAP1 POP SWAP2 SWAP1 POP JUMP JUMPDEST PUSH0 PUSH1 0x20 DUP3 ADD SWAP1 POP DUP2 DUP2 SUB PUSH0 DUP4 ADD MSTORE PUSH2 0x15B7 DUP2 PUSH2 0x157E JUMP JUMPDEST SWAP1 POP SWAP2 SWAP1 POP JUMP JUMPDEST PUSH32 0x4E487B7100000000000000000000000000000000000000000000000000000000 PUSH0 MSTORE PUSH1 0x21 PUSH1 0x4 MSTORE PUSH1 0x24 PUSH0 REVERT JUMPDEST PUSH1 0x3 DUP2 LT PUSH2 0x15FC JUMPI PUSH2 0x15FB PUSH2 0x15BE JUMP JUMPDEST JUMPDEST POP JUMP JUMPDEST PUSH0 DUP2 SWAP1 POP PUSH2 0x160C DUP3 PUSH2 0x15EB JUMP JUMPDEST SWAP2 SWAP1 POP JUMP JUMPDEST PUSH0 PUSH2 0x161B DUP3 PUSH2 0x15FF JUMP JUMPDEST SWAP1 POP SWAP2 SWAP1 POP JUMP JUMPDEST PUSH2 0x162B DUP2 PUSH2 0x1611 JUMP JUMPDEST DUP3 MSTORE POP POP JUMP JUMPDEST PUSH0 PUSH1 0x20 DUP3 ADD SWAP1 POP PUSH2 0x1644 PUSH0 DUP4 ADD DUP5 PUSH2 0x1622 JUMP JUMPDEST SWAP3 SWAP2 POP POP JUMP JUMPDEST PUSH32 0x4C6F636B20706572696F64206E6F7420656E6465640000000000000000000000 PUSH0 DUP3 ADD MSTORE POP JUMP JUMPDEST PUSH0 PUSH2 0x167E PUSH1 0x15 DUP4 PUSH2 0x119B JUMP JUMPDEST SWAP2 POP PUSH2 0x1689 DUP3 PUSH2 0x164A JUMP JUMPDEST PUSH1 0x20 DUP3 ADD SWAP1 POP SWAP2 SWAP1 POP JUMP JUMPDEST PUSH0 PUSH1 0x20 DUP3 ADD SWAP1 POP DUP2 DUP2 SUB PUSH0 DUP4 ADD MSTORE PUSH2 0x16AB DUP2 PUSH2 0x1672 JUMP JUMPDEST SWAP1 POP SWAP2 SWAP1 POP JUMP JUMPDEST PUSH32 0x4E6F207265776172647320746F20776974686472617700000000000000000000 PUSH0 DUP3 ADD MSTORE POP JUMP JUMPDEST PUSH0 PUSH2 0x16E6 PUSH1 0x16 DUP4 PUSH2 0x119B JUMP JUMPDEST SWAP2 POP PUSH2 0x16F1 DUP3 PUSH2 0x16B2 JUMP JUMPDEST PUSH1 0x20 DUP3 ADD SWAP1 POP SWAP2 SWAP1 POP JUMP JUMPDEST PUSH0 PUSH1 0x20 DUP3 ADD SWAP1 POP DUP2 DUP2 SUB PUSH0 DUP4 ADD MSTORE PUSH2 0x1713 DUP2 PUSH2 0x16DA JUMP JUMPDEST SWAP1 POP SWAP2 SWAP1 POP JUMP JUMPDEST PUSH0 PUSH1 0x40 DUP3 ADD SWAP1 POP PUSH2 0x172D PUSH0 DUP4 ADD DUP6 PUSH2 0x1134 JUMP JUMPDEST PUSH2 0x173A PUSH1 0x20 DUP4 ADD DUP5 PUSH2 0xF10 JUMP JUMPDEST SWAP4 SWAP3 POP POP POP JUMP JUMPDEST PUSH32 0x5472616E73666572206661696C65640000000000000000000000000000000000 PUSH0 DUP3 ADD MSTORE POP JUMP JUMPDEST PUSH0 PUSH2 0x1775 PUSH1 0xF DUP4 PUSH2 0x119B JUMP JUMPDEST SWAP2 POP PUSH2 0x1780 DUP3 PUSH2 0x1741 JUMP JUMPDEST PUSH1 0x20 DUP3 ADD SWAP1 POP SWAP2 SWAP1 POP JUMP JUMPDEST PUSH0 PUSH1 0x20 DUP3 ADD SWAP1 POP DUP2 DUP2 SUB PUSH0 DUP4 ADD MSTORE PUSH2 0x17A2 DUP2 PUSH2 0x1769 JUMP JUMPDEST SWAP1 POP SWAP2 SWAP1 POP JUMP JUMPDEST PUSH32 0x4E6F206F7074696F6E20746F2073656C6C000000000000000000000000000000 PUSH0 DUP3 ADD MSTORE POP JUMP JUMPDEST PUSH0 PUSH2 0x17DD PUSH1 0x11 DUP4 PUSH2 0x119B JUMP JUMPDEST SWAP2 POP PUSH2 0x17E8 DUP3 PUSH2 0x17A9 JUMP JUMPDEST PUSH1 0x20 DUP3 ADD SWAP1 POP SWAP2 SWAP1 POP JUMP JUMPDEST PUSH0 PUSH1 0x20 DUP3 ADD SWAP1 POP DUP2 DUP2 SUB PUSH0 DUP4 ADD MSTORE PUSH2 0x180A DUP2 PUSH2 0x17D1 JUMP JUMPDEST SWAP1 POP SWAP2 SWAP1 POP JUMP JUMPDEST PUSH32 0x4E487B7100000000000000000000000000000000000000000000000000000000 PUSH0 MSTORE PUSH1 0x12 PUSH1 0x4 MSTORE PUSH1 0x24 PUSH0 REVERT JUMPDEST PUSH0 PUSH2 0x1848 DUP3 PUSH2 0xF07 JUMP JUMPDEST SWAP2 POP PUSH2 0x1853 DUP4 PUSH2 0xF07 JUMP JUMPDEST SWAP3 POP DUP3 PUSH2 0x1863 JUMPI PUSH2 0x1862 PUSH2 0x1811 JUMP JUMPDEST JUMPDEST DUP3 DUP3 DIV SWAP1 POP SWAP3 SWAP2 POP POP JUMP INVALID LOG2 PUSH5 0x6970667358 0x22 SLT KECCAK256 REVERT 0xD8 CODECOPY SGT CODESIZE EQ 0x2F 0xD2 0xC8 CODECOPY DUP8 NOT 0x25 PUSH31 0xE9BDB9E3C3A8AE69705BF793569C9EB33F4964736F6C634300081A00330000 "
				},
				"gasEstimates": {
					"creation": {
						"codeDepositCost": "1261600",
						"executionCost": "infinite",
						"totalCost": "infinite"
					},
					"external": {
						"getLatestPrice()": "infinite",
						"lockEndTimes(address)": "2825",
						"lockFunds(uint256,uint256)": "infinite",
						"lockedFunds(address)": "2824",
						"priceFeed()": "infinite",
						"purchaseTetherGoldOption(uint8)": "infinite",
						"purchaseXAUT(uint256)": "infinite",
						"rewards(address)": "2826",
						"sellTetherGoldOption(uint8)": "infinite",
						"tetherGoldOptions(address)": "2825",
						"usdtToken()": "infinite",
						"withdrawRewards()": "infinite",
						"withdrawXAUT(uint256)": "infinite",
						"xautBalances(address)": "2867"
					},
					"internal": {
						"calculateReward(uint256,uint256)": "infinite"
					}
				},
				"methodIdentifiers": {
					"getLatestPrice()": "8e15f473",
					"lockEndTimes(address)": "42712167",
					"lockFunds(uint256,uint256)": "3287db4b",
					"lockedFunds(address)": "b86247d7",
					"priceFeed()": "741bef1a",
					"purchaseTetherGoldOption(uint8)": "b74973c5",
					"purchaseXAUT(uint256)": "2bfc8df0",
					"rewards(address)": "0700037d",
					"sellTetherGoldOption(uint8)": "f50e2252",
					"tetherGoldOptions(address)": "97aca13e",
					"usdtToken()": "a98ad46c",
					"withdrawRewards()": "c7b8981c",
					"withdrawXAUT(uint256)": "7d59080e",
					"xautBalances(address)": "ddaa8658"
				}
			},
			"storageLayout": {
				"storage": [
					{
						"astId": 135,
						"contract": "RM.sol:GoldToken",
						"label": "xautBalances",
						"offset": 0,
						"slot": "0",
						"type": "t_mapping(t_address,t_uint256)"
					},
					{
						"astId": 139,
						"contract": "RM.sol:GoldToken",
						"label": "tetherGoldOptions",
						"offset": 0,
						"slot": "1",
						"type": "t_mapping(t_address,t_uint256)"
					},
					{
						"astId": 143,
						"contract": "RM.sol:GoldToken",
						"label": "lockedFunds",
						"offset": 0,
						"slot": "2",
						"type": "t_mapping(t_address,t_uint256)"
					},
					{
						"astId": 147,
						"contract": "RM.sol:GoldToken",
						"label": "lockEndTimes",
						"offset": 0,
						"slot": "3",
						"type": "t_mapping(t_address,t_uint256)"
					},
					{
						"astId": 151,
						"contract": "RM.sol:GoldToken",
						"label": "rewards",
						"offset": 0,
						"slot": "4",
						"type": "t_mapping(t_address,t_uint256)"
					},
					{
						"astId": 154,
						"contract": "RM.sol:GoldToken",
						"label": "priceFeed",
						"offset": 0,
						"slot": "5",
						"type": "t_contract(AggregatorV3Interface)45"
					},
					{
						"astId": 157,
						"contract": "RM.sol:GoldToken",
						"label": "usdtToken",
						"offset": 0,
						"slot": "6",
						"type": "t_contract(IERC20)123"
					}
				],
				"types": {
					"t_address": {
						"encoding": "inplace",
						"label": "address",
						"numberOfBytes": "20"
					},
					"t_contract(AggregatorV3Interface)45": {
						"encoding": "inplace",
						"label": "contract AggregatorV3Interface",
						"numberOfBytes": "20"
					},
					"t_contract(IERC20)123": {
						"encoding": "inplace",
						"label": "contract IERC20",
						"numberOfBytes": "20"
					},
					"t_mapping(t_address,t_uint256)": {
						"encoding": "mapping",
						"key": "t_address",
						"label": "mapping(address => uint256)",
						"numberOfBytes": "32",
						"value": "t_uint256"
					},
					"t_uint256": {
						"encoding": "inplace",
						"label": "uint256",
						"numberOfBytes": "32"
					}
				}
			},
			"userdoc": {
				"kind": "user",
				"methods": {},
				"version": 1
			}
		}
	}
}